{
	"contracts/Histochain.sol": {
		"Histochain": {
			"abi": [
				{
					"inputs": [],
					"stateMutability": "nonpayable",
					"type": "constructor"
				},
				{
					"inputs": [],
					"name": "_expired",
					"outputs": [
						{
							"internalType": "address",
							"name": "",
							"type": "address"
						}
					],
					"stateMutability": "view",
					"type": "function"
				},
				{
					"inputs": [],
					"name": "_type",
					"outputs": [
						{
							"internalType": "address",
							"name": "",
							"type": "address"
						}
					],
					"stateMutability": "view",
					"type": "function"
				},
				{
					"inputs": [],
					"name": "getOwner",
					"outputs": [
						{
							"internalType": "address",
							"name": "",
							"type": "address"
						}
					],
					"stateMutability": "view",
					"type": "function"
				},
				{
					"inputs": [],
					"name": "getTypePermission",
					"outputs": [
						{
							"internalType": "address",
							"name": "",
							"type": "address"
						}
					],
					"stateMutability": "nonpayable",
					"type": "function"
				},
				{
					"inputs": [
						{
							"internalType": "uint256",
							"name": "_openingTime",
							"type": "uint256"
						},
						{
							"internalType": "uint256",
							"name": "_closingTime",
							"type": "uint256"
						}
					],
					"name": "timeExpired",
					"outputs": [],
					"stateMutability": "nonpayable",
					"type": "function"
				}
			],
			"devdoc": {
				"kind": "dev",
				"methods": {},
				"version": 1
			},
			"evm": {
				"assembly": "    /* \"contracts/Histochain.sol\":66:842  contract Histochain {\r... */\n  mstore(0x40, 0x80)\n    /* \"contracts/Histochain.sol\":298:389  constructor() {\r... */\n  callvalue\n  dup1\n  iszero\n  tag_1\n  jumpi\n  0x00\n  dup1\n  revert\ntag_1:\n  pop\n    /* \"contracts/Histochain.sol\":332:342  msg.sender */\n  caller\n    /* \"contracts/Histochain.sol\":323:329  _owner */\n  0x00\n  dup1\n    /* \"contracts/Histochain.sol\":323:342  _owner = msg.sender */\n  0x0100\n  exp\n  dup2\n  sload\n  dup2\n  0xffffffffffffffffffffffffffffffffffffffff\n  mul\n  not\n  and\n  swap1\n  dup4\n  0xffffffffffffffffffffffffffffffffffffffff\n  and\n  mul\n  or\n  swap1\n  sstore\n  pop\n    /* \"contracts/Histochain.sol\":361:371  msg.sender */\n  caller\n    /* \"contracts/Histochain.sol\":353:358  _type */\n  0x01\n  0x00\n    /* \"contracts/Histochain.sol\":353:371  _type = msg.sender */\n  0x0100\n  exp\n  dup2\n  sload\n  dup2\n  0xffffffffffffffffffffffffffffffffffffffff\n  mul\n  not\n  and\n  swap1\n  dup4\n  0xffffffffffffffffffffffffffffffffffffffff\n  and\n  mul\n  or\n  swap1\n  sstore\n  pop\n    /* \"contracts/Histochain.sol\":66:842  contract Histochain {\r... */\n  dataSize(sub_0)\n  dup1\n  dataOffset(sub_0)\n  0x00\n  codecopy\n  0x00\n  return\nstop\n\nsub_0: assembly {\n        /* \"contracts/Histochain.sol\":66:842  contract Histochain {\r... */\n      mstore(0x40, 0x80)\n      callvalue\n      dup1\n      iszero\n      tag_1\n      jumpi\n      0x00\n      dup1\n      revert\n    tag_1:\n      pop\n      jumpi(tag_2, lt(calldatasize, 0x04))\n      shr(0xe0, calldataload(0x00))\n      dup1\n      0x276d0db0\n      eq\n      tag_3\n      jumpi\n      dup1\n      0x524df28a\n      eq\n      tag_4\n      jumpi\n      dup1\n      0x840eb6ed\n      eq\n      tag_5\n      jumpi\n      dup1\n      0x893d20e8\n      eq\n      tag_6\n      jumpi\n      dup1\n      0xd85b2704\n      eq\n      tag_7\n      jumpi\n    tag_2:\n      0x00\n      dup1\n      revert\n        /* \"contracts/Histochain.sol\":582:839  function timeExpired(uint256 _openingTime, uint256 _closingTime) public {\r... */\n    tag_3:\n      tag_8\n      0x04\n      dup1\n      calldatasize\n      sub\n      dup2\n      add\n      swap1\n      tag_9\n      swap2\n      swap1\n      tag_10\n      jump\t// in\n    tag_9:\n      tag_11\n      jump\t// in\n    tag_8:\n      stop\n        /* \"contracts/Histochain.sol\":266:289  address public _expired */\n    tag_4:\n      tag_12\n      tag_13\n      jump\t// in\n    tag_12:\n      mload(0x40)\n      tag_14\n      swap2\n      swap1\n      tag_15\n      jump\t// in\n    tag_14:\n      mload(0x40)\n      dup1\n      swap2\n      sub\n      swap1\n      return\n        /* \"contracts/Histochain.sol\":488:574  function getTypePermission() external returns(address) {\r... */\n    tag_5:\n      tag_16\n      tag_17\n      jump\t// in\n    tag_16:\n      mload(0x40)\n      tag_18\n      swap2\n      swap1\n      tag_15\n      jump\t// in\n    tag_18:\n      mload(0x40)\n      dup1\n      swap2\n      sub\n      swap1\n      return\n        /* \"contracts/Histochain.sol\":397:480  function getOwner() external view returns(address) {\r... */\n    tag_6:\n      tag_19\n      tag_20\n      jump\t// in\n    tag_19:\n      mload(0x40)\n      tag_21\n      swap2\n      swap1\n      tag_15\n      jump\t// in\n    tag_21:\n      mload(0x40)\n      dup1\n      swap2\n      sub\n      swap1\n      return\n        /* \"contracts/Histochain.sol\":239:259  address public _type */\n    tag_7:\n      tag_22\n      tag_23\n      jump\t// in\n    tag_22:\n      mload(0x40)\n      tag_24\n      swap2\n      swap1\n      tag_15\n      jump\t// in\n    tag_24:\n      mload(0x40)\n      dup1\n      swap2\n      sub\n      swap1\n      return\n        /* \"contracts/Histochain.sol\":582:839  function timeExpired(uint256 _openingTime, uint256 _closingTime) public {\r... */\n    tag_11:\n        /* \"contracts/Histochain.sol\":689:704  block.timestamp */\n      timestamp\n        /* \"contracts/Histochain.sol\":673:685  _openingTime */\n      dup3\n        /* \"contracts/Histochain.sol\":673:704  _openingTime >= block.timestamp */\n      lt\n      iszero\n        /* \"contracts/Histochain.sol\":665:705  require(_openingTime >= block.timestamp) */\n      tag_26\n      jumpi\n      0x00\n      dup1\n      revert\n    tag_26:\n        /* \"contracts/Histochain.sol\":740:752  _openingTime */\n      dup2\n        /* \"contracts/Histochain.sol\":724:736  _closingTime */\n      dup2\n        /* \"contracts/Histochain.sol\":724:752  _closingTime >= _openingTime */\n      lt\n      iszero\n        /* \"contracts/Histochain.sol\":716:753  require(_closingTime >= _openingTime) */\n      tag_27\n      jumpi\n      0x00\n      dup1\n      revert\n    tag_27:\n        /* \"contracts/Histochain.sol\":582:839  function timeExpired(uint256 _openingTime, uint256 _closingTime) public {\r... */\n      pop\n      pop\n      jump\t// out\n        /* \"contracts/Histochain.sol\":266:289  address public _expired */\n    tag_13:\n      0x02\n      0x00\n      swap1\n      sload\n      swap1\n      0x0100\n      exp\n      swap1\n      div\n      0xffffffffffffffffffffffffffffffffffffffff\n      and\n      dup2\n      jump\t// out\n        /* \"contracts/Histochain.sol\":488:574  function getTypePermission() external returns(address) {\r... */\n    tag_17:\n        /* \"contracts/Histochain.sol\":534:541  address */\n      0x00\n        /* \"contracts/Histochain.sol\":561:566  _type */\n      0x01\n      0x00\n      swap1\n      sload\n      swap1\n      0x0100\n      exp\n      swap1\n      div\n      0xffffffffffffffffffffffffffffffffffffffff\n      and\n        /* \"contracts/Histochain.sol\":554:566  return _type */\n      swap1\n      pop\n        /* \"contracts/Histochain.sol\":488:574  function getTypePermission() external returns(address) {\r... */\n      swap1\n      jump\t// out\n        /* \"contracts/Histochain.sol\":397:480  function getOwner() external view returns(address) {\r... */\n    tag_20:\n        /* \"contracts/Histochain.sol\":439:446  address */\n      0x00\n        /* \"contracts/Histochain.sol\":466:472  _owner */\n      dup1\n      0x00\n      swap1\n      sload\n      swap1\n      0x0100\n      exp\n      swap1\n      div\n      0xffffffffffffffffffffffffffffffffffffffff\n      and\n        /* \"contracts/Histochain.sol\":459:472  return _owner */\n      swap1\n      pop\n        /* \"contracts/Histochain.sol\":397:480  function getOwner() external view returns(address) {\r... */\n      swap1\n      jump\t// out\n        /* \"contracts/Histochain.sol\":239:259  address public _type */\n    tag_23:\n      0x01\n      0x00\n      swap1\n      sload\n      swap1\n      0x0100\n      exp\n      swap1\n      div\n      0xffffffffffffffffffffffffffffffffffffffff\n      and\n      dup2\n      jump\t// out\n        /* \"#utility.yul\":7:146   */\n    tag_31:\n        /* \"#utility.yul\":53:58   */\n      0x00\n        /* \"#utility.yul\":91:97   */\n      dup2\n        /* \"#utility.yul\":78:98   */\n      calldataload\n        /* \"#utility.yul\":69:98   */\n      swap1\n      pop\n        /* \"#utility.yul\":107:140   */\n      tag_33\n        /* \"#utility.yul\":134:139   */\n      dup2\n        /* \"#utility.yul\":107:140   */\n      tag_34\n      jump\t// in\n    tag_33:\n        /* \"#utility.yul\":59:146   */\n      swap3\n      swap2\n      pop\n      pop\n      jump\t// out\n        /* \"#utility.yul\":152:559   */\n    tag_10:\n        /* \"#utility.yul\":220:226   */\n      0x00\n        /* \"#utility.yul\":228:234   */\n      dup1\n        /* \"#utility.yul\":277:279   */\n      0x40\n        /* \"#utility.yul\":265:274   */\n      dup4\n        /* \"#utility.yul\":256:263   */\n      dup6\n        /* \"#utility.yul\":252:275   */\n      sub\n        /* \"#utility.yul\":248:280   */\n      slt\n        /* \"#utility.yul\":245:247   */\n      iszero\n      tag_36\n      jumpi\n        /* \"#utility.yul\":293:294   */\n      0x00\n        /* \"#utility.yul\":290:291   */\n      dup1\n        /* \"#utility.yul\":283:295   */\n      revert\n        /* \"#utility.yul\":245:247   */\n    tag_36:\n        /* \"#utility.yul\":336:337   */\n      0x00\n        /* \"#utility.yul\":361:414   */\n      tag_37\n        /* \"#utility.yul\":406:413   */\n      dup6\n        /* \"#utility.yul\":397:403   */\n      dup3\n        /* \"#utility.yul\":386:395   */\n      dup7\n        /* \"#utility.yul\":382:404   */\n      add\n        /* \"#utility.yul\":361:414   */\n      tag_31\n      jump\t// in\n    tag_37:\n        /* \"#utility.yul\":351:414   */\n      swap3\n      pop\n        /* \"#utility.yul\":307:424   */\n      pop\n        /* \"#utility.yul\":463:465   */\n      0x20\n        /* \"#utility.yul\":489:542   */\n      tag_38\n        /* \"#utility.yul\":534:541   */\n      dup6\n        /* \"#utility.yul\":525:531   */\n      dup3\n        /* \"#utility.yul\":514:523   */\n      dup7\n        /* \"#utility.yul\":510:532   */\n      add\n        /* \"#utility.yul\":489:542   */\n      tag_31\n      jump\t// in\n    tag_38:\n        /* \"#utility.yul\":479:542   */\n      swap2\n      pop\n        /* \"#utility.yul\":434:552   */\n      pop\n        /* \"#utility.yul\":235:559   */\n      swap3\n      pop\n      swap3\n      swap1\n      pop\n      jump\t// out\n        /* \"#utility.yul\":565:683   */\n    tag_39:\n        /* \"#utility.yul\":652:676   */\n      tag_41\n        /* \"#utility.yul\":670:675   */\n      dup2\n        /* \"#utility.yul\":652:676   */\n      tag_42\n      jump\t// in\n    tag_41:\n        /* \"#utility.yul\":647:650   */\n      dup3\n        /* \"#utility.yul\":640:677   */\n      mstore\n        /* \"#utility.yul\":630:683   */\n      pop\n      pop\n      jump\t// out\n        /* \"#utility.yul\":689:911   */\n    tag_15:\n        /* \"#utility.yul\":782:786   */\n      0x00\n        /* \"#utility.yul\":820:822   */\n      0x20\n        /* \"#utility.yul\":809:818   */\n      dup3\n        /* \"#utility.yul\":805:823   */\n      add\n        /* \"#utility.yul\":797:823   */\n      swap1\n      pop\n        /* \"#utility.yul\":833:904   */\n      tag_44\n        /* \"#utility.yul\":901:902   */\n      0x00\n        /* \"#utility.yul\":890:899   */\n      dup4\n        /* \"#utility.yul\":886:903   */\n      add\n        /* \"#utility.yul\":877:883   */\n      dup5\n        /* \"#utility.yul\":833:904   */\n      tag_39\n      jump\t// in\n    tag_44:\n        /* \"#utility.yul\":787:911   */\n      swap3\n      swap2\n      pop\n      pop\n      jump\t// out\n        /* \"#utility.yul\":917:1013   */\n    tag_42:\n        /* \"#utility.yul\":954:961   */\n      0x00\n        /* \"#utility.yul\":983:1007   */\n      tag_46\n        /* \"#utility.yul\":1001:1006   */\n      dup3\n        /* \"#utility.yul\":983:1007   */\n      tag_47\n      jump\t// in\n    tag_46:\n        /* \"#utility.yul\":972:1007   */\n      swap1\n      pop\n        /* \"#utility.yul\":962:1013   */\n      swap2\n      swap1\n      pop\n      jump\t// out\n        /* \"#utility.yul\":1019:1145   */\n    tag_47:\n        /* \"#utility.yul\":1056:1063   */\n      0x00\n        /* \"#utility.yul\":1096:1138   */\n      0xffffffffffffffffffffffffffffffffffffffff\n        /* \"#utility.yul\":1089:1094   */\n      dup3\n        /* \"#utility.yul\":1085:1139   */\n      and\n        /* \"#utility.yul\":1074:1139   */\n      swap1\n      pop\n        /* \"#utility.yul\":1064:1145   */\n      swap2\n      swap1\n      pop\n      jump\t// out\n        /* \"#utility.yul\":1151:1228   */\n    tag_49:\n        /* \"#utility.yul\":1188:1195   */\n      0x00\n        /* \"#utility.yul\":1217:1222   */\n      dup2\n        /* \"#utility.yul\":1206:1222   */\n      swap1\n      pop\n        /* \"#utility.yul\":1196:1228   */\n      swap2\n      swap1\n      pop\n      jump\t// out\n        /* \"#utility.yul\":1234:1356   */\n    tag_34:\n        /* \"#utility.yul\":1307:1331   */\n      tag_52\n        /* \"#utility.yul\":1325:1330   */\n      dup2\n        /* \"#utility.yul\":1307:1331   */\n      tag_49\n      jump\t// in\n    tag_52:\n        /* \"#utility.yul\":1300:1305   */\n      dup2\n        /* \"#utility.yul\":1297:1332   */\n      eq\n        /* \"#utility.yul\":1287:1289   */\n      tag_53\n      jumpi\n        /* \"#utility.yul\":1346:1347   */\n      0x00\n        /* \"#utility.yul\":1343:1344   */\n      dup1\n        /* \"#utility.yul\":1336:1348   */\n      revert\n        /* \"#utility.yul\":1287:1289   */\n    tag_53:\n        /* \"#utility.yul\":1277:1356   */\n      pop\n      jump\t// out\n\n    auxdata: 0xa2646970667358221220bea7e7deafb8779d41069ed6ed41853139555510c92eca7aa45d7266ccbe4c5c64736f6c63430008040033\n}\n",
				"bytecode": {
					"linkReferences": {},
					"object": "608060405234801561001057600080fd5b50336000806101000a81548173ffffffffffffffffffffffffffffffffffffffff021916908373ffffffffffffffffffffffffffffffffffffffff16021790555033600160006101000a81548173ffffffffffffffffffffffffffffffffffffffff021916908373ffffffffffffffffffffffffffffffffffffffff1602179055506102b1806100a16000396000f3fe608060405234801561001057600080fd5b50600436106100575760003560e01c8063276d0db01461005c578063524df28a14610078578063840eb6ed14610096578063893d20e8146100b4578063d85b2704146100d2575b600080fd5b610076600480360381019061007191906101c2565b6100f0565b005b61008061010e565b60405161008d919061020d565b60405180910390f35b61009e610134565b6040516100ab919061020d565b60405180910390f35b6100bc61015e565b6040516100c9919061020d565b60405180910390f35b6100da610187565b6040516100e7919061020d565b60405180910390f35b428210156100fd57600080fd5b8181101561010a57600080fd5b5050565b600260009054906101000a900473ffffffffffffffffffffffffffffffffffffffff1681565b6000600160009054906101000a900473ffffffffffffffffffffffffffffffffffffffff16905090565b60008060009054906101000a900473ffffffffffffffffffffffffffffffffffffffff16905090565b600160009054906101000a900473ffffffffffffffffffffffffffffffffffffffff1681565b6000813590506101bc81610264565b92915050565b600080604083850312156101d557600080fd5b60006101e3858286016101ad565b92505060206101f4858286016101ad565b9150509250929050565b61020781610228565b82525050565b600060208201905061022260008301846101fe565b92915050565b60006102338261023a565b9050919050565b600073ffffffffffffffffffffffffffffffffffffffff82169050919050565b6000819050919050565b61026d8161025a565b811461027857600080fd5b5056fea2646970667358221220bea7e7deafb8779d41069ed6ed41853139555510c92eca7aa45d7266ccbe4c5c64736f6c63430008040033",
					"opcodes": "PUSH1 0x80 PUSH1 0x40 MSTORE CALLVALUE DUP1 ISZERO PUSH2 0x10 JUMPI PUSH1 0x0 DUP1 REVERT JUMPDEST POP CALLER PUSH1 0x0 DUP1 PUSH2 0x100 EXP DUP2 SLOAD DUP2 PUSH20 0xFFFFFFFFFFFFFFFFFFFFFFFFFFFFFFFFFFFFFFFF MUL NOT AND SWAP1 DUP4 PUSH20 0xFFFFFFFFFFFFFFFFFFFFFFFFFFFFFFFFFFFFFFFF AND MUL OR SWAP1 SSTORE POP CALLER PUSH1 0x1 PUSH1 0x0 PUSH2 0x100 EXP DUP2 SLOAD DUP2 PUSH20 0xFFFFFFFFFFFFFFFFFFFFFFFFFFFFFFFFFFFFFFFF MUL NOT AND SWAP1 DUP4 PUSH20 0xFFFFFFFFFFFFFFFFFFFFFFFFFFFFFFFFFFFFFFFF AND MUL OR SWAP1 SSTORE POP PUSH2 0x2B1 DUP1 PUSH2 0xA1 PUSH1 0x0 CODECOPY PUSH1 0x0 RETURN INVALID PUSH1 0x80 PUSH1 0x40 MSTORE CALLVALUE DUP1 ISZERO PUSH2 0x10 JUMPI PUSH1 0x0 DUP1 REVERT JUMPDEST POP PUSH1 0x4 CALLDATASIZE LT PUSH2 0x57 JUMPI PUSH1 0x0 CALLDATALOAD PUSH1 0xE0 SHR DUP1 PUSH4 0x276D0DB0 EQ PUSH2 0x5C JUMPI DUP1 PUSH4 0x524DF28A EQ PUSH2 0x78 JUMPI DUP1 PUSH4 0x840EB6ED EQ PUSH2 0x96 JUMPI DUP1 PUSH4 0x893D20E8 EQ PUSH2 0xB4 JUMPI DUP1 PUSH4 0xD85B2704 EQ PUSH2 0xD2 JUMPI JUMPDEST PUSH1 0x0 DUP1 REVERT JUMPDEST PUSH2 0x76 PUSH1 0x4 DUP1 CALLDATASIZE SUB DUP2 ADD SWAP1 PUSH2 0x71 SWAP2 SWAP1 PUSH2 0x1C2 JUMP JUMPDEST PUSH2 0xF0 JUMP JUMPDEST STOP JUMPDEST PUSH2 0x80 PUSH2 0x10E JUMP JUMPDEST PUSH1 0x40 MLOAD PUSH2 0x8D SWAP2 SWAP1 PUSH2 0x20D JUMP JUMPDEST PUSH1 0x40 MLOAD DUP1 SWAP2 SUB SWAP1 RETURN JUMPDEST PUSH2 0x9E PUSH2 0x134 JUMP JUMPDEST PUSH1 0x40 MLOAD PUSH2 0xAB SWAP2 SWAP1 PUSH2 0x20D JUMP JUMPDEST PUSH1 0x40 MLOAD DUP1 SWAP2 SUB SWAP1 RETURN JUMPDEST PUSH2 0xBC PUSH2 0x15E JUMP JUMPDEST PUSH1 0x40 MLOAD PUSH2 0xC9 SWAP2 SWAP1 PUSH2 0x20D JUMP JUMPDEST PUSH1 0x40 MLOAD DUP1 SWAP2 SUB SWAP1 RETURN JUMPDEST PUSH2 0xDA PUSH2 0x187 JUMP JUMPDEST PUSH1 0x40 MLOAD PUSH2 0xE7 SWAP2 SWAP1 PUSH2 0x20D JUMP JUMPDEST PUSH1 0x40 MLOAD DUP1 SWAP2 SUB SWAP1 RETURN JUMPDEST TIMESTAMP DUP3 LT ISZERO PUSH2 0xFD JUMPI PUSH1 0x0 DUP1 REVERT JUMPDEST DUP2 DUP2 LT ISZERO PUSH2 0x10A JUMPI PUSH1 0x0 DUP1 REVERT JUMPDEST POP POP JUMP JUMPDEST PUSH1 0x2 PUSH1 0x0 SWAP1 SLOAD SWAP1 PUSH2 0x100 EXP SWAP1 DIV PUSH20 0xFFFFFFFFFFFFFFFFFFFFFFFFFFFFFFFFFFFFFFFF AND DUP2 JUMP JUMPDEST PUSH1 0x0 PUSH1 0x1 PUSH1 0x0 SWAP1 SLOAD SWAP1 PUSH2 0x100 EXP SWAP1 DIV PUSH20 0xFFFFFFFFFFFFFFFFFFFFFFFFFFFFFFFFFFFFFFFF AND SWAP1 POP SWAP1 JUMP JUMPDEST PUSH1 0x0 DUP1 PUSH1 0x0 SWAP1 SLOAD SWAP1 PUSH2 0x100 EXP SWAP1 DIV PUSH20 0xFFFFFFFFFFFFFFFFFFFFFFFFFFFFFFFFFFFFFFFF AND SWAP1 POP SWAP1 JUMP JUMPDEST PUSH1 0x1 PUSH1 0x0 SWAP1 SLOAD SWAP1 PUSH2 0x100 EXP SWAP1 DIV PUSH20 0xFFFFFFFFFFFFFFFFFFFFFFFFFFFFFFFFFFFFFFFF AND DUP2 JUMP JUMPDEST PUSH1 0x0 DUP2 CALLDATALOAD SWAP1 POP PUSH2 0x1BC DUP2 PUSH2 0x264 JUMP JUMPDEST SWAP3 SWAP2 POP POP JUMP JUMPDEST PUSH1 0x0 DUP1 PUSH1 0x40 DUP4 DUP6 SUB SLT ISZERO PUSH2 0x1D5 JUMPI PUSH1 0x0 DUP1 REVERT JUMPDEST PUSH1 0x0 PUSH2 0x1E3 DUP6 DUP3 DUP7 ADD PUSH2 0x1AD JUMP JUMPDEST SWAP3 POP POP PUSH1 0x20 PUSH2 0x1F4 DUP6 DUP3 DUP7 ADD PUSH2 0x1AD JUMP JUMPDEST SWAP2 POP POP SWAP3 POP SWAP3 SWAP1 POP JUMP JUMPDEST PUSH2 0x207 DUP2 PUSH2 0x228 JUMP JUMPDEST DUP3 MSTORE POP POP JUMP JUMPDEST PUSH1 0x0 PUSH1 0x20 DUP3 ADD SWAP1 POP PUSH2 0x222 PUSH1 0x0 DUP4 ADD DUP5 PUSH2 0x1FE JUMP JUMPDEST SWAP3 SWAP2 POP POP JUMP JUMPDEST PUSH1 0x0 PUSH2 0x233 DUP3 PUSH2 0x23A JUMP JUMPDEST SWAP1 POP SWAP2 SWAP1 POP JUMP JUMPDEST PUSH1 0x0 PUSH20 0xFFFFFFFFFFFFFFFFFFFFFFFFFFFFFFFFFFFFFFFF DUP3 AND SWAP1 POP SWAP2 SWAP1 POP JUMP JUMPDEST PUSH1 0x0 DUP2 SWAP1 POP SWAP2 SWAP1 POP JUMP JUMPDEST PUSH2 0x26D DUP2 PUSH2 0x25A JUMP JUMPDEST DUP2 EQ PUSH2 0x278 JUMPI PUSH1 0x0 DUP1 REVERT JUMPDEST POP JUMP INVALID LOG2 PUSH5 0x6970667358 0x22 SLT KECCAK256 0xBE 0xA7 0xE7 0xDE 0xAF 0xB8 PUSH24 0x9D41069ED6ED41853139555510C92ECA7AA45D7266CCBE4C 0x5C PUSH5 0x736F6C6343 STOP ADDMOD DIV STOP CALLER "
				},
				"gasEstimates": {
					"creation": {
						"codeDepositCost": "137800",
						"executionCost": "41915",
						"totalCost": "179715"
					},
					"external": {
						"_expired()": "1214",
						"_type()": "1280",
						"getOwner()": "1266",
						"getTypePermission()": "1244",
						"timeExpired(uint256,uint256)": "infinite"
					}
				},
				"methodIdentifiers": {
					"_expired()": "524df28a",
					"_type()": "d85b2704",
					"getOwner()": "893d20e8",
					"getTypePermission()": "840eb6ed",
					"timeExpired(uint256,uint256)": "276d0db0"
				}
			},
			"storageLayout": {
				"storage": [
					{
						"astId": 3,
						"contract": "contracts/Histochain.sol:Histochain",
						"label": "_owner",
						"offset": 0,
						"slot": "0",
						"type": "t_address"
					},
					{
						"astId": 5,
						"contract": "contracts/Histochain.sol:Histochain",
						"label": "_type",
						"offset": 0,
						"slot": "1",
						"type": "t_address"
					},
					{
						"astId": 7,
						"contract": "contracts/Histochain.sol:Histochain",
						"label": "_expired",
						"offset": 0,
						"slot": "2",
						"type": "t_address"
					}
				],
				"types": {
					"t_address": {
						"encoding": "inplace",
						"label": "address",
						"numberOfBytes": "20"
					}
				}
			},
			"userdoc": {
				"kind": "user",
				"methods": {},
				"version": 1
			}
		}
	}
}