{
	"contracts/Histochain.sol": {
		"Histochain": {
			"abi": [
				{
					"inputs": [],
					"stateMutability": "nonpayable",
					"type": "constructor"
				},
				{
					"inputs": [],
					"name": "_type",
					"outputs": [
						{
							"internalType": "string",
							"name": "",
							"type": "string"
						}
					],
					"stateMutability": "view",
					"type": "function"
				},
				{
					"inputs": [],
					"name": "getOwner",
					"outputs": [
						{
							"internalType": "address",
							"name": "",
							"type": "address"
						}
					],
					"stateMutability": "view",
					"type": "function"
				},
				{
					"inputs": [
						{
							"internalType": "string",
							"name": "inputType",
							"type": "string"
						}
					],
					"name": "setTypePermission",
					"outputs": [],
					"stateMutability": "nonpayable",
					"type": "function"
				},
				{
					"inputs": [],
					"name": "spin",
					"outputs": [],
					"stateMutability": "payable",
					"type": "function"
				}
			],
			"devdoc": {
				"kind": "dev",
				"methods": {},
				"version": 1
			},
			"evm": {
				"assembly": "    /* \"contracts/Histochain.sol\":66:902  contract Histochain {\r... */\n  mstore(0x40, 0x80)\n    /* \"contracts/Histochain.sol\":290:342  constructor() {\r... */\n  callvalue\n  dup1\n  iszero\n  tag_1\n  jumpi\n  0x00\n  dup1\n  revert\ntag_1:\n  pop\n    /* \"contracts/Histochain.sol\":324:334  msg.sender */\n  caller\n    /* \"contracts/Histochain.sol\":315:321  _owner */\n  0x00\n  dup1\n    /* \"contracts/Histochain.sol\":315:334  _owner = msg.sender */\n  0x0100\n  exp\n  dup2\n  sload\n  dup2\n  0xffffffffffffffffffffffffffffffffffffffff\n  mul\n  not\n  and\n  swap1\n  dup4\n  0xffffffffffffffffffffffffffffffffffffffff\n  and\n  mul\n  or\n  swap1\n  sstore\n  pop\n    /* \"contracts/Histochain.sol\":66:902  contract Histochain {\r... */\n  dataSize(sub_0)\n  dup1\n  dataOffset(sub_0)\n  0x00\n  codecopy\n  0x00\n  return\nstop\n\nsub_0: assembly {\n        /* \"contracts/Histochain.sol\":66:902  contract Histochain {\r... */\n      mstore(0x40, 0x80)\n      jumpi(tag_1, lt(calldatasize, 0x04))\n      shr(0xe0, calldataload(0x00))\n      dup1\n      0x893d20e8\n      eq\n      tag_2\n      jumpi\n      dup1\n      0xaeb94c9d\n      eq\n      tag_3\n      jumpi\n      dup1\n      0xd85b2704\n      eq\n      tag_4\n      jumpi\n      dup1\n      0xf0acd7d5\n      eq\n      tag_5\n      jumpi\n    tag_1:\n      0x00\n      dup1\n      revert\n        /* \"contracts/Histochain.sol\":350:433  function getOwner() external view returns(address) {\r... */\n    tag_2:\n      callvalue\n      dup1\n      iszero\n      tag_6\n      jumpi\n      0x00\n      dup1\n      revert\n    tag_6:\n      pop\n      tag_7\n      tag_8\n      jump\t// in\n    tag_7:\n      mload(0x40)\n      tag_9\n      swap2\n      swap1\n      tag_10\n      jump\t// in\n    tag_9:\n      mload(0x40)\n      dup1\n      swap2\n      sub\n      swap1\n      return\n        /* \"contracts/Histochain.sol\":441:536  function setTypePermission(string memory inputType) public {\r... */\n    tag_3:\n      callvalue\n      dup1\n      iszero\n      tag_11\n      jumpi\n      0x00\n      dup1\n      revert\n    tag_11:\n      pop\n      tag_12\n      0x04\n      dup1\n      calldatasize\n      sub\n      dup2\n      add\n      swap1\n      tag_13\n      swap2\n      swap1\n      tag_14\n      jump\t// in\n    tag_13:\n      tag_15\n      jump\t// in\n    tag_12:\n      stop\n        /* \"contracts/Histochain.sol\":237:256  string public _type */\n    tag_4:\n      callvalue\n      dup1\n      iszero\n      tag_16\n      jumpi\n      0x00\n      dup1\n      revert\n    tag_16:\n      pop\n      tag_17\n      tag_18\n      jump\t// in\n    tag_17:\n      mload(0x40)\n      tag_19\n      swap2\n      swap1\n      tag_20\n      jump\t// in\n    tag_19:\n      mload(0x40)\n      dup1\n      swap2\n      sub\n      swap1\n      return\n        /* \"contracts/Histochain.sol\":544:899  function spin() external payable {\r... */\n    tag_5:\n      tag_21\n      tag_22\n      jump\t// in\n    tag_21:\n      stop\n        /* \"contracts/Histochain.sol\":350:433  function getOwner() external view returns(address) {\r... */\n    tag_8:\n        /* \"contracts/Histochain.sol\":392:399  address */\n      0x00\n        /* \"contracts/Histochain.sol\":419:425  _owner */\n      dup1\n      0x00\n      swap1\n      sload\n      swap1\n      0x0100\n      exp\n      swap1\n      div\n      0xffffffffffffffffffffffffffffffffffffffff\n      and\n        /* \"contracts/Histochain.sol\":412:425  return _owner */\n      swap1\n      pop\n        /* \"contracts/Histochain.sol\":350:433  function getOwner() external view returns(address) {\r... */\n      swap1\n      jump\t// out\n        /* \"contracts/Histochain.sol\":441:536  function setTypePermission(string memory inputType) public {\r... */\n    tag_15:\n        /* \"contracts/Histochain.sol\":519:528  inputType */\n      dup1\n        /* \"contracts/Histochain.sol\":511:516  _type */\n      0x01\n        /* \"contracts/Histochain.sol\":511:528  _type = inputType */\n      swap1\n      dup1\n      mload\n      swap1\n      0x20\n      add\n      swap1\n      tag_25\n      swap3\n      swap2\n      swap1\n      tag_26\n      jump\t// in\n    tag_25:\n      pop\n        /* \"contracts/Histochain.sol\":441:536  function setTypePermission(string memory inputType) public {\r... */\n      pop\n      jump\t// out\n        /* \"contracts/Histochain.sol\":237:256  string public _type */\n    tag_18:\n      0x01\n      dup1\n      sload\n      tag_27\n      swap1\n      tag_28\n      jump\t// in\n    tag_27:\n      dup1\n      0x1f\n      add\n      0x20\n      dup1\n      swap2\n      div\n      mul\n      0x20\n      add\n      mload(0x40)\n      swap1\n      dup2\n      add\n      0x40\n      mstore\n      dup1\n      swap3\n      swap2\n      swap1\n      dup2\n      dup2\n      mstore\n      0x20\n      add\n      dup3\n      dup1\n      sload\n      tag_29\n      swap1\n      tag_28\n      jump\t// in\n    tag_29:\n      dup1\n      iszero\n      tag_30\n      jumpi\n      dup1\n      0x1f\n      lt\n      tag_31\n      jumpi\n      0x0100\n      dup1\n      dup4\n      sload\n      div\n      mul\n      dup4\n      mstore\n      swap2\n      0x20\n      add\n      swap2\n      jump(tag_30)\n    tag_31:\n      dup3\n      add\n      swap2\n      swap1\n      0x00\n      mstore\n      keccak256(0x00, 0x20)\n      swap1\n    tag_32:\n      dup2\n      sload\n      dup2\n      mstore\n      swap1\n      0x01\n      add\n      swap1\n      0x20\n      add\n      dup1\n      dup4\n      gt\n      tag_32\n      jumpi\n      dup3\n      swap1\n      sub\n      0x1f\n      and\n      dup3\n      add\n      swap2\n    tag_30:\n      pop\n      pop\n      pop\n      pop\n      pop\n      dup2\n      jump\t// out\n        /* \"contracts/Histochain.sol\":544:899  function spin() external payable {\r... */\n    tag_22:\n        /* \"contracts/Histochain.sol\":609:616  5 ether */\n      0x4563918244f40000\n        /* \"contracts/Histochain.sol\":596:605  msg.value */\n      callvalue\n        /* \"contracts/Histochain.sol\":596:616  msg.value == 5 ether */\n      eq\n        /* \"contracts/Histochain.sol\":588:617  require(msg.value == 5 ether) */\n      tag_34\n      jumpi\n      0x00\n      dup1\n      revert\n    tag_34:\n        /* \"contracts/Histochain.sol\":655:665  _timestamp */\n      sload(0x02)\n        /* \"contracts/Histochain.sol\":636:651  block.timestamp */\n      timestamp\n        /* \"contracts/Histochain.sol\":636:665  block.timestamp != _timestamp */\n      eq\n      iszero\n        /* \"contracts/Histochain.sol\":628:666  require(block.timestamp != _timestamp) */\n      tag_35\n      jumpi\n      0x00\n      dup1\n      revert\n    tag_35:\n        /* \"contracts/Histochain.sol\":692:707  block.timestamp */\n      timestamp\n        /* \"contracts/Histochain.sol\":679:689  _timestamp */\n      0x02\n        /* \"contracts/Histochain.sol\":679:707  _timestamp = block.timestamp */\n      dup2\n      swap1\n      sstore\n      pop\n        /* \"contracts/Histochain.sol\":745:746  0 */\n      0x00\n        /* \"contracts/Histochain.sol\":740:741  7 */\n      0x07\n        /* \"contracts/Histochain.sol\":722:737  block.timestamp */\n      timestamp\n        /* \"contracts/Histochain.sol\":722:741  block.timestamp % 7 */\n      tag_36\n      swap2\n      swap1\n      tag_37\n      jump\t// in\n    tag_36:\n        /* \"contracts/Histochain.sol\":722:746  block.timestamp % 7 == 0 */\n      eq\n        /* \"contracts/Histochain.sol\":718:892  if (block.timestamp % 7 == 0) {\r... */\n      iszero\n      tag_38\n      jumpi\n        /* \"contracts/Histochain.sol\":764:773  bool sent */\n      0x00\n        /* \"contracts/Histochain.sol\":779:789  msg.sender */\n      caller\n        /* \"contracts/Histochain.sol\":779:794  msg.sender.call */\n      0xffffffffffffffffffffffffffffffffffffffff\n      and\n        /* \"contracts/Histochain.sol\":802:823  address(this).balance */\n      selfbalance\n        /* \"contracts/Histochain.sol\":779:828  msg.sender.call{value: address(this).balance}(\"\") */\n      mload(0x40)\n      tag_39\n      swap1\n      tag_40\n      jump\t// in\n    tag_39:\n      0x00\n      mload(0x40)\n      dup1\n      dup4\n      sub\n      dup2\n      dup6\n      dup8\n      gas\n      call\n      swap3\n      pop\n      pop\n      pop\n      returndatasize\n      dup1\n      0x00\n      dup2\n      eq\n      tag_43\n      jumpi\n      mload(0x40)\n      swap2\n      pop\n      and(add(returndatasize, 0x3f), not(0x1f))\n      dup3\n      add\n      0x40\n      mstore\n      returndatasize\n      dup3\n      mstore\n      returndatasize\n      0x00\n      0x20\n      dup5\n      add\n      returndatacopy\n      jump(tag_42)\n    tag_43:\n      0x60\n      swap2\n      pop\n    tag_42:\n      pop\n        /* \"contracts/Histochain.sol\":763:828  (bool sent, ) = msg.sender.call{value: address(this).balance}(\"\") */\n      pop\n      swap1\n      pop\n        /* \"contracts/Histochain.sol\":851:855  sent */\n      dup1\n        /* \"contracts/Histochain.sol\":843:880  require(sent, \"Failed to send Ether\") */\n      tag_44\n      jumpi\n      mload(0x40)\n      0x08c379a000000000000000000000000000000000000000000000000000000000\n      dup2\n      mstore\n      0x04\n      add\n      tag_45\n      swap1\n      tag_46\n      jump\t// in\n    tag_45:\n      mload(0x40)\n      dup1\n      swap2\n      sub\n      swap1\n      revert\n    tag_44:\n        /* \"contracts/Histochain.sol\":718:892  if (block.timestamp % 7 == 0) {\r... */\n      pop\n    tag_38:\n        /* \"contracts/Histochain.sol\":544:899  function spin() external payable {\r... */\n      jump\t// out\n    tag_26:\n      dup3\n      dup1\n      sload\n      tag_47\n      swap1\n      tag_28\n      jump\t// in\n    tag_47:\n      swap1\n      0x00\n      mstore\n      keccak256(0x00, 0x20)\n      swap1\n      0x1f\n      add\n      0x20\n      swap1\n      div\n      dup2\n      add\n      swap3\n      dup3\n      tag_49\n      jumpi\n      0x00\n      dup6\n      sstore\n      jump(tag_48)\n    tag_49:\n      dup3\n      0x1f\n      lt\n      tag_50\n      jumpi\n      dup1\n      mload\n      not(0xff)\n      and\n      dup4\n      dup1\n      add\n      or\n      dup6\n      sstore\n      jump(tag_48)\n    tag_50:\n      dup3\n      dup1\n      add\n      0x01\n      add\n      dup6\n      sstore\n      dup3\n      iszero\n      tag_48\n      jumpi\n      swap2\n      dup3\n      add\n    tag_51:\n      dup3\n      dup2\n      gt\n      iszero\n      tag_52\n      jumpi\n      dup3\n      mload\n      dup3\n      sstore\n      swap2\n      0x20\n      add\n      swap2\n      swap1\n      0x01\n      add\n      swap1\n      jump(tag_51)\n    tag_52:\n    tag_48:\n      pop\n      swap1\n      pop\n      tag_53\n      swap2\n      swap1\n      tag_54\n      jump\t// in\n    tag_53:\n      pop\n      swap1\n      jump\t// out\n    tag_54:\n    tag_55:\n      dup1\n      dup3\n      gt\n      iszero\n      tag_56\n      jumpi\n      0x00\n      dup2\n      0x00\n      swap1\n      sstore\n      pop\n      0x01\n      add\n      jump(tag_55)\n    tag_56:\n      pop\n      swap1\n      jump\t// out\n        /* \"#utility.yul\":7:352   */\n    tag_58:\n        /* \"#utility.yul\":85:90   */\n      0x00\n        /* \"#utility.yul\":110:176   */\n      tag_60\n        /* \"#utility.yul\":126:175   */\n      tag_61\n        /* \"#utility.yul\":168:174   */\n      dup5\n        /* \"#utility.yul\":126:175   */\n      tag_62\n      jump\t// in\n    tag_61:\n        /* \"#utility.yul\":110:176   */\n      tag_63\n      jump\t// in\n    tag_60:\n        /* \"#utility.yul\":101:176   */\n      swap1\n      pop\n        /* \"#utility.yul\":199:205   */\n      dup3\n        /* \"#utility.yul\":192:197   */\n      dup2\n        /* \"#utility.yul\":185:206   */\n      mstore\n        /* \"#utility.yul\":237:241   */\n      0x20\n        /* \"#utility.yul\":230:235   */\n      dup2\n        /* \"#utility.yul\":226:242   */\n      add\n        /* \"#utility.yul\":275:278   */\n      dup5\n        /* \"#utility.yul\":266:272   */\n      dup5\n        /* \"#utility.yul\":261:264   */\n      dup5\n        /* \"#utility.yul\":257:273   */\n      add\n        /* \"#utility.yul\":254:279   */\n      gt\n        /* \"#utility.yul\":251:253   */\n      iszero\n      tag_64\n      jumpi\n        /* \"#utility.yul\":292:293   */\n      0x00\n        /* \"#utility.yul\":289:290   */\n      dup1\n        /* \"#utility.yul\":282:294   */\n      revert\n        /* \"#utility.yul\":251:253   */\n    tag_64:\n        /* \"#utility.yul\":305:346   */\n      tag_65\n        /* \"#utility.yul\":339:345   */\n      dup5\n        /* \"#utility.yul\":334:337   */\n      dup3\n        /* \"#utility.yul\":329:332   */\n      dup6\n        /* \"#utility.yul\":305:346   */\n      tag_66\n      jump\t// in\n    tag_65:\n        /* \"#utility.yul\":91:352   */\n      pop\n      swap4\n      swap3\n      pop\n      pop\n      pop\n      jump\t// out\n        /* \"#utility.yul\":372:645   */\n    tag_67:\n        /* \"#utility.yul\":428:433   */\n      0x00\n        /* \"#utility.yul\":477:480   */\n      dup3\n        /* \"#utility.yul\":470:474   */\n      0x1f\n        /* \"#utility.yul\":462:468   */\n      dup4\n        /* \"#utility.yul\":458:475   */\n      add\n        /* \"#utility.yul\":454:481   */\n      slt\n        /* \"#utility.yul\":444:446   */\n      tag_69\n      jumpi\n        /* \"#utility.yul\":495:496   */\n      0x00\n        /* \"#utility.yul\":492:493   */\n      dup1\n        /* \"#utility.yul\":485:497   */\n      revert\n        /* \"#utility.yul\":444:446   */\n    tag_69:\n        /* \"#utility.yul\":535:541   */\n      dup2\n        /* \"#utility.yul\":522:542   */\n      calldataload\n        /* \"#utility.yul\":560:639   */\n      tag_70\n        /* \"#utility.yul\":635:638   */\n      dup5\n        /* \"#utility.yul\":627:633   */\n      dup3\n        /* \"#utility.yul\":620:624   */\n      0x20\n        /* \"#utility.yul\":612:618   */\n      dup7\n        /* \"#utility.yul\":608:625   */\n      add\n        /* \"#utility.yul\":560:639   */\n      tag_58\n      jump\t// in\n    tag_70:\n        /* \"#utility.yul\":551:639   */\n      swap2\n      pop\n        /* \"#utility.yul\":434:645   */\n      pop\n      swap3\n      swap2\n      pop\n      pop\n      jump\t// out\n        /* \"#utility.yul\":651:1026   */\n    tag_14:\n        /* \"#utility.yul\":720:726   */\n      0x00\n        /* \"#utility.yul\":769:771   */\n      0x20\n        /* \"#utility.yul\":757:766   */\n      dup3\n        /* \"#utility.yul\":748:755   */\n      dup5\n        /* \"#utility.yul\":744:767   */\n      sub\n        /* \"#utility.yul\":740:772   */\n      slt\n        /* \"#utility.yul\":737:739   */\n      iszero\n      tag_72\n      jumpi\n        /* \"#utility.yul\":785:786   */\n      0x00\n        /* \"#utility.yul\":782:783   */\n      dup1\n        /* \"#utility.yul\":775:787   */\n      revert\n        /* \"#utility.yul\":737:739   */\n    tag_72:\n        /* \"#utility.yul\":856:857   */\n      0x00\n        /* \"#utility.yul\":845:854   */\n      dup3\n        /* \"#utility.yul\":841:858   */\n      add\n        /* \"#utility.yul\":828:859   */\n      calldataload\n        /* \"#utility.yul\":886:904   */\n      0xffffffffffffffff\n        /* \"#utility.yul\":878:884   */\n      dup2\n        /* \"#utility.yul\":875:905   */\n      gt\n        /* \"#utility.yul\":872:874   */\n      iszero\n      tag_73\n      jumpi\n        /* \"#utility.yul\":918:919   */\n      0x00\n        /* \"#utility.yul\":915:916   */\n      dup1\n        /* \"#utility.yul\":908:920   */\n      revert\n        /* \"#utility.yul\":872:874   */\n    tag_73:\n        /* \"#utility.yul\":946:1009   */\n      tag_74\n        /* \"#utility.yul\":1001:1008   */\n      dup5\n        /* \"#utility.yul\":992:998   */\n      dup3\n        /* \"#utility.yul\":981:990   */\n      dup6\n        /* \"#utility.yul\":977:999   */\n      add\n        /* \"#utility.yul\":946:1009   */\n      tag_67\n      jump\t// in\n    tag_74:\n        /* \"#utility.yul\":936:1009   */\n      swap2\n      pop\n        /* \"#utility.yul\":799:1019   */\n      pop\n        /* \"#utility.yul\":727:1026   */\n      swap3\n      swap2\n      pop\n      pop\n      jump\t// out\n        /* \"#utility.yul\":1032:1150   */\n    tag_75:\n        /* \"#utility.yul\":1119:1143   */\n      tag_77\n        /* \"#utility.yul\":1137:1142   */\n      dup2\n        /* \"#utility.yul\":1119:1143   */\n      tag_78\n      jump\t// in\n    tag_77:\n        /* \"#utility.yul\":1114:1117   */\n      dup3\n        /* \"#utility.yul\":1107:1144   */\n      mstore\n        /* \"#utility.yul\":1097:1150   */\n      pop\n      pop\n      jump\t// out\n        /* \"#utility.yul\":1156:1520   */\n    tag_79:\n        /* \"#utility.yul\":1244:1247   */\n      0x00\n        /* \"#utility.yul\":1272:1311   */\n      tag_81\n        /* \"#utility.yul\":1305:1310   */\n      dup3\n        /* \"#utility.yul\":1272:1311   */\n      tag_82\n      jump\t// in\n    tag_81:\n        /* \"#utility.yul\":1327:1398   */\n      tag_83\n        /* \"#utility.yul\":1391:1397   */\n      dup2\n        /* \"#utility.yul\":1386:1389   */\n      dup6\n        /* \"#utility.yul\":1327:1398   */\n      tag_84\n      jump\t// in\n    tag_83:\n        /* \"#utility.yul\":1320:1398   */\n      swap4\n      pop\n        /* \"#utility.yul\":1407:1459   */\n      tag_85\n        /* \"#utility.yul\":1452:1458   */\n      dup2\n        /* \"#utility.yul\":1447:1450   */\n      dup6\n        /* \"#utility.yul\":1440:1444   */\n      0x20\n        /* \"#utility.yul\":1433:1438   */\n      dup7\n        /* \"#utility.yul\":1429:1445   */\n      add\n        /* \"#utility.yul\":1407:1459   */\n      tag_86\n      jump\t// in\n    tag_85:\n        /* \"#utility.yul\":1484:1513   */\n      tag_87\n        /* \"#utility.yul\":1506:1512   */\n      dup2\n        /* \"#utility.yul\":1484:1513   */\n      tag_88\n      jump\t// in\n    tag_87:\n        /* \"#utility.yul\":1479:1482   */\n      dup5\n        /* \"#utility.yul\":1475:1514   */\n      add\n        /* \"#utility.yul\":1468:1514   */\n      swap2\n      pop\n        /* \"#utility.yul\":1248:1520   */\n      pop\n      swap3\n      swap2\n      pop\n      pop\n      jump\t// out\n        /* \"#utility.yul\":1526:1892   */\n    tag_89:\n        /* \"#utility.yul\":1668:1671   */\n      0x00\n        /* \"#utility.yul\":1689:1756   */\n      tag_91\n        /* \"#utility.yul\":1753:1755   */\n      0x14\n        /* \"#utility.yul\":1748:1751   */\n      dup4\n        /* \"#utility.yul\":1689:1756   */\n      tag_84\n      jump\t// in\n    tag_91:\n        /* \"#utility.yul\":1682:1756   */\n      swap2\n      pop\n        /* \"#utility.yul\":1765:1858   */\n      tag_92\n        /* \"#utility.yul\":1854:1857   */\n      dup3\n        /* \"#utility.yul\":1765:1858   */\n      tag_93\n      jump\t// in\n    tag_92:\n        /* \"#utility.yul\":1883:1885   */\n      0x20\n        /* \"#utility.yul\":1878:1881   */\n      dup3\n        /* \"#utility.yul\":1874:1886   */\n      add\n        /* \"#utility.yul\":1867:1886   */\n      swap1\n      pop\n        /* \"#utility.yul\":1672:1892   */\n      swap2\n      swap1\n      pop\n      jump\t// out\n        /* \"#utility.yul\":1898:2296   */\n    tag_94:\n        /* \"#utility.yul\":2057:2060   */\n      0x00\n        /* \"#utility.yul\":2078:2161   */\n      tag_96\n        /* \"#utility.yul\":2159:2160   */\n      0x00\n        /* \"#utility.yul\":2154:2157   */\n      dup4\n        /* \"#utility.yul\":2078:2161   */\n      tag_97\n      jump\t// in\n    tag_96:\n        /* \"#utility.yul\":2071:2161   */\n      swap2\n      pop\n        /* \"#utility.yul\":2170:2263   */\n      tag_98\n        /* \"#utility.yul\":2259:2262   */\n      dup3\n        /* \"#utility.yul\":2170:2263   */\n      tag_99\n      jump\t// in\n    tag_98:\n        /* \"#utility.yul\":2288:2289   */\n      0x00\n        /* \"#utility.yul\":2283:2286   */\n      dup3\n        /* \"#utility.yul\":2279:2290   */\n      add\n        /* \"#utility.yul\":2272:2290   */\n      swap1\n      pop\n        /* \"#utility.yul\":2061:2296   */\n      swap2\n      swap1\n      pop\n      jump\t// out\n        /* \"#utility.yul\":2302:2681   */\n    tag_40:\n        /* \"#utility.yul\":2486:2489   */\n      0x00\n        /* \"#utility.yul\":2508:2655   */\n      tag_101\n        /* \"#utility.yul\":2651:2654   */\n      dup3\n        /* \"#utility.yul\":2508:2655   */\n      tag_94\n      jump\t// in\n    tag_101:\n        /* \"#utility.yul\":2501:2655   */\n      swap2\n      pop\n        /* \"#utility.yul\":2672:2675   */\n      dup2\n        /* \"#utility.yul\":2665:2675   */\n      swap1\n      pop\n        /* \"#utility.yul\":2490:2681   */\n      swap2\n      swap1\n      pop\n      jump\t// out\n        /* \"#utility.yul\":2687:2909   */\n    tag_10:\n        /* \"#utility.yul\":2780:2784   */\n      0x00\n        /* \"#utility.yul\":2818:2820   */\n      0x20\n        /* \"#utility.yul\":2807:2816   */\n      dup3\n        /* \"#utility.yul\":2803:2821   */\n      add\n        /* \"#utility.yul\":2795:2821   */\n      swap1\n      pop\n        /* \"#utility.yul\":2831:2902   */\n      tag_103\n        /* \"#utility.yul\":2899:2900   */\n      0x00\n        /* \"#utility.yul\":2888:2897   */\n      dup4\n        /* \"#utility.yul\":2884:2901   */\n      add\n        /* \"#utility.yul\":2875:2881   */\n      dup5\n        /* \"#utility.yul\":2831:2902   */\n      tag_75\n      jump\t// in\n    tag_103:\n        /* \"#utility.yul\":2785:2909   */\n      swap3\n      swap2\n      pop\n      pop\n      jump\t// out\n        /* \"#utility.yul\":2915:3228   */\n    tag_20:\n        /* \"#utility.yul\":3028:3032   */\n      0x00\n        /* \"#utility.yul\":3066:3068   */\n      0x20\n        /* \"#utility.yul\":3055:3064   */\n      dup3\n        /* \"#utility.yul\":3051:3069   */\n      add\n        /* \"#utility.yul\":3043:3069   */\n      swap1\n      pop\n        /* \"#utility.yul\":3115:3124   */\n      dup2\n        /* \"#utility.yul\":3109:3113   */\n      dup2\n        /* \"#utility.yul\":3105:3125   */\n      sub\n        /* \"#utility.yul\":3101:3102   */\n      0x00\n        /* \"#utility.yul\":3090:3099   */\n      dup4\n        /* \"#utility.yul\":3086:3103   */\n      add\n        /* \"#utility.yul\":3079:3126   */\n      mstore\n        /* \"#utility.yul\":3143:3221   */\n      tag_105\n        /* \"#utility.yul\":3216:3220   */\n      dup2\n        /* \"#utility.yul\":3207:3213   */\n      dup5\n        /* \"#utility.yul\":3143:3221   */\n      tag_79\n      jump\t// in\n    tag_105:\n        /* \"#utility.yul\":3135:3221   */\n      swap1\n      pop\n        /* \"#utility.yul\":3033:3228   */\n      swap3\n      swap2\n      pop\n      pop\n      jump\t// out\n        /* \"#utility.yul\":3234:3653   */\n    tag_46:\n        /* \"#utility.yul\":3400:3404   */\n      0x00\n        /* \"#utility.yul\":3438:3440   */\n      0x20\n        /* \"#utility.yul\":3427:3436   */\n      dup3\n        /* \"#utility.yul\":3423:3441   */\n      add\n        /* \"#utility.yul\":3415:3441   */\n      swap1\n      pop\n        /* \"#utility.yul\":3487:3496   */\n      dup2\n        /* \"#utility.yul\":3481:3485   */\n      dup2\n        /* \"#utility.yul\":3477:3497   */\n      sub\n        /* \"#utility.yul\":3473:3474   */\n      0x00\n        /* \"#utility.yul\":3462:3471   */\n      dup4\n        /* \"#utility.yul\":3458:3475   */\n      add\n        /* \"#utility.yul\":3451:3498   */\n      mstore\n        /* \"#utility.yul\":3515:3646   */\n      tag_107\n        /* \"#utility.yul\":3641:3645   */\n      dup2\n        /* \"#utility.yul\":3515:3646   */\n      tag_89\n      jump\t// in\n    tag_107:\n        /* \"#utility.yul\":3507:3646   */\n      swap1\n      pop\n        /* \"#utility.yul\":3405:3653   */\n      swap2\n      swap1\n      pop\n      jump\t// out\n        /* \"#utility.yul\":3659:3788   */\n    tag_63:\n        /* \"#utility.yul\":3693:3699   */\n      0x00\n        /* \"#utility.yul\":3720:3740   */\n      tag_109\n      tag_110\n      jump\t// in\n    tag_109:\n        /* \"#utility.yul\":3710:3740   */\n      swap1\n      pop\n        /* \"#utility.yul\":3749:3782   */\n      tag_111\n        /* \"#utility.yul\":3777:3781   */\n      dup3\n        /* \"#utility.yul\":3769:3775   */\n      dup3\n        /* \"#utility.yul\":3749:3782   */\n      tag_112\n      jump\t// in\n    tag_111:\n        /* \"#utility.yul\":3700:3788   */\n      swap2\n      swap1\n      pop\n      jump\t// out\n        /* \"#utility.yul\":3794:3869   */\n    tag_110:\n        /* \"#utility.yul\":3827:3833   */\n      0x00\n        /* \"#utility.yul\":3860:3862   */\n      0x40\n        /* \"#utility.yul\":3854:3863   */\n      mload\n        /* \"#utility.yul\":3844:3863   */\n      swap1\n      pop\n        /* \"#utility.yul\":3834:3869   */\n      swap1\n      jump\t// out\n        /* \"#utility.yul\":3875:4183   */\n    tag_62:\n        /* \"#utility.yul\":3937:3941   */\n      0x00\n        /* \"#utility.yul\":4027:4045   */\n      0xffffffffffffffff\n        /* \"#utility.yul\":4019:4025   */\n      dup3\n        /* \"#utility.yul\":4016:4046   */\n      gt\n        /* \"#utility.yul\":4013:4015   */\n      iszero\n      tag_115\n      jumpi\n        /* \"#utility.yul\":4049:4067   */\n      tag_116\n      tag_117\n      jump\t// in\n    tag_116:\n        /* \"#utility.yul\":4013:4015   */\n    tag_115:\n        /* \"#utility.yul\":4087:4116   */\n      tag_118\n        /* \"#utility.yul\":4109:4115   */\n      dup3\n        /* \"#utility.yul\":4087:4116   */\n      tag_88\n      jump\t// in\n    tag_118:\n        /* \"#utility.yul\":4079:4116   */\n      swap1\n      pop\n        /* \"#utility.yul\":4171:4175   */\n      0x20\n        /* \"#utility.yul\":4165:4169   */\n      dup2\n        /* \"#utility.yul\":4161:4176   */\n      add\n        /* \"#utility.yul\":4153:4176   */\n      swap1\n      pop\n        /* \"#utility.yul\":3942:4183   */\n      swap2\n      swap1\n      pop\n      jump\t// out\n        /* \"#utility.yul\":4189:4288   */\n    tag_82:\n        /* \"#utility.yul\":4241:4247   */\n      0x00\n        /* \"#utility.yul\":4275:4280   */\n      dup2\n        /* \"#utility.yul\":4269:4281   */\n      mload\n        /* \"#utility.yul\":4259:4281   */\n      swap1\n      pop\n        /* \"#utility.yul\":4248:4288   */\n      swap2\n      swap1\n      pop\n      jump\t// out\n        /* \"#utility.yul\":4294:4441   */\n    tag_97:\n        /* \"#utility.yul\":4395:4406   */\n      0x00\n        /* \"#utility.yul\":4432:4435   */\n      dup2\n        /* \"#utility.yul\":4417:4435   */\n      swap1\n      pop\n        /* \"#utility.yul\":4407:4441   */\n      swap3\n      swap2\n      pop\n      pop\n      jump\t// out\n        /* \"#utility.yul\":4447:4616   */\n    tag_84:\n        /* \"#utility.yul\":4531:4542   */\n      0x00\n        /* \"#utility.yul\":4565:4571   */\n      dup3\n        /* \"#utility.yul\":4560:4563   */\n      dup3\n        /* \"#utility.yul\":4553:4572   */\n      mstore\n        /* \"#utility.yul\":4605:4609   */\n      0x20\n        /* \"#utility.yul\":4600:4603   */\n      dup3\n        /* \"#utility.yul\":4596:4610   */\n      add\n        /* \"#utility.yul\":4581:4610   */\n      swap1\n      pop\n        /* \"#utility.yul\":4543:4616   */\n      swap3\n      swap2\n      pop\n      pop\n      jump\t// out\n        /* \"#utility.yul\":4622:4718   */\n    tag_78:\n        /* \"#utility.yul\":4659:4666   */\n      0x00\n        /* \"#utility.yul\":4688:4712   */\n      tag_123\n        /* \"#utility.yul\":4706:4711   */\n      dup3\n        /* \"#utility.yul\":4688:4712   */\n      tag_124\n      jump\t// in\n    tag_123:\n        /* \"#utility.yul\":4677:4712   */\n      swap1\n      pop\n        /* \"#utility.yul\":4667:4718   */\n      swap2\n      swap1\n      pop\n      jump\t// out\n        /* \"#utility.yul\":4724:4850   */\n    tag_124:\n        /* \"#utility.yul\":4761:4768   */\n      0x00\n        /* \"#utility.yul\":4801:4843   */\n      0xffffffffffffffffffffffffffffffffffffffff\n        /* \"#utility.yul\":4794:4799   */\n      dup3\n        /* \"#utility.yul\":4790:4844   */\n      and\n        /* \"#utility.yul\":4779:4844   */\n      swap1\n      pop\n        /* \"#utility.yul\":4769:4850   */\n      swap2\n      swap1\n      pop\n      jump\t// out\n        /* \"#utility.yul\":4856:4933   */\n    tag_126:\n        /* \"#utility.yul\":4893:4900   */\n      0x00\n        /* \"#utility.yul\":4922:4927   */\n      dup2\n        /* \"#utility.yul\":4911:4927   */\n      swap1\n      pop\n        /* \"#utility.yul\":4901:4933   */\n      swap2\n      swap1\n      pop\n      jump\t// out\n        /* \"#utility.yul\":4939:5093   */\n    tag_66:\n        /* \"#utility.yul\":5023:5029   */\n      dup3\n        /* \"#utility.yul\":5018:5021   */\n      dup2\n        /* \"#utility.yul\":5013:5016   */\n      dup4\n        /* \"#utility.yul\":5000:5030   */\n      calldatacopy\n        /* \"#utility.yul\":5085:5086   */\n      0x00\n        /* \"#utility.yul\":5076:5082   */\n      dup4\n        /* \"#utility.yul\":5071:5074   */\n      dup4\n        /* \"#utility.yul\":5067:5083   */\n      add\n        /* \"#utility.yul\":5060:5087   */\n      mstore\n        /* \"#utility.yul\":4990:5093   */\n      pop\n      pop\n      pop\n      jump\t// out\n        /* \"#utility.yul\":5099:5406   */\n    tag_86:\n        /* \"#utility.yul\":5167:5168   */\n      0x00\n        /* \"#utility.yul\":5177:5290   */\n    tag_130:\n        /* \"#utility.yul\":5191:5197   */\n      dup4\n        /* \"#utility.yul\":5188:5189   */\n      dup2\n        /* \"#utility.yul\":5185:5198   */\n      lt\n        /* \"#utility.yul\":5177:5290   */\n      iszero\n      tag_132\n      jumpi\n        /* \"#utility.yul\":5276:5277   */\n      dup1\n        /* \"#utility.yul\":5271:5274   */\n      dup3\n        /* \"#utility.yul\":5267:5278   */\n      add\n        /* \"#utility.yul\":5261:5279   */\n      mload\n        /* \"#utility.yul\":5257:5258   */\n      dup2\n        /* \"#utility.yul\":5252:5255   */\n      dup5\n        /* \"#utility.yul\":5248:5259   */\n      add\n        /* \"#utility.yul\":5241:5280   */\n      mstore\n        /* \"#utility.yul\":5213:5215   */\n      0x20\n        /* \"#utility.yul\":5210:5211   */\n      dup2\n        /* \"#utility.yul\":5206:5216   */\n      add\n        /* \"#utility.yul\":5201:5216   */\n      swap1\n      pop\n        /* \"#utility.yul\":5177:5290   */\n      jump(tag_130)\n    tag_132:\n        /* \"#utility.yul\":5308:5314   */\n      dup4\n        /* \"#utility.yul\":5305:5306   */\n      dup2\n        /* \"#utility.yul\":5302:5315   */\n      gt\n        /* \"#utility.yul\":5299:5301   */\n      iszero\n      tag_133\n      jumpi\n        /* \"#utility.yul\":5388:5389   */\n      0x00\n        /* \"#utility.yul\":5379:5385   */\n      dup5\n        /* \"#utility.yul\":5374:5377   */\n      dup5\n        /* \"#utility.yul\":5370:5386   */\n      add\n        /* \"#utility.yul\":5363:5390   */\n      mstore\n        /* \"#utility.yul\":5299:5301   */\n    tag_133:\n        /* \"#utility.yul\":5148:5406   */\n      pop\n      pop\n      pop\n      pop\n      jump\t// out\n        /* \"#utility.yul\":5412:5732   */\n    tag_28:\n        /* \"#utility.yul\":5456:5462   */\n      0x00\n        /* \"#utility.yul\":5493:5494   */\n      0x02\n        /* \"#utility.yul\":5487:5491   */\n      dup3\n        /* \"#utility.yul\":5483:5495   */\n      div\n        /* \"#utility.yul\":5473:5495   */\n      swap1\n      pop\n        /* \"#utility.yul\":5540:5541   */\n      0x01\n        /* \"#utility.yul\":5534:5538   */\n      dup3\n        /* \"#utility.yul\":5530:5542   */\n      and\n        /* \"#utility.yul\":5561:5579   */\n      dup1\n        /* \"#utility.yul\":5551:5553   */\n      tag_135\n      jumpi\n        /* \"#utility.yul\":5617:5621   */\n      0x7f\n        /* \"#utility.yul\":5609:5615   */\n      dup3\n        /* \"#utility.yul\":5605:5622   */\n      and\n        /* \"#utility.yul\":5595:5622   */\n      swap2\n      pop\n        /* \"#utility.yul\":5551:5553   */\n    tag_135:\n        /* \"#utility.yul\":5679:5681   */\n      0x20\n        /* \"#utility.yul\":5671:5677   */\n      dup3\n        /* \"#utility.yul\":5668:5682   */\n      lt\n        /* \"#utility.yul\":5648:5666   */\n      dup2\n        /* \"#utility.yul\":5645:5683   */\n      eq\n        /* \"#utility.yul\":5642:5644   */\n      iszero\n      tag_136\n      jumpi\n        /* \"#utility.yul\":5698:5716   */\n      tag_137\n      tag_138\n      jump\t// in\n    tag_137:\n        /* \"#utility.yul\":5642:5644   */\n    tag_136:\n        /* \"#utility.yul\":5463:5732   */\n      pop\n      swap2\n      swap1\n      pop\n      jump\t// out\n        /* \"#utility.yul\":5738:6019   */\n    tag_112:\n        /* \"#utility.yul\":5821:5848   */\n      tag_140\n        /* \"#utility.yul\":5843:5847   */\n      dup3\n        /* \"#utility.yul\":5821:5848   */\n      tag_88\n      jump\t// in\n    tag_140:\n        /* \"#utility.yul\":5813:5819   */\n      dup2\n        /* \"#utility.yul\":5809:5849   */\n      add\n        /* \"#utility.yul\":5951:5957   */\n      dup2\n        /* \"#utility.yul\":5939:5949   */\n      dup2\n        /* \"#utility.yul\":5936:5958   */\n      lt\n        /* \"#utility.yul\":5915:5933   */\n      0xffffffffffffffff\n        /* \"#utility.yul\":5903:5913   */\n      dup3\n        /* \"#utility.yul\":5900:5934   */\n      gt\n        /* \"#utility.yul\":5897:5959   */\n      or\n        /* \"#utility.yul\":5894:5896   */\n      iszero\n      tag_141\n      jumpi\n        /* \"#utility.yul\":5962:5980   */\n      tag_142\n      tag_117\n      jump\t// in\n    tag_142:\n        /* \"#utility.yul\":5894:5896   */\n    tag_141:\n        /* \"#utility.yul\":6002:6012   */\n      dup1\n        /* \"#utility.yul\":5998:6000   */\n      0x40\n        /* \"#utility.yul\":5991:6013   */\n      mstore\n        /* \"#utility.yul\":5781:6019   */\n      pop\n      pop\n      pop\n      jump\t// out\n        /* \"#utility.yul\":6025:6201   */\n    tag_37:\n        /* \"#utility.yul\":6057:6058   */\n      0x00\n        /* \"#utility.yul\":6074:6094   */\n      tag_144\n        /* \"#utility.yul\":6092:6093   */\n      dup3\n        /* \"#utility.yul\":6074:6094   */\n      tag_126\n      jump\t// in\n    tag_144:\n        /* \"#utility.yul\":6069:6094   */\n      swap2\n      pop\n        /* \"#utility.yul\":6108:6128   */\n      tag_145\n        /* \"#utility.yul\":6126:6127   */\n      dup4\n        /* \"#utility.yul\":6108:6128   */\n      tag_126\n      jump\t// in\n    tag_145:\n        /* \"#utility.yul\":6103:6128   */\n      swap3\n      pop\n        /* \"#utility.yul\":6147:6148   */\n      dup3\n        /* \"#utility.yul\":6137:6139   */\n      tag_146\n      jumpi\n        /* \"#utility.yul\":6152:6170   */\n      tag_147\n      tag_148\n      jump\t// in\n    tag_147:\n        /* \"#utility.yul\":6137:6139   */\n    tag_146:\n        /* \"#utility.yul\":6193:6194   */\n      dup3\n        /* \"#utility.yul\":6190:6191   */\n      dup3\n        /* \"#utility.yul\":6186:6195   */\n      mod\n        /* \"#utility.yul\":6181:6195   */\n      swap1\n      pop\n        /* \"#utility.yul\":6059:6201   */\n      swap3\n      swap2\n      pop\n      pop\n      jump\t// out\n        /* \"#utility.yul\":6207:6387   */\n    tag_148:\n        /* \"#utility.yul\":6255:6332   */\n      0x4e487b7100000000000000000000000000000000000000000000000000000000\n        /* \"#utility.yul\":6252:6253   */\n      0x00\n        /* \"#utility.yul\":6245:6333   */\n      mstore\n        /* \"#utility.yul\":6352:6356   */\n      0x12\n        /* \"#utility.yul\":6349:6350   */\n      0x04\n        /* \"#utility.yul\":6342:6357   */\n      mstore\n        /* \"#utility.yul\":6376:6380   */\n      0x24\n        /* \"#utility.yul\":6373:6374   */\n      0x00\n        /* \"#utility.yul\":6366:6381   */\n      revert\n        /* \"#utility.yul\":6393:6573   */\n    tag_138:\n        /* \"#utility.yul\":6441:6518   */\n      0x4e487b7100000000000000000000000000000000000000000000000000000000\n        /* \"#utility.yul\":6438:6439   */\n      0x00\n        /* \"#utility.yul\":6431:6519   */\n      mstore\n        /* \"#utility.yul\":6538:6542   */\n      0x22\n        /* \"#utility.yul\":6535:6536   */\n      0x04\n        /* \"#utility.yul\":6528:6543   */\n      mstore\n        /* \"#utility.yul\":6562:6566   */\n      0x24\n        /* \"#utility.yul\":6559:6560   */\n      0x00\n        /* \"#utility.yul\":6552:6567   */\n      revert\n        /* \"#utility.yul\":6579:6759   */\n    tag_117:\n        /* \"#utility.yul\":6627:6704   */\n      0x4e487b7100000000000000000000000000000000000000000000000000000000\n        /* \"#utility.yul\":6624:6625   */\n      0x00\n        /* \"#utility.yul\":6617:6705   */\n      mstore\n        /* \"#utility.yul\":6724:6728   */\n      0x41\n        /* \"#utility.yul\":6721:6722   */\n      0x04\n        /* \"#utility.yul\":6714:6729   */\n      mstore\n        /* \"#utility.yul\":6748:6752   */\n      0x24\n        /* \"#utility.yul\":6745:6746   */\n      0x00\n        /* \"#utility.yul\":6738:6753   */\n      revert\n        /* \"#utility.yul\":6765:6867   */\n    tag_88:\n        /* \"#utility.yul\":6806:6812   */\n      0x00\n        /* \"#utility.yul\":6857:6859   */\n      0x1f\n        /* \"#utility.yul\":6853:6860   */\n      not\n        /* \"#utility.yul\":6848:6850   */\n      0x1f\n        /* \"#utility.yul\":6841:6846   */\n      dup4\n        /* \"#utility.yul\":6837:6851   */\n      add\n        /* \"#utility.yul\":6833:6861   */\n      and\n        /* \"#utility.yul\":6823:6861   */\n      swap1\n      pop\n        /* \"#utility.yul\":6813:6867   */\n      swap2\n      swap1\n      pop\n      jump\t// out\n        /* \"#utility.yul\":6873:7043   */\n    tag_93:\n        /* \"#utility.yul\":7013:7035   */\n      0x4661696c656420746f2073656e64204574686572000000000000000000000000\n        /* \"#utility.yul\":7009:7010   */\n      0x00\n        /* \"#utility.yul\":7001:7007   */\n      dup3\n        /* \"#utility.yul\":6997:7011   */\n      add\n        /* \"#utility.yul\":6990:7036   */\n      mstore\n        /* \"#utility.yul\":6979:7043   */\n      pop\n      jump\t// out\n        /* \"#utility.yul\":7049:7163   */\n    tag_99:\n        /* \"#utility.yul\":7155:7163   */\n      pop\n      jump\t// out\n\n    auxdata: 0xa2646970667358221220c00c2e4f0bf6abac7f7c5a4a651c936b58c4ca334470469b0e54b6b4667cfeba64736f6c63430008040033\n}\n",
				"bytecode": {
					"linkReferences": {},
					"object": "608060405234801561001057600080fd5b50336000806101000a81548173ffffffffffffffffffffffffffffffffffffffff021916908373ffffffffffffffffffffffffffffffffffffffff160217905550610768806100606000396000f3fe60806040526004361061003f5760003560e01c8063893d20e814610044578063aeb94c9d1461006f578063d85b270414610098578063f0acd7d5146100c3575b600080fd5b34801561005057600080fd5b506100596100cd565b604051610066919061047c565b60405180910390f35b34801561007b57600080fd5b5061009660048036038101906100919190610398565b6100f6565b005b3480156100a457600080fd5b506100ad610110565b6040516100ba9190610497565b60405180910390f35b6100cb61019e565b005b60008060009054906101000a900473ffffffffffffffffffffffffffffffffffffffff16905090565b806001908051906020019061010c92919061028d565b5050565b6001805461011d906105d4565b80601f0160208091040260200160405190810160405280929190818152602001828054610149906105d4565b80156101965780601f1061016b57610100808354040283529160200191610196565b820191906000526020600020905b81548152906001019060200180831161017957829003601f168201915b505050505081565b674563918244f4000034146101b257600080fd5b6002544214156101c157600080fd5b4260028190555060006007426101d79190610637565b141561028b5760003373ffffffffffffffffffffffffffffffffffffffff164760405161020390610467565b60006040518083038185875af1925050503d8060008114610240576040519150601f19603f3d011682016040523d82523d6000602084013e610245565b606091505b5050905080610289576040517f08c379a0000000000000000000000000000000000000000000000000000000008152600401610280906104b9565b60405180910390fd5b505b565b828054610299906105d4565b90600052602060002090601f0160209004810192826102bb5760008555610302565b82601f106102d457805160ff1916838001178555610302565b82800160010185558215610302579182015b828111156103015782518255916020019190600101906102e6565b5b50905061030f9190610313565b5090565b5b8082111561032c576000816000905550600101610314565b5090565b600061034361033e846104fe565b6104d9565b90508281526020810184848401111561035b57600080fd5b610366848285610592565b509392505050565b600082601f83011261037f57600080fd5b813561038f848260208601610330565b91505092915050565b6000602082840312156103aa57600080fd5b600082013567ffffffffffffffff8111156103c457600080fd5b6103d08482850161036e565b91505092915050565b6103e281610556565b82525050565b60006103f38261052f565b6103fd8185610545565b935061040d8185602086016105a1565b610416816106f5565b840191505092915050565b600061042e601483610545565b915061043982610706565b602082019050919050565b600061045160008361053a565b915061045c8261072f565b600082019050919050565b600061047282610444565b9150819050919050565b600060208201905061049160008301846103d9565b92915050565b600060208201905081810360008301526104b181846103e8565b905092915050565b600060208201905081810360008301526104d281610421565b9050919050565b60006104e36104f4565b90506104ef8282610606565b919050565b6000604051905090565b600067ffffffffffffffff821115610519576105186106c6565b5b610522826106f5565b9050602081019050919050565b600081519050919050565b600081905092915050565b600082825260208201905092915050565b600061056182610568565b9050919050565b600073ffffffffffffffffffffffffffffffffffffffff82169050919050565b6000819050919050565b82818337600083830152505050565b60005b838110156105bf5780820151818401526020810190506105a4565b838111156105ce576000848401525b50505050565b600060028204905060018216806105ec57607f821691505b60208210811415610600576105ff610697565b5b50919050565b61060f826106f5565b810181811067ffffffffffffffff8211171561062e5761062d6106c6565b5b80604052505050565b600061064282610588565b915061064d83610588565b92508261065d5761065c610668565b5b828206905092915050565b7f4e487b7100000000000000000000000000000000000000000000000000000000600052601260045260246000fd5b7f4e487b7100000000000000000000000000000000000000000000000000000000600052602260045260246000fd5b7f4e487b7100000000000000000000000000000000000000000000000000000000600052604160045260246000fd5b6000601f19601f8301169050919050565b7f4661696c656420746f2073656e64204574686572000000000000000000000000600082015250565b5056fea2646970667358221220c00c2e4f0bf6abac7f7c5a4a651c936b58c4ca334470469b0e54b6b4667cfeba64736f6c63430008040033",
					"opcodes": "PUSH1 0x80 PUSH1 0x40 MSTORE CALLVALUE DUP1 ISZERO PUSH2 0x10 JUMPI PUSH1 0x0 DUP1 REVERT JUMPDEST POP CALLER PUSH1 0x0 DUP1 PUSH2 0x100 EXP DUP2 SLOAD DUP2 PUSH20 0xFFFFFFFFFFFFFFFFFFFFFFFFFFFFFFFFFFFFFFFF MUL NOT AND SWAP1 DUP4 PUSH20 0xFFFFFFFFFFFFFFFFFFFFFFFFFFFFFFFFFFFFFFFF AND MUL OR SWAP1 SSTORE POP PUSH2 0x768 DUP1 PUSH2 0x60 PUSH1 0x0 CODECOPY PUSH1 0x0 RETURN INVALID PUSH1 0x80 PUSH1 0x40 MSTORE PUSH1 0x4 CALLDATASIZE LT PUSH2 0x3F JUMPI PUSH1 0x0 CALLDATALOAD PUSH1 0xE0 SHR DUP1 PUSH4 0x893D20E8 EQ PUSH2 0x44 JUMPI DUP1 PUSH4 0xAEB94C9D EQ PUSH2 0x6F JUMPI DUP1 PUSH4 0xD85B2704 EQ PUSH2 0x98 JUMPI DUP1 PUSH4 0xF0ACD7D5 EQ PUSH2 0xC3 JUMPI JUMPDEST PUSH1 0x0 DUP1 REVERT JUMPDEST CALLVALUE DUP1 ISZERO PUSH2 0x50 JUMPI PUSH1 0x0 DUP1 REVERT JUMPDEST POP PUSH2 0x59 PUSH2 0xCD JUMP JUMPDEST PUSH1 0x40 MLOAD PUSH2 0x66 SWAP2 SWAP1 PUSH2 0x47C JUMP JUMPDEST PUSH1 0x40 MLOAD DUP1 SWAP2 SUB SWAP1 RETURN JUMPDEST CALLVALUE DUP1 ISZERO PUSH2 0x7B JUMPI PUSH1 0x0 DUP1 REVERT JUMPDEST POP PUSH2 0x96 PUSH1 0x4 DUP1 CALLDATASIZE SUB DUP2 ADD SWAP1 PUSH2 0x91 SWAP2 SWAP1 PUSH2 0x398 JUMP JUMPDEST PUSH2 0xF6 JUMP JUMPDEST STOP JUMPDEST CALLVALUE DUP1 ISZERO PUSH2 0xA4 JUMPI PUSH1 0x0 DUP1 REVERT JUMPDEST POP PUSH2 0xAD PUSH2 0x110 JUMP JUMPDEST PUSH1 0x40 MLOAD PUSH2 0xBA SWAP2 SWAP1 PUSH2 0x497 JUMP JUMPDEST PUSH1 0x40 MLOAD DUP1 SWAP2 SUB SWAP1 RETURN JUMPDEST PUSH2 0xCB PUSH2 0x19E JUMP JUMPDEST STOP JUMPDEST PUSH1 0x0 DUP1 PUSH1 0x0 SWAP1 SLOAD SWAP1 PUSH2 0x100 EXP SWAP1 DIV PUSH20 0xFFFFFFFFFFFFFFFFFFFFFFFFFFFFFFFFFFFFFFFF AND SWAP1 POP SWAP1 JUMP JUMPDEST DUP1 PUSH1 0x1 SWAP1 DUP1 MLOAD SWAP1 PUSH1 0x20 ADD SWAP1 PUSH2 0x10C SWAP3 SWAP2 SWAP1 PUSH2 0x28D JUMP JUMPDEST POP POP JUMP JUMPDEST PUSH1 0x1 DUP1 SLOAD PUSH2 0x11D SWAP1 PUSH2 0x5D4 JUMP JUMPDEST DUP1 PUSH1 0x1F ADD PUSH1 0x20 DUP1 SWAP2 DIV MUL PUSH1 0x20 ADD PUSH1 0x40 MLOAD SWAP1 DUP2 ADD PUSH1 0x40 MSTORE DUP1 SWAP3 SWAP2 SWAP1 DUP2 DUP2 MSTORE PUSH1 0x20 ADD DUP3 DUP1 SLOAD PUSH2 0x149 SWAP1 PUSH2 0x5D4 JUMP JUMPDEST DUP1 ISZERO PUSH2 0x196 JUMPI DUP1 PUSH1 0x1F LT PUSH2 0x16B JUMPI PUSH2 0x100 DUP1 DUP4 SLOAD DIV MUL DUP4 MSTORE SWAP2 PUSH1 0x20 ADD SWAP2 PUSH2 0x196 JUMP JUMPDEST DUP3 ADD SWAP2 SWAP1 PUSH1 0x0 MSTORE PUSH1 0x20 PUSH1 0x0 KECCAK256 SWAP1 JUMPDEST DUP2 SLOAD DUP2 MSTORE SWAP1 PUSH1 0x1 ADD SWAP1 PUSH1 0x20 ADD DUP1 DUP4 GT PUSH2 0x179 JUMPI DUP3 SWAP1 SUB PUSH1 0x1F AND DUP3 ADD SWAP2 JUMPDEST POP POP POP POP POP DUP2 JUMP JUMPDEST PUSH8 0x4563918244F40000 CALLVALUE EQ PUSH2 0x1B2 JUMPI PUSH1 0x0 DUP1 REVERT JUMPDEST PUSH1 0x2 SLOAD TIMESTAMP EQ ISZERO PUSH2 0x1C1 JUMPI PUSH1 0x0 DUP1 REVERT JUMPDEST TIMESTAMP PUSH1 0x2 DUP2 SWAP1 SSTORE POP PUSH1 0x0 PUSH1 0x7 TIMESTAMP PUSH2 0x1D7 SWAP2 SWAP1 PUSH2 0x637 JUMP JUMPDEST EQ ISZERO PUSH2 0x28B JUMPI PUSH1 0x0 CALLER PUSH20 0xFFFFFFFFFFFFFFFFFFFFFFFFFFFFFFFFFFFFFFFF AND SELFBALANCE PUSH1 0x40 MLOAD PUSH2 0x203 SWAP1 PUSH2 0x467 JUMP JUMPDEST PUSH1 0x0 PUSH1 0x40 MLOAD DUP1 DUP4 SUB DUP2 DUP6 DUP8 GAS CALL SWAP3 POP POP POP RETURNDATASIZE DUP1 PUSH1 0x0 DUP2 EQ PUSH2 0x240 JUMPI PUSH1 0x40 MLOAD SWAP2 POP PUSH1 0x1F NOT PUSH1 0x3F RETURNDATASIZE ADD AND DUP3 ADD PUSH1 0x40 MSTORE RETURNDATASIZE DUP3 MSTORE RETURNDATASIZE PUSH1 0x0 PUSH1 0x20 DUP5 ADD RETURNDATACOPY PUSH2 0x245 JUMP JUMPDEST PUSH1 0x60 SWAP2 POP JUMPDEST POP POP SWAP1 POP DUP1 PUSH2 0x289 JUMPI PUSH1 0x40 MLOAD PUSH32 0x8C379A000000000000000000000000000000000000000000000000000000000 DUP2 MSTORE PUSH1 0x4 ADD PUSH2 0x280 SWAP1 PUSH2 0x4B9 JUMP JUMPDEST PUSH1 0x40 MLOAD DUP1 SWAP2 SUB SWAP1 REVERT JUMPDEST POP JUMPDEST JUMP JUMPDEST DUP3 DUP1 SLOAD PUSH2 0x299 SWAP1 PUSH2 0x5D4 JUMP JUMPDEST SWAP1 PUSH1 0x0 MSTORE PUSH1 0x20 PUSH1 0x0 KECCAK256 SWAP1 PUSH1 0x1F ADD PUSH1 0x20 SWAP1 DIV DUP2 ADD SWAP3 DUP3 PUSH2 0x2BB JUMPI PUSH1 0x0 DUP6 SSTORE PUSH2 0x302 JUMP JUMPDEST DUP3 PUSH1 0x1F LT PUSH2 0x2D4 JUMPI DUP1 MLOAD PUSH1 0xFF NOT AND DUP4 DUP1 ADD OR DUP6 SSTORE PUSH2 0x302 JUMP JUMPDEST DUP3 DUP1 ADD PUSH1 0x1 ADD DUP6 SSTORE DUP3 ISZERO PUSH2 0x302 JUMPI SWAP2 DUP3 ADD JUMPDEST DUP3 DUP2 GT ISZERO PUSH2 0x301 JUMPI DUP3 MLOAD DUP3 SSTORE SWAP2 PUSH1 0x20 ADD SWAP2 SWAP1 PUSH1 0x1 ADD SWAP1 PUSH2 0x2E6 JUMP JUMPDEST JUMPDEST POP SWAP1 POP PUSH2 0x30F SWAP2 SWAP1 PUSH2 0x313 JUMP JUMPDEST POP SWAP1 JUMP JUMPDEST JUMPDEST DUP1 DUP3 GT ISZERO PUSH2 0x32C JUMPI PUSH1 0x0 DUP2 PUSH1 0x0 SWAP1 SSTORE POP PUSH1 0x1 ADD PUSH2 0x314 JUMP JUMPDEST POP SWAP1 JUMP JUMPDEST PUSH1 0x0 PUSH2 0x343 PUSH2 0x33E DUP5 PUSH2 0x4FE JUMP JUMPDEST PUSH2 0x4D9 JUMP JUMPDEST SWAP1 POP DUP3 DUP2 MSTORE PUSH1 0x20 DUP2 ADD DUP5 DUP5 DUP5 ADD GT ISZERO PUSH2 0x35B JUMPI PUSH1 0x0 DUP1 REVERT JUMPDEST PUSH2 0x366 DUP5 DUP3 DUP6 PUSH2 0x592 JUMP JUMPDEST POP SWAP4 SWAP3 POP POP POP JUMP JUMPDEST PUSH1 0x0 DUP3 PUSH1 0x1F DUP4 ADD SLT PUSH2 0x37F JUMPI PUSH1 0x0 DUP1 REVERT JUMPDEST DUP2 CALLDATALOAD PUSH2 0x38F DUP5 DUP3 PUSH1 0x20 DUP7 ADD PUSH2 0x330 JUMP JUMPDEST SWAP2 POP POP SWAP3 SWAP2 POP POP JUMP JUMPDEST PUSH1 0x0 PUSH1 0x20 DUP3 DUP5 SUB SLT ISZERO PUSH2 0x3AA JUMPI PUSH1 0x0 DUP1 REVERT JUMPDEST PUSH1 0x0 DUP3 ADD CALLDATALOAD PUSH8 0xFFFFFFFFFFFFFFFF DUP2 GT ISZERO PUSH2 0x3C4 JUMPI PUSH1 0x0 DUP1 REVERT JUMPDEST PUSH2 0x3D0 DUP5 DUP3 DUP6 ADD PUSH2 0x36E JUMP JUMPDEST SWAP2 POP POP SWAP3 SWAP2 POP POP JUMP JUMPDEST PUSH2 0x3E2 DUP2 PUSH2 0x556 JUMP JUMPDEST DUP3 MSTORE POP POP JUMP JUMPDEST PUSH1 0x0 PUSH2 0x3F3 DUP3 PUSH2 0x52F JUMP JUMPDEST PUSH2 0x3FD DUP2 DUP6 PUSH2 0x545 JUMP JUMPDEST SWAP4 POP PUSH2 0x40D DUP2 DUP6 PUSH1 0x20 DUP7 ADD PUSH2 0x5A1 JUMP JUMPDEST PUSH2 0x416 DUP2 PUSH2 0x6F5 JUMP JUMPDEST DUP5 ADD SWAP2 POP POP SWAP3 SWAP2 POP POP JUMP JUMPDEST PUSH1 0x0 PUSH2 0x42E PUSH1 0x14 DUP4 PUSH2 0x545 JUMP JUMPDEST SWAP2 POP PUSH2 0x439 DUP3 PUSH2 0x706 JUMP JUMPDEST PUSH1 0x20 DUP3 ADD SWAP1 POP SWAP2 SWAP1 POP JUMP JUMPDEST PUSH1 0x0 PUSH2 0x451 PUSH1 0x0 DUP4 PUSH2 0x53A JUMP JUMPDEST SWAP2 POP PUSH2 0x45C DUP3 PUSH2 0x72F JUMP JUMPDEST PUSH1 0x0 DUP3 ADD SWAP1 POP SWAP2 SWAP1 POP JUMP JUMPDEST PUSH1 0x0 PUSH2 0x472 DUP3 PUSH2 0x444 JUMP JUMPDEST SWAP2 POP DUP2 SWAP1 POP SWAP2 SWAP1 POP JUMP JUMPDEST PUSH1 0x0 PUSH1 0x20 DUP3 ADD SWAP1 POP PUSH2 0x491 PUSH1 0x0 DUP4 ADD DUP5 PUSH2 0x3D9 JUMP JUMPDEST SWAP3 SWAP2 POP POP JUMP JUMPDEST PUSH1 0x0 PUSH1 0x20 DUP3 ADD SWAP1 POP DUP2 DUP2 SUB PUSH1 0x0 DUP4 ADD MSTORE PUSH2 0x4B1 DUP2 DUP5 PUSH2 0x3E8 JUMP JUMPDEST SWAP1 POP SWAP3 SWAP2 POP POP JUMP JUMPDEST PUSH1 0x0 PUSH1 0x20 DUP3 ADD SWAP1 POP DUP2 DUP2 SUB PUSH1 0x0 DUP4 ADD MSTORE PUSH2 0x4D2 DUP2 PUSH2 0x421 JUMP JUMPDEST SWAP1 POP SWAP2 SWAP1 POP JUMP JUMPDEST PUSH1 0x0 PUSH2 0x4E3 PUSH2 0x4F4 JUMP JUMPDEST SWAP1 POP PUSH2 0x4EF DUP3 DUP3 PUSH2 0x606 JUMP JUMPDEST SWAP2 SWAP1 POP JUMP JUMPDEST PUSH1 0x0 PUSH1 0x40 MLOAD SWAP1 POP SWAP1 JUMP JUMPDEST PUSH1 0x0 PUSH8 0xFFFFFFFFFFFFFFFF DUP3 GT ISZERO PUSH2 0x519 JUMPI PUSH2 0x518 PUSH2 0x6C6 JUMP JUMPDEST JUMPDEST PUSH2 0x522 DUP3 PUSH2 0x6F5 JUMP JUMPDEST SWAP1 POP PUSH1 0x20 DUP2 ADD SWAP1 POP SWAP2 SWAP1 POP JUMP JUMPDEST PUSH1 0x0 DUP2 MLOAD SWAP1 POP SWAP2 SWAP1 POP JUMP JUMPDEST PUSH1 0x0 DUP2 SWAP1 POP SWAP3 SWAP2 POP POP JUMP JUMPDEST PUSH1 0x0 DUP3 DUP3 MSTORE PUSH1 0x20 DUP3 ADD SWAP1 POP SWAP3 SWAP2 POP POP JUMP JUMPDEST PUSH1 0x0 PUSH2 0x561 DUP3 PUSH2 0x568 JUMP JUMPDEST SWAP1 POP SWAP2 SWAP1 POP JUMP JUMPDEST PUSH1 0x0 PUSH20 0xFFFFFFFFFFFFFFFFFFFFFFFFFFFFFFFFFFFFFFFF DUP3 AND SWAP1 POP SWAP2 SWAP1 POP JUMP JUMPDEST PUSH1 0x0 DUP2 SWAP1 POP SWAP2 SWAP1 POP JUMP JUMPDEST DUP3 DUP2 DUP4 CALLDATACOPY PUSH1 0x0 DUP4 DUP4 ADD MSTORE POP POP POP JUMP JUMPDEST PUSH1 0x0 JUMPDEST DUP4 DUP2 LT ISZERO PUSH2 0x5BF JUMPI DUP1 DUP3 ADD MLOAD DUP2 DUP5 ADD MSTORE PUSH1 0x20 DUP2 ADD SWAP1 POP PUSH2 0x5A4 JUMP JUMPDEST DUP4 DUP2 GT ISZERO PUSH2 0x5CE JUMPI PUSH1 0x0 DUP5 DUP5 ADD MSTORE JUMPDEST POP POP POP POP JUMP JUMPDEST PUSH1 0x0 PUSH1 0x2 DUP3 DIV SWAP1 POP PUSH1 0x1 DUP3 AND DUP1 PUSH2 0x5EC JUMPI PUSH1 0x7F DUP3 AND SWAP2 POP JUMPDEST PUSH1 0x20 DUP3 LT DUP2 EQ ISZERO PUSH2 0x600 JUMPI PUSH2 0x5FF PUSH2 0x697 JUMP JUMPDEST JUMPDEST POP SWAP2 SWAP1 POP JUMP JUMPDEST PUSH2 0x60F DUP3 PUSH2 0x6F5 JUMP JUMPDEST DUP2 ADD DUP2 DUP2 LT PUSH8 0xFFFFFFFFFFFFFFFF DUP3 GT OR ISZERO PUSH2 0x62E JUMPI PUSH2 0x62D PUSH2 0x6C6 JUMP JUMPDEST JUMPDEST DUP1 PUSH1 0x40 MSTORE POP POP POP JUMP JUMPDEST PUSH1 0x0 PUSH2 0x642 DUP3 PUSH2 0x588 JUMP JUMPDEST SWAP2 POP PUSH2 0x64D DUP4 PUSH2 0x588 JUMP JUMPDEST SWAP3 POP DUP3 PUSH2 0x65D JUMPI PUSH2 0x65C PUSH2 0x668 JUMP JUMPDEST JUMPDEST DUP3 DUP3 MOD SWAP1 POP SWAP3 SWAP2 POP POP JUMP JUMPDEST PUSH32 0x4E487B7100000000000000000000000000000000000000000000000000000000 PUSH1 0x0 MSTORE PUSH1 0x12 PUSH1 0x4 MSTORE PUSH1 0x24 PUSH1 0x0 REVERT JUMPDEST PUSH32 0x4E487B7100000000000000000000000000000000000000000000000000000000 PUSH1 0x0 MSTORE PUSH1 0x22 PUSH1 0x4 MSTORE PUSH1 0x24 PUSH1 0x0 REVERT JUMPDEST PUSH32 0x4E487B7100000000000000000000000000000000000000000000000000000000 PUSH1 0x0 MSTORE PUSH1 0x41 PUSH1 0x4 MSTORE PUSH1 0x24 PUSH1 0x0 REVERT JUMPDEST PUSH1 0x0 PUSH1 0x1F NOT PUSH1 0x1F DUP4 ADD AND SWAP1 POP SWAP2 SWAP1 POP JUMP JUMPDEST PUSH32 0x4661696C656420746F2073656E64204574686572000000000000000000000000 PUSH1 0x0 DUP3 ADD MSTORE POP JUMP JUMPDEST POP JUMP INVALID LOG2 PUSH5 0x6970667358 0x22 SLT KECCAK256 0xC0 0xC 0x2E 0x4F SIGNEXTEND 0xF6 0xAB 0xAC PUSH32 0x7C5A4A651C936B58C4CA334470469B0E54B6B4667CFEBA64736F6C6343000804 STOP CALLER "
				},
				"gasEstimates": {
					"creation": {
						"codeDepositCost": "379200",
						"executionCost": "21284",
						"totalCost": "400484"
					},
					"external": {
						"_type()": "infinite",
						"getOwner()": "1200",
						"setTypePermission(string)": "infinite",
						"spin()": "infinite"
					}
				},
				"methodIdentifiers": {
					"_type()": "d85b2704",
					"getOwner()": "893d20e8",
					"setTypePermission(string)": "aeb94c9d",
					"spin()": "f0acd7d5"
				}
			},
			"storageLayout": {
				"storage": [
					{
						"astId": 3,
						"contract": "contracts/Histochain.sol:Histochain",
						"label": "_owner",
						"offset": 0,
						"slot": "0",
						"type": "t_address"
					},
					{
						"astId": 5,
						"contract": "contracts/Histochain.sol:Histochain",
						"label": "_type",
						"offset": 0,
						"slot": "1",
						"type": "t_string_storage"
					},
					{
						"astId": 7,
						"contract": "contracts/Histochain.sol:Histochain",
						"label": "_timestamp",
						"offset": 0,
						"slot": "2",
						"type": "t_uint256"
					}
				],
				"types": {
					"t_address": {
						"encoding": "inplace",
						"label": "address",
						"numberOfBytes": "20"
					},
					"t_string_storage": {
						"encoding": "bytes",
						"label": "string",
						"numberOfBytes": "32"
					},
					"t_uint256": {
						"encoding": "inplace",
						"label": "uint256",
						"numberOfBytes": "32"
					}
				}
			},
			"userdoc": {
				"kind": "user",
				"methods": {},
				"version": 1
			}
		}
	}
}