{
	"contracts/Histochain.sol": {
		"Histochain": {
			"abi": [
				{
					"inputs": [],
					"stateMutability": "nonpayable",
					"type": "constructor"
				},
				{
					"inputs": [],
					"name": "_type",
					"outputs": [
						{
							"internalType": "string",
							"name": "",
							"type": "string"
						}
					],
					"stateMutability": "view",
					"type": "function"
				},
				{
					"inputs": [],
					"name": "getOwner",
					"outputs": [
						{
							"internalType": "address",
							"name": "",
							"type": "address"
						}
					],
					"stateMutability": "view",
					"type": "function"
				},
				{
					"inputs": [
						{
							"internalType": "string",
							"name": "inputType",
							"type": "string"
						}
					],
					"name": "setTypePermission",
					"outputs": [],
					"stateMutability": "nonpayable",
					"type": "function"
				},
				{
					"inputs": [],
					"name": "spin",
					"outputs": [],
					"stateMutability": "payable",
					"type": "function"
				}
			],
			"devdoc": {
				"kind": "dev",
				"methods": {},
				"version": 1
			},
			"evm": {
				"assembly": "    /* \"contracts/Histochain.sol\":66:868  contract Histochain {\r... */\n  mstore(0x40, 0x80)\n    /* \"contracts/Histochain.sol\":290:342  constructor() {\r... */\n  callvalue\n  dup1\n  iszero\n  tag_1\n  jumpi\n  0x00\n  dup1\n  revert\ntag_1:\n  pop\n    /* \"contracts/Histochain.sol\":324:334  msg.sender */\n  caller\n    /* \"contracts/Histochain.sol\":315:321  _owner */\n  0x00\n  dup1\n    /* \"contracts/Histochain.sol\":315:334  _owner = msg.sender */\n  0x0100\n  exp\n  dup2\n  sload\n  dup2\n  0xffffffffffffffffffffffffffffffffffffffff\n  mul\n  not\n  and\n  swap1\n  dup4\n  0xffffffffffffffffffffffffffffffffffffffff\n  and\n  mul\n  or\n  swap1\n  sstore\n  pop\n    /* \"contracts/Histochain.sol\":66:868  contract Histochain {\r... */\n  dataSize(sub_0)\n  dup1\n  dataOffset(sub_0)\n  0x00\n  codecopy\n  0x00\n  return\nstop\n\nsub_0: assembly {\n        /* \"contracts/Histochain.sol\":66:868  contract Histochain {\r... */\n      mstore(0x40, 0x80)\n      jumpi(tag_1, lt(calldatasize, 0x04))\n      shr(0xe0, calldataload(0x00))\n      dup1\n      0x893d20e8\n      eq\n      tag_2\n      jumpi\n      dup1\n      0xaeb94c9d\n      eq\n      tag_3\n      jumpi\n      dup1\n      0xd85b2704\n      eq\n      tag_4\n      jumpi\n      dup1\n      0xf0acd7d5\n      eq\n      tag_5\n      jumpi\n    tag_1:\n      0x00\n      dup1\n      revert\n        /* \"contracts/Histochain.sol\":350:433  function getOwner() external view returns(address) {\r... */\n    tag_2:\n      callvalue\n      dup1\n      iszero\n      tag_6\n      jumpi\n      0x00\n      dup1\n      revert\n    tag_6:\n      pop\n      tag_7\n      tag_8\n      jump\t// in\n    tag_7:\n      mload(0x40)\n      tag_9\n      swap2\n      swap1\n      tag_10\n      jump\t// in\n    tag_9:\n      mload(0x40)\n      dup1\n      swap2\n      sub\n      swap1\n      return\n        /* \"contracts/Histochain.sol\":441:536  function setTypePermission(string memory inputType) public {\r... */\n    tag_3:\n      callvalue\n      dup1\n      iszero\n      tag_11\n      jumpi\n      0x00\n      dup1\n      revert\n    tag_11:\n      pop\n      tag_12\n      0x04\n      dup1\n      calldatasize\n      sub\n      dup2\n      add\n      swap1\n      tag_13\n      swap2\n      swap1\n      tag_14\n      jump\t// in\n    tag_13:\n      tag_15\n      jump\t// in\n    tag_12:\n      stop\n        /* \"contracts/Histochain.sol\":237:256  string public _type */\n    tag_4:\n      callvalue\n      dup1\n      iszero\n      tag_16\n      jumpi\n      0x00\n      dup1\n      revert\n    tag_16:\n      pop\n      tag_17\n      tag_18\n      jump\t// in\n    tag_17:\n      mload(0x40)\n      tag_19\n      swap2\n      swap1\n      tag_20\n      jump\t// in\n    tag_19:\n      mload(0x40)\n      dup1\n      swap2\n      sub\n      swap1\n      return\n        /* \"contracts/Histochain.sol\":544:865  function spin() external payable {\r... */\n    tag_5:\n      tag_21\n      tag_22\n      jump\t// in\n    tag_21:\n      stop\n        /* \"contracts/Histochain.sol\":350:433  function getOwner() external view returns(address) {\r... */\n    tag_8:\n        /* \"contracts/Histochain.sol\":392:399  address */\n      0x00\n        /* \"contracts/Histochain.sol\":419:425  _owner */\n      dup1\n      0x00\n      swap1\n      sload\n      swap1\n      0x0100\n      exp\n      swap1\n      div\n      0xffffffffffffffffffffffffffffffffffffffff\n      and\n        /* \"contracts/Histochain.sol\":412:425  return _owner */\n      swap1\n      pop\n        /* \"contracts/Histochain.sol\":350:433  function getOwner() external view returns(address) {\r... */\n      swap1\n      jump\t// out\n        /* \"contracts/Histochain.sol\":441:536  function setTypePermission(string memory inputType) public {\r... */\n    tag_15:\n        /* \"contracts/Histochain.sol\":519:528  inputType */\n      dup1\n        /* \"contracts/Histochain.sol\":511:516  _type */\n      0x01\n        /* \"contracts/Histochain.sol\":511:528  _type = inputType */\n      swap1\n      dup1\n      mload\n      swap1\n      0x20\n      add\n      swap1\n      tag_25\n      swap3\n      swap2\n      swap1\n      tag_26\n      jump\t// in\n    tag_25:\n      pop\n        /* \"contracts/Histochain.sol\":441:536  function setTypePermission(string memory inputType) public {\r... */\n      pop\n      jump\t// out\n        /* \"contracts/Histochain.sol\":237:256  string public _type */\n    tag_18:\n      0x01\n      dup1\n      sload\n      tag_27\n      swap1\n      tag_28\n      jump\t// in\n    tag_27:\n      dup1\n      0x1f\n      add\n      0x20\n      dup1\n      swap2\n      div\n      mul\n      0x20\n      add\n      mload(0x40)\n      swap1\n      dup2\n      add\n      0x40\n      mstore\n      dup1\n      swap3\n      swap2\n      swap1\n      dup2\n      dup2\n      mstore\n      0x20\n      add\n      dup3\n      dup1\n      sload\n      tag_29\n      swap1\n      tag_28\n      jump\t// in\n    tag_29:\n      dup1\n      iszero\n      tag_30\n      jumpi\n      dup1\n      0x1f\n      lt\n      tag_31\n      jumpi\n      0x0100\n      dup1\n      dup4\n      sload\n      div\n      mul\n      dup4\n      mstore\n      swap2\n      0x20\n      add\n      swap2\n      jump(tag_30)\n    tag_31:\n      dup3\n      add\n      swap2\n      swap1\n      0x00\n      mstore\n      keccak256(0x00, 0x20)\n      swap1\n    tag_32:\n      dup2\n      sload\n      dup2\n      mstore\n      swap1\n      0x01\n      add\n      swap1\n      0x20\n      add\n      dup1\n      dup4\n      gt\n      tag_32\n      jumpi\n      dup3\n      swap1\n      sub\n      0x1f\n      and\n      dup3\n      add\n      swap2\n    tag_30:\n      pop\n      pop\n      pop\n      pop\n      pop\n      dup2\n      jump\t// out\n        /* \"contracts/Histochain.sol\":544:865  function spin() external payable {\r... */\n    tag_22:\n        /* \"contracts/Histochain.sol\":609:616  5 ether */\n      0x4563918244f40000\n        /* \"contracts/Histochain.sol\":596:605  msg.value */\n      callvalue\n        /* \"contracts/Histochain.sol\":596:616  msg.value == 5 ether */\n      eq\n        /* \"contracts/Histochain.sol\":588:617  require(msg.value == 5 ether) */\n      tag_34\n      jumpi\n      0x00\n      dup1\n      revert\n    tag_34:\n        /* \"contracts/Histochain.sol\":655:665  _timestamp */\n      sload(0x02)\n        /* \"contracts/Histochain.sol\":636:651  block.timestamp */\n      timestamp\n        /* \"contracts/Histochain.sol\":636:665  block.timestamp != _timestamp */\n      eq\n      iszero\n        /* \"contracts/Histochain.sol\":628:666  require(block.timestamp != _timestamp) */\n      tag_35\n      jumpi\n      0x00\n      dup1\n      revert\n    tag_35:\n        /* \"contracts/Histochain.sol\":692:707  block.timestamp */\n      timestamp\n        /* \"contracts/Histochain.sol\":679:689  _timestamp */\n      0x02\n        /* \"contracts/Histochain.sol\":679:707  _timestamp = block.timestamp */\n      dup2\n      swap1\n      sstore\n      pop\n        /* \"contracts/Histochain.sol\":745:746  0 */\n      0x00\n        /* \"contracts/Histochain.sol\":740:741  7 */\n      0x07\n        /* \"contracts/Histochain.sol\":722:737  block.timestamp */\n      timestamp\n        /* \"contracts/Histochain.sol\":722:741  block.timestamp % 7 */\n      tag_36\n      swap2\n      swap1\n      tag_37\n      jump\t// in\n    tag_36:\n        /* \"contracts/Histochain.sol\":722:746  block.timestamp % 7 == 0 */\n      eq\n        /* \"contracts/Histochain.sol\":718:858  if (block.timestamp % 7 == 0) {\r... */\n      iszero\n      tag_38\n      jumpi\n        /* \"contracts/Histochain.sol\":764:773  bool sent */\n      0x00\n        /* \"contracts/Histochain.sol\":779:789  msg.sender */\n      caller\n        /* \"contracts/Histochain.sol\":779:794  msg.sender.call */\n      0xffffffffffffffffffffffffffffffffffffffff\n      and\n        /* \"contracts/Histochain.sol\":820:841  address(this).balance */\n      selfbalance\n        /* \"contracts/Histochain.sol\":779:846  msg.sender.call{\r... */\n      mload(0x40)\n      tag_39\n      swap1\n      tag_40\n      jump\t// in\n    tag_39:\n      0x00\n      mload(0x40)\n      dup1\n      dup4\n      sub\n      dup2\n      dup6\n      dup8\n      gas\n      call\n      swap3\n      pop\n      pop\n      pop\n      returndatasize\n      dup1\n      0x00\n      dup2\n      eq\n      tag_43\n      jumpi\n      mload(0x40)\n      swap2\n      pop\n      and(add(returndatasize, 0x3f), not(0x1f))\n      dup3\n      add\n      0x40\n      mstore\n      returndatasize\n      dup3\n      mstore\n      returndatasize\n      0x00\n      0x20\n      dup5\n      add\n      returndatacopy\n      jump(tag_42)\n    tag_43:\n      0x60\n      swap2\n      pop\n    tag_42:\n      pop\n        /* \"contracts/Histochain.sol\":763:846  (bool sent, ) = msg.sender.call{\r... */\n      pop\n      swap1\n      pop\n        /* \"contracts/Histochain.sol\":718:858  if (block.timestamp % 7 == 0) {\r... */\n      pop\n    tag_38:\n        /* \"contracts/Histochain.sol\":544:865  function spin() external payable {\r... */\n      jump\t// out\n    tag_26:\n      dup3\n      dup1\n      sload\n      tag_44\n      swap1\n      tag_28\n      jump\t// in\n    tag_44:\n      swap1\n      0x00\n      mstore\n      keccak256(0x00, 0x20)\n      swap1\n      0x1f\n      add\n      0x20\n      swap1\n      div\n      dup2\n      add\n      swap3\n      dup3\n      tag_46\n      jumpi\n      0x00\n      dup6\n      sstore\n      jump(tag_45)\n    tag_46:\n      dup3\n      0x1f\n      lt\n      tag_47\n      jumpi\n      dup1\n      mload\n      not(0xff)\n      and\n      dup4\n      dup1\n      add\n      or\n      dup6\n      sstore\n      jump(tag_45)\n    tag_47:\n      dup3\n      dup1\n      add\n      0x01\n      add\n      dup6\n      sstore\n      dup3\n      iszero\n      tag_45\n      jumpi\n      swap2\n      dup3\n      add\n    tag_48:\n      dup3\n      dup2\n      gt\n      iszero\n      tag_49\n      jumpi\n      dup3\n      mload\n      dup3\n      sstore\n      swap2\n      0x20\n      add\n      swap2\n      swap1\n      0x01\n      add\n      swap1\n      jump(tag_48)\n    tag_49:\n    tag_45:\n      pop\n      swap1\n      pop\n      tag_50\n      swap2\n      swap1\n      tag_51\n      jump\t// in\n    tag_50:\n      pop\n      swap1\n      jump\t// out\n    tag_51:\n    tag_52:\n      dup1\n      dup3\n      gt\n      iszero\n      tag_53\n      jumpi\n      0x00\n      dup2\n      0x00\n      swap1\n      sstore\n      pop\n      0x01\n      add\n      jump(tag_52)\n    tag_53:\n      pop\n      swap1\n      jump\t// out\n        /* \"#utility.yul\":7:352   */\n    tag_55:\n        /* \"#utility.yul\":85:90   */\n      0x00\n        /* \"#utility.yul\":110:176   */\n      tag_57\n        /* \"#utility.yul\":126:175   */\n      tag_58\n        /* \"#utility.yul\":168:174   */\n      dup5\n        /* \"#utility.yul\":126:175   */\n      tag_59\n      jump\t// in\n    tag_58:\n        /* \"#utility.yul\":110:176   */\n      tag_60\n      jump\t// in\n    tag_57:\n        /* \"#utility.yul\":101:176   */\n      swap1\n      pop\n        /* \"#utility.yul\":199:205   */\n      dup3\n        /* \"#utility.yul\":192:197   */\n      dup2\n        /* \"#utility.yul\":185:206   */\n      mstore\n        /* \"#utility.yul\":237:241   */\n      0x20\n        /* \"#utility.yul\":230:235   */\n      dup2\n        /* \"#utility.yul\":226:242   */\n      add\n        /* \"#utility.yul\":275:278   */\n      dup5\n        /* \"#utility.yul\":266:272   */\n      dup5\n        /* \"#utility.yul\":261:264   */\n      dup5\n        /* \"#utility.yul\":257:273   */\n      add\n        /* \"#utility.yul\":254:279   */\n      gt\n        /* \"#utility.yul\":251:253   */\n      iszero\n      tag_61\n      jumpi\n        /* \"#utility.yul\":292:293   */\n      0x00\n        /* \"#utility.yul\":289:290   */\n      dup1\n        /* \"#utility.yul\":282:294   */\n      revert\n        /* \"#utility.yul\":251:253   */\n    tag_61:\n        /* \"#utility.yul\":305:346   */\n      tag_62\n        /* \"#utility.yul\":339:345   */\n      dup5\n        /* \"#utility.yul\":334:337   */\n      dup3\n        /* \"#utility.yul\":329:332   */\n      dup6\n        /* \"#utility.yul\":305:346   */\n      tag_63\n      jump\t// in\n    tag_62:\n        /* \"#utility.yul\":91:352   */\n      pop\n      swap4\n      swap3\n      pop\n      pop\n      pop\n      jump\t// out\n        /* \"#utility.yul\":372:645   */\n    tag_64:\n        /* \"#utility.yul\":428:433   */\n      0x00\n        /* \"#utility.yul\":477:480   */\n      dup3\n        /* \"#utility.yul\":470:474   */\n      0x1f\n        /* \"#utility.yul\":462:468   */\n      dup4\n        /* \"#utility.yul\":458:475   */\n      add\n        /* \"#utility.yul\":454:481   */\n      slt\n        /* \"#utility.yul\":444:446   */\n      tag_66\n      jumpi\n        /* \"#utility.yul\":495:496   */\n      0x00\n        /* \"#utility.yul\":492:493   */\n      dup1\n        /* \"#utility.yul\":485:497   */\n      revert\n        /* \"#utility.yul\":444:446   */\n    tag_66:\n        /* \"#utility.yul\":535:541   */\n      dup2\n        /* \"#utility.yul\":522:542   */\n      calldataload\n        /* \"#utility.yul\":560:639   */\n      tag_67\n        /* \"#utility.yul\":635:638   */\n      dup5\n        /* \"#utility.yul\":627:633   */\n      dup3\n        /* \"#utility.yul\":620:624   */\n      0x20\n        /* \"#utility.yul\":612:618   */\n      dup7\n        /* \"#utility.yul\":608:625   */\n      add\n        /* \"#utility.yul\":560:639   */\n      tag_55\n      jump\t// in\n    tag_67:\n        /* \"#utility.yul\":551:639   */\n      swap2\n      pop\n        /* \"#utility.yul\":434:645   */\n      pop\n      swap3\n      swap2\n      pop\n      pop\n      jump\t// out\n        /* \"#utility.yul\":651:1026   */\n    tag_14:\n        /* \"#utility.yul\":720:726   */\n      0x00\n        /* \"#utility.yul\":769:771   */\n      0x20\n        /* \"#utility.yul\":757:766   */\n      dup3\n        /* \"#utility.yul\":748:755   */\n      dup5\n        /* \"#utility.yul\":744:767   */\n      sub\n        /* \"#utility.yul\":740:772   */\n      slt\n        /* \"#utility.yul\":737:739   */\n      iszero\n      tag_69\n      jumpi\n        /* \"#utility.yul\":785:786   */\n      0x00\n        /* \"#utility.yul\":782:783   */\n      dup1\n        /* \"#utility.yul\":775:787   */\n      revert\n        /* \"#utility.yul\":737:739   */\n    tag_69:\n        /* \"#utility.yul\":856:857   */\n      0x00\n        /* \"#utility.yul\":845:854   */\n      dup3\n        /* \"#utility.yul\":841:858   */\n      add\n        /* \"#utility.yul\":828:859   */\n      calldataload\n        /* \"#utility.yul\":886:904   */\n      0xffffffffffffffff\n        /* \"#utility.yul\":878:884   */\n      dup2\n        /* \"#utility.yul\":875:905   */\n      gt\n        /* \"#utility.yul\":872:874   */\n      iszero\n      tag_70\n      jumpi\n        /* \"#utility.yul\":918:919   */\n      0x00\n        /* \"#utility.yul\":915:916   */\n      dup1\n        /* \"#utility.yul\":908:920   */\n      revert\n        /* \"#utility.yul\":872:874   */\n    tag_70:\n        /* \"#utility.yul\":946:1009   */\n      tag_71\n        /* \"#utility.yul\":1001:1008   */\n      dup5\n        /* \"#utility.yul\":992:998   */\n      dup3\n        /* \"#utility.yul\":981:990   */\n      dup6\n        /* \"#utility.yul\":977:999   */\n      add\n        /* \"#utility.yul\":946:1009   */\n      tag_64\n      jump\t// in\n    tag_71:\n        /* \"#utility.yul\":936:1009   */\n      swap2\n      pop\n        /* \"#utility.yul\":799:1019   */\n      pop\n        /* \"#utility.yul\":727:1026   */\n      swap3\n      swap2\n      pop\n      pop\n      jump\t// out\n        /* \"#utility.yul\":1032:1150   */\n    tag_72:\n        /* \"#utility.yul\":1119:1143   */\n      tag_74\n        /* \"#utility.yul\":1137:1142   */\n      dup2\n        /* \"#utility.yul\":1119:1143   */\n      tag_75\n      jump\t// in\n    tag_74:\n        /* \"#utility.yul\":1114:1117   */\n      dup3\n        /* \"#utility.yul\":1107:1144   */\n      mstore\n        /* \"#utility.yul\":1097:1150   */\n      pop\n      pop\n      jump\t// out\n        /* \"#utility.yul\":1156:1520   */\n    tag_76:\n        /* \"#utility.yul\":1244:1247   */\n      0x00\n        /* \"#utility.yul\":1272:1311   */\n      tag_78\n        /* \"#utility.yul\":1305:1310   */\n      dup3\n        /* \"#utility.yul\":1272:1311   */\n      tag_79\n      jump\t// in\n    tag_78:\n        /* \"#utility.yul\":1327:1398   */\n      tag_80\n        /* \"#utility.yul\":1391:1397   */\n      dup2\n        /* \"#utility.yul\":1386:1389   */\n      dup6\n        /* \"#utility.yul\":1327:1398   */\n      tag_81\n      jump\t// in\n    tag_80:\n        /* \"#utility.yul\":1320:1398   */\n      swap4\n      pop\n        /* \"#utility.yul\":1407:1459   */\n      tag_82\n        /* \"#utility.yul\":1452:1458   */\n      dup2\n        /* \"#utility.yul\":1447:1450   */\n      dup6\n        /* \"#utility.yul\":1440:1444   */\n      0x20\n        /* \"#utility.yul\":1433:1438   */\n      dup7\n        /* \"#utility.yul\":1429:1445   */\n      add\n        /* \"#utility.yul\":1407:1459   */\n      tag_83\n      jump\t// in\n    tag_82:\n        /* \"#utility.yul\":1484:1513   */\n      tag_84\n        /* \"#utility.yul\":1506:1512   */\n      dup2\n        /* \"#utility.yul\":1484:1513   */\n      tag_85\n      jump\t// in\n    tag_84:\n        /* \"#utility.yul\":1479:1482   */\n      dup5\n        /* \"#utility.yul\":1475:1514   */\n      add\n        /* \"#utility.yul\":1468:1514   */\n      swap2\n      pop\n        /* \"#utility.yul\":1248:1520   */\n      pop\n      swap3\n      swap2\n      pop\n      pop\n      jump\t// out\n        /* \"#utility.yul\":1526:1924   */\n    tag_86:\n        /* \"#utility.yul\":1685:1688   */\n      0x00\n        /* \"#utility.yul\":1706:1789   */\n      tag_88\n        /* \"#utility.yul\":1787:1788   */\n      0x00\n        /* \"#utility.yul\":1782:1785   */\n      dup4\n        /* \"#utility.yul\":1706:1789   */\n      tag_89\n      jump\t// in\n    tag_88:\n        /* \"#utility.yul\":1699:1789   */\n      swap2\n      pop\n        /* \"#utility.yul\":1798:1891   */\n      tag_90\n        /* \"#utility.yul\":1887:1890   */\n      dup3\n        /* \"#utility.yul\":1798:1891   */\n      tag_91\n      jump\t// in\n    tag_90:\n        /* \"#utility.yul\":1916:1917   */\n      0x00\n        /* \"#utility.yul\":1911:1914   */\n      dup3\n        /* \"#utility.yul\":1907:1918   */\n      add\n        /* \"#utility.yul\":1900:1918   */\n      swap1\n      pop\n        /* \"#utility.yul\":1689:1924   */\n      swap2\n      swap1\n      pop\n      jump\t// out\n        /* \"#utility.yul\":1930:2309   */\n    tag_40:\n        /* \"#utility.yul\":2114:2117   */\n      0x00\n        /* \"#utility.yul\":2136:2283   */\n      tag_93\n        /* \"#utility.yul\":2279:2282   */\n      dup3\n        /* \"#utility.yul\":2136:2283   */\n      tag_86\n      jump\t// in\n    tag_93:\n        /* \"#utility.yul\":2129:2283   */\n      swap2\n      pop\n        /* \"#utility.yul\":2300:2303   */\n      dup2\n        /* \"#utility.yul\":2293:2303   */\n      swap1\n      pop\n        /* \"#utility.yul\":2118:2309   */\n      swap2\n      swap1\n      pop\n      jump\t// out\n        /* \"#utility.yul\":2315:2537   */\n    tag_10:\n        /* \"#utility.yul\":2408:2412   */\n      0x00\n        /* \"#utility.yul\":2446:2448   */\n      0x20\n        /* \"#utility.yul\":2435:2444   */\n      dup3\n        /* \"#utility.yul\":2431:2449   */\n      add\n        /* \"#utility.yul\":2423:2449   */\n      swap1\n      pop\n        /* \"#utility.yul\":2459:2530   */\n      tag_95\n        /* \"#utility.yul\":2527:2528   */\n      0x00\n        /* \"#utility.yul\":2516:2525   */\n      dup4\n        /* \"#utility.yul\":2512:2529   */\n      add\n        /* \"#utility.yul\":2503:2509   */\n      dup5\n        /* \"#utility.yul\":2459:2530   */\n      tag_72\n      jump\t// in\n    tag_95:\n        /* \"#utility.yul\":2413:2537   */\n      swap3\n      swap2\n      pop\n      pop\n      jump\t// out\n        /* \"#utility.yul\":2543:2856   */\n    tag_20:\n        /* \"#utility.yul\":2656:2660   */\n      0x00\n        /* \"#utility.yul\":2694:2696   */\n      0x20\n        /* \"#utility.yul\":2683:2692   */\n      dup3\n        /* \"#utility.yul\":2679:2697   */\n      add\n        /* \"#utility.yul\":2671:2697   */\n      swap1\n      pop\n        /* \"#utility.yul\":2743:2752   */\n      dup2\n        /* \"#utility.yul\":2737:2741   */\n      dup2\n        /* \"#utility.yul\":2733:2753   */\n      sub\n        /* \"#utility.yul\":2729:2730   */\n      0x00\n        /* \"#utility.yul\":2718:2727   */\n      dup4\n        /* \"#utility.yul\":2714:2731   */\n      add\n        /* \"#utility.yul\":2707:2754   */\n      mstore\n        /* \"#utility.yul\":2771:2849   */\n      tag_97\n        /* \"#utility.yul\":2844:2848   */\n      dup2\n        /* \"#utility.yul\":2835:2841   */\n      dup5\n        /* \"#utility.yul\":2771:2849   */\n      tag_76\n      jump\t// in\n    tag_97:\n        /* \"#utility.yul\":2763:2849   */\n      swap1\n      pop\n        /* \"#utility.yul\":2661:2856   */\n      swap3\n      swap2\n      pop\n      pop\n      jump\t// out\n        /* \"#utility.yul\":2862:2991   */\n    tag_60:\n        /* \"#utility.yul\":2896:2902   */\n      0x00\n        /* \"#utility.yul\":2923:2943   */\n      tag_99\n      tag_100\n      jump\t// in\n    tag_99:\n        /* \"#utility.yul\":2913:2943   */\n      swap1\n      pop\n        /* \"#utility.yul\":2952:2985   */\n      tag_101\n        /* \"#utility.yul\":2980:2984   */\n      dup3\n        /* \"#utility.yul\":2972:2978   */\n      dup3\n        /* \"#utility.yul\":2952:2985   */\n      tag_102\n      jump\t// in\n    tag_101:\n        /* \"#utility.yul\":2903:2991   */\n      swap2\n      swap1\n      pop\n      jump\t// out\n        /* \"#utility.yul\":2997:3072   */\n    tag_100:\n        /* \"#utility.yul\":3030:3036   */\n      0x00\n        /* \"#utility.yul\":3063:3065   */\n      0x40\n        /* \"#utility.yul\":3057:3066   */\n      mload\n        /* \"#utility.yul\":3047:3066   */\n      swap1\n      pop\n        /* \"#utility.yul\":3037:3072   */\n      swap1\n      jump\t// out\n        /* \"#utility.yul\":3078:3386   */\n    tag_59:\n        /* \"#utility.yul\":3140:3144   */\n      0x00\n        /* \"#utility.yul\":3230:3248   */\n      0xffffffffffffffff\n        /* \"#utility.yul\":3222:3228   */\n      dup3\n        /* \"#utility.yul\":3219:3249   */\n      gt\n        /* \"#utility.yul\":3216:3218   */\n      iszero\n      tag_105\n      jumpi\n        /* \"#utility.yul\":3252:3270   */\n      tag_106\n      tag_107\n      jump\t// in\n    tag_106:\n        /* \"#utility.yul\":3216:3218   */\n    tag_105:\n        /* \"#utility.yul\":3290:3319   */\n      tag_108\n        /* \"#utility.yul\":3312:3318   */\n      dup3\n        /* \"#utility.yul\":3290:3319   */\n      tag_85\n      jump\t// in\n    tag_108:\n        /* \"#utility.yul\":3282:3319   */\n      swap1\n      pop\n        /* \"#utility.yul\":3374:3378   */\n      0x20\n        /* \"#utility.yul\":3368:3372   */\n      dup2\n        /* \"#utility.yul\":3364:3379   */\n      add\n        /* \"#utility.yul\":3356:3379   */\n      swap1\n      pop\n        /* \"#utility.yul\":3145:3386   */\n      swap2\n      swap1\n      pop\n      jump\t// out\n        /* \"#utility.yul\":3392:3491   */\n    tag_79:\n        /* \"#utility.yul\":3444:3450   */\n      0x00\n        /* \"#utility.yul\":3478:3483   */\n      dup2\n        /* \"#utility.yul\":3472:3484   */\n      mload\n        /* \"#utility.yul\":3462:3484   */\n      swap1\n      pop\n        /* \"#utility.yul\":3451:3491   */\n      swap2\n      swap1\n      pop\n      jump\t// out\n        /* \"#utility.yul\":3497:3644   */\n    tag_89:\n        /* \"#utility.yul\":3598:3609   */\n      0x00\n        /* \"#utility.yul\":3635:3638   */\n      dup2\n        /* \"#utility.yul\":3620:3638   */\n      swap1\n      pop\n        /* \"#utility.yul\":3610:3644   */\n      swap3\n      swap2\n      pop\n      pop\n      jump\t// out\n        /* \"#utility.yul\":3650:3819   */\n    tag_81:\n        /* \"#utility.yul\":3734:3745   */\n      0x00\n        /* \"#utility.yul\":3768:3774   */\n      dup3\n        /* \"#utility.yul\":3763:3766   */\n      dup3\n        /* \"#utility.yul\":3756:3775   */\n      mstore\n        /* \"#utility.yul\":3808:3812   */\n      0x20\n        /* \"#utility.yul\":3803:3806   */\n      dup3\n        /* \"#utility.yul\":3799:3813   */\n      add\n        /* \"#utility.yul\":3784:3813   */\n      swap1\n      pop\n        /* \"#utility.yul\":3746:3819   */\n      swap3\n      swap2\n      pop\n      pop\n      jump\t// out\n        /* \"#utility.yul\":3825:3921   */\n    tag_75:\n        /* \"#utility.yul\":3862:3869   */\n      0x00\n        /* \"#utility.yul\":3891:3915   */\n      tag_113\n        /* \"#utility.yul\":3909:3914   */\n      dup3\n        /* \"#utility.yul\":3891:3915   */\n      tag_114\n      jump\t// in\n    tag_113:\n        /* \"#utility.yul\":3880:3915   */\n      swap1\n      pop\n        /* \"#utility.yul\":3870:3921   */\n      swap2\n      swap1\n      pop\n      jump\t// out\n        /* \"#utility.yul\":3927:4053   */\n    tag_114:\n        /* \"#utility.yul\":3964:3971   */\n      0x00\n        /* \"#utility.yul\":4004:4046   */\n      0xffffffffffffffffffffffffffffffffffffffff\n        /* \"#utility.yul\":3997:4002   */\n      dup3\n        /* \"#utility.yul\":3993:4047   */\n      and\n        /* \"#utility.yul\":3982:4047   */\n      swap1\n      pop\n        /* \"#utility.yul\":3972:4053   */\n      swap2\n      swap1\n      pop\n      jump\t// out\n        /* \"#utility.yul\":4059:4136   */\n    tag_116:\n        /* \"#utility.yul\":4096:4103   */\n      0x00\n        /* \"#utility.yul\":4125:4130   */\n      dup2\n        /* \"#utility.yul\":4114:4130   */\n      swap1\n      pop\n        /* \"#utility.yul\":4104:4136   */\n      swap2\n      swap1\n      pop\n      jump\t// out\n        /* \"#utility.yul\":4142:4296   */\n    tag_63:\n        /* \"#utility.yul\":4226:4232   */\n      dup3\n        /* \"#utility.yul\":4221:4224   */\n      dup2\n        /* \"#utility.yul\":4216:4219   */\n      dup4\n        /* \"#utility.yul\":4203:4233   */\n      calldatacopy\n        /* \"#utility.yul\":4288:4289   */\n      0x00\n        /* \"#utility.yul\":4279:4285   */\n      dup4\n        /* \"#utility.yul\":4274:4277   */\n      dup4\n        /* \"#utility.yul\":4270:4286   */\n      add\n        /* \"#utility.yul\":4263:4290   */\n      mstore\n        /* \"#utility.yul\":4193:4296   */\n      pop\n      pop\n      pop\n      jump\t// out\n        /* \"#utility.yul\":4302:4609   */\n    tag_83:\n        /* \"#utility.yul\":4370:4371   */\n      0x00\n        /* \"#utility.yul\":4380:4493   */\n    tag_120:\n        /* \"#utility.yul\":4394:4400   */\n      dup4\n        /* \"#utility.yul\":4391:4392   */\n      dup2\n        /* \"#utility.yul\":4388:4401   */\n      lt\n        /* \"#utility.yul\":4380:4493   */\n      iszero\n      tag_122\n      jumpi\n        /* \"#utility.yul\":4479:4480   */\n      dup1\n        /* \"#utility.yul\":4474:4477   */\n      dup3\n        /* \"#utility.yul\":4470:4481   */\n      add\n        /* \"#utility.yul\":4464:4482   */\n      mload\n        /* \"#utility.yul\":4460:4461   */\n      dup2\n        /* \"#utility.yul\":4455:4458   */\n      dup5\n        /* \"#utility.yul\":4451:4462   */\n      add\n        /* \"#utility.yul\":4444:4483   */\n      mstore\n        /* \"#utility.yul\":4416:4418   */\n      0x20\n        /* \"#utility.yul\":4413:4414   */\n      dup2\n        /* \"#utility.yul\":4409:4419   */\n      add\n        /* \"#utility.yul\":4404:4419   */\n      swap1\n      pop\n        /* \"#utility.yul\":4380:4493   */\n      jump(tag_120)\n    tag_122:\n        /* \"#utility.yul\":4511:4517   */\n      dup4\n        /* \"#utility.yul\":4508:4509   */\n      dup2\n        /* \"#utility.yul\":4505:4518   */\n      gt\n        /* \"#utility.yul\":4502:4504   */\n      iszero\n      tag_123\n      jumpi\n        /* \"#utility.yul\":4591:4592   */\n      0x00\n        /* \"#utility.yul\":4582:4588   */\n      dup5\n        /* \"#utility.yul\":4577:4580   */\n      dup5\n        /* \"#utility.yul\":4573:4589   */\n      add\n        /* \"#utility.yul\":4566:4593   */\n      mstore\n        /* \"#utility.yul\":4502:4504   */\n    tag_123:\n        /* \"#utility.yul\":4351:4609   */\n      pop\n      pop\n      pop\n      pop\n      jump\t// out\n        /* \"#utility.yul\":4615:4935   */\n    tag_28:\n        /* \"#utility.yul\":4659:4665   */\n      0x00\n        /* \"#utility.yul\":4696:4697   */\n      0x02\n        /* \"#utility.yul\":4690:4694   */\n      dup3\n        /* \"#utility.yul\":4686:4698   */\n      div\n        /* \"#utility.yul\":4676:4698   */\n      swap1\n      pop\n        /* \"#utility.yul\":4743:4744   */\n      0x01\n        /* \"#utility.yul\":4737:4741   */\n      dup3\n        /* \"#utility.yul\":4733:4745   */\n      and\n        /* \"#utility.yul\":4764:4782   */\n      dup1\n        /* \"#utility.yul\":4754:4756   */\n      tag_125\n      jumpi\n        /* \"#utility.yul\":4820:4824   */\n      0x7f\n        /* \"#utility.yul\":4812:4818   */\n      dup3\n        /* \"#utility.yul\":4808:4825   */\n      and\n        /* \"#utility.yul\":4798:4825   */\n      swap2\n      pop\n        /* \"#utility.yul\":4754:4756   */\n    tag_125:\n        /* \"#utility.yul\":4882:4884   */\n      0x20\n        /* \"#utility.yul\":4874:4880   */\n      dup3\n        /* \"#utility.yul\":4871:4885   */\n      lt\n        /* \"#utility.yul\":4851:4869   */\n      dup2\n        /* \"#utility.yul\":4848:4886   */\n      eq\n        /* \"#utility.yul\":4845:4847   */\n      iszero\n      tag_126\n      jumpi\n        /* \"#utility.yul\":4901:4919   */\n      tag_127\n      tag_128\n      jump\t// in\n    tag_127:\n        /* \"#utility.yul\":4845:4847   */\n    tag_126:\n        /* \"#utility.yul\":4666:4935   */\n      pop\n      swap2\n      swap1\n      pop\n      jump\t// out\n        /* \"#utility.yul\":4941:5222   */\n    tag_102:\n        /* \"#utility.yul\":5024:5051   */\n      tag_130\n        /* \"#utility.yul\":5046:5050   */\n      dup3\n        /* \"#utility.yul\":5024:5051   */\n      tag_85\n      jump\t// in\n    tag_130:\n        /* \"#utility.yul\":5016:5022   */\n      dup2\n        /* \"#utility.yul\":5012:5052   */\n      add\n        /* \"#utility.yul\":5154:5160   */\n      dup2\n        /* \"#utility.yul\":5142:5152   */\n      dup2\n        /* \"#utility.yul\":5139:5161   */\n      lt\n        /* \"#utility.yul\":5118:5136   */\n      0xffffffffffffffff\n        /* \"#utility.yul\":5106:5116   */\n      dup3\n        /* \"#utility.yul\":5103:5137   */\n      gt\n        /* \"#utility.yul\":5100:5162   */\n      or\n        /* \"#utility.yul\":5097:5099   */\n      iszero\n      tag_131\n      jumpi\n        /* \"#utility.yul\":5165:5183   */\n      tag_132\n      tag_107\n      jump\t// in\n    tag_132:\n        /* \"#utility.yul\":5097:5099   */\n    tag_131:\n        /* \"#utility.yul\":5205:5215   */\n      dup1\n        /* \"#utility.yul\":5201:5203   */\n      0x40\n        /* \"#utility.yul\":5194:5216   */\n      mstore\n        /* \"#utility.yul\":4984:5222   */\n      pop\n      pop\n      pop\n      jump\t// out\n        /* \"#utility.yul\":5228:5404   */\n    tag_37:\n        /* \"#utility.yul\":5260:5261   */\n      0x00\n        /* \"#utility.yul\":5277:5297   */\n      tag_134\n        /* \"#utility.yul\":5295:5296   */\n      dup3\n        /* \"#utility.yul\":5277:5297   */\n      tag_116\n      jump\t// in\n    tag_134:\n        /* \"#utility.yul\":5272:5297   */\n      swap2\n      pop\n        /* \"#utility.yul\":5311:5331   */\n      tag_135\n        /* \"#utility.yul\":5329:5330   */\n      dup4\n        /* \"#utility.yul\":5311:5331   */\n      tag_116\n      jump\t// in\n    tag_135:\n        /* \"#utility.yul\":5306:5331   */\n      swap3\n      pop\n        /* \"#utility.yul\":5350:5351   */\n      dup3\n        /* \"#utility.yul\":5340:5342   */\n      tag_136\n      jumpi\n        /* \"#utility.yul\":5355:5373   */\n      tag_137\n      tag_138\n      jump\t// in\n    tag_137:\n        /* \"#utility.yul\":5340:5342   */\n    tag_136:\n        /* \"#utility.yul\":5396:5397   */\n      dup3\n        /* \"#utility.yul\":5393:5394   */\n      dup3\n        /* \"#utility.yul\":5389:5398   */\n      mod\n        /* \"#utility.yul\":5384:5398   */\n      swap1\n      pop\n        /* \"#utility.yul\":5262:5404   */\n      swap3\n      swap2\n      pop\n      pop\n      jump\t// out\n        /* \"#utility.yul\":5410:5590   */\n    tag_138:\n        /* \"#utility.yul\":5458:5535   */\n      0x4e487b7100000000000000000000000000000000000000000000000000000000\n        /* \"#utility.yul\":5455:5456   */\n      0x00\n        /* \"#utility.yul\":5448:5536   */\n      mstore\n        /* \"#utility.yul\":5555:5559   */\n      0x12\n        /* \"#utility.yul\":5552:5553   */\n      0x04\n        /* \"#utility.yul\":5545:5560   */\n      mstore\n        /* \"#utility.yul\":5579:5583   */\n      0x24\n        /* \"#utility.yul\":5576:5577   */\n      0x00\n        /* \"#utility.yul\":5569:5584   */\n      revert\n        /* \"#utility.yul\":5596:5776   */\n    tag_128:\n        /* \"#utility.yul\":5644:5721   */\n      0x4e487b7100000000000000000000000000000000000000000000000000000000\n        /* \"#utility.yul\":5641:5642   */\n      0x00\n        /* \"#utility.yul\":5634:5722   */\n      mstore\n        /* \"#utility.yul\":5741:5745   */\n      0x22\n        /* \"#utility.yul\":5738:5739   */\n      0x04\n        /* \"#utility.yul\":5731:5746   */\n      mstore\n        /* \"#utility.yul\":5765:5769   */\n      0x24\n        /* \"#utility.yul\":5762:5763   */\n      0x00\n        /* \"#utility.yul\":5755:5770   */\n      revert\n        /* \"#utility.yul\":5782:5962   */\n    tag_107:\n        /* \"#utility.yul\":5830:5907   */\n      0x4e487b7100000000000000000000000000000000000000000000000000000000\n        /* \"#utility.yul\":5827:5828   */\n      0x00\n        /* \"#utility.yul\":5820:5908   */\n      mstore\n        /* \"#utility.yul\":5927:5931   */\n      0x41\n        /* \"#utility.yul\":5924:5925   */\n      0x04\n        /* \"#utility.yul\":5917:5932   */\n      mstore\n        /* \"#utility.yul\":5951:5955   */\n      0x24\n        /* \"#utility.yul\":5948:5949   */\n      0x00\n        /* \"#utility.yul\":5941:5956   */\n      revert\n        /* \"#utility.yul\":5968:6070   */\n    tag_85:\n        /* \"#utility.yul\":6009:6015   */\n      0x00\n        /* \"#utility.yul\":6060:6062   */\n      0x1f\n        /* \"#utility.yul\":6056:6063   */\n      not\n        /* \"#utility.yul\":6051:6053   */\n      0x1f\n        /* \"#utility.yul\":6044:6049   */\n      dup4\n        /* \"#utility.yul\":6040:6054   */\n      add\n        /* \"#utility.yul\":6036:6064   */\n      and\n        /* \"#utility.yul\":6026:6064   */\n      swap1\n      pop\n        /* \"#utility.yul\":6016:6070   */\n      swap2\n      swap1\n      pop\n      jump\t// out\n        /* \"#utility.yul\":6076:6190   */\n    tag_91:\n        /* \"#utility.yul\":6182:6190   */\n      pop\n      jump\t// out\n\n    auxdata: 0xa2646970667358221220704346dc99a5aacc5f51598084a23285615844f42274a5a6c0c654b2fd1188e164736f6c63430008040033\n}\n",
				"bytecode": {
					"linkReferences": {},
					"object": "608060405234801561001057600080fd5b50336000806101000a81548173ffffffffffffffffffffffffffffffffffffffff021916908373ffffffffffffffffffffffffffffffffffffffff1602179055506106bc806100606000396000f3fe60806040526004361061003f5760003560e01c8063893d20e814610044578063aeb94c9d1461006f578063d85b270414610098578063f0acd7d5146100c3575b600080fd5b34801561005057600080fd5b506100596100cd565b6040516100669190610419565b60405180910390f35b34801561007b57600080fd5b5061009660048036038101906100919190610358565b6100f6565b005b3480156100a457600080fd5b506100ad610110565b6040516100ba9190610434565b60405180910390f35b6100cb61019e565b005b60008060009054906101000a900473ffffffffffffffffffffffffffffffffffffffff16905090565b806001908051906020019061010c92919061024d565b5050565b6001805461011d90610551565b80601f016020809104026020016040519081016040528092919081815260200182805461014990610551565b80156101965780601f1061016b57610100808354040283529160200191610196565b820191906000526020600020905b81548152906001019060200180831161017957829003601f168201915b505050505081565b674563918244f4000034146101b257600080fd5b6002544214156101c157600080fd5b4260028190555060006007426101d791906105b4565b141561024b5760003373ffffffffffffffffffffffffffffffffffffffff164760405161020390610404565b60006040518083038185875af1925050503d8060008114610240576040519150601f19603f3d011682016040523d82523d6000602084013e610245565b606091505b50509050505b565b82805461025990610551565b90600052602060002090601f01602090048101928261027b57600085556102c2565b82601f1061029457805160ff19168380011785556102c2565b828001600101855582156102c2579182015b828111156102c15782518255916020019190600101906102a6565b5b5090506102cf91906102d3565b5090565b5b808211156102ec5760008160009055506001016102d4565b5090565b60006103036102fe8461047b565b610456565b90508281526020810184848401111561031b57600080fd5b61032684828561050f565b509392505050565b600082601f83011261033f57600080fd5b813561034f8482602086016102f0565b91505092915050565b60006020828403121561036a57600080fd5b600082013567ffffffffffffffff81111561038457600080fd5b6103908482850161032e565b91505092915050565b6103a2816104d3565b82525050565b60006103b3826104ac565b6103bd81856104c2565b93506103cd81856020860161051e565b6103d681610672565b840191505092915050565b60006103ee6000836104b7565b91506103f982610683565b600082019050919050565b600061040f826103e1565b9150819050919050565b600060208201905061042e6000830184610399565b92915050565b6000602082019050818103600083015261044e81846103a8565b905092915050565b6000610460610471565b905061046c8282610583565b919050565b6000604051905090565b600067ffffffffffffffff82111561049657610495610643565b5b61049f82610672565b9050602081019050919050565b600081519050919050565b600081905092915050565b600082825260208201905092915050565b60006104de826104e5565b9050919050565b600073ffffffffffffffffffffffffffffffffffffffff82169050919050565b6000819050919050565b82818337600083830152505050565b60005b8381101561053c578082015181840152602081019050610521565b8381111561054b576000848401525b50505050565b6000600282049050600182168061056957607f821691505b6020821081141561057d5761057c610614565b5b50919050565b61058c82610672565b810181811067ffffffffffffffff821117156105ab576105aa610643565b5b80604052505050565b60006105bf82610505565b91506105ca83610505565b9250826105da576105d96105e5565b5b828206905092915050565b7f4e487b7100000000000000000000000000000000000000000000000000000000600052601260045260246000fd5b7f4e487b7100000000000000000000000000000000000000000000000000000000600052602260045260246000fd5b7f4e487b7100000000000000000000000000000000000000000000000000000000600052604160045260246000fd5b6000601f19601f8301169050919050565b5056fea2646970667358221220704346dc99a5aacc5f51598084a23285615844f42274a5a6c0c654b2fd1188e164736f6c63430008040033",
					"opcodes": "PUSH1 0x80 PUSH1 0x40 MSTORE CALLVALUE DUP1 ISZERO PUSH2 0x10 JUMPI PUSH1 0x0 DUP1 REVERT JUMPDEST POP CALLER PUSH1 0x0 DUP1 PUSH2 0x100 EXP DUP2 SLOAD DUP2 PUSH20 0xFFFFFFFFFFFFFFFFFFFFFFFFFFFFFFFFFFFFFFFF MUL NOT AND SWAP1 DUP4 PUSH20 0xFFFFFFFFFFFFFFFFFFFFFFFFFFFFFFFFFFFFFFFF AND MUL OR SWAP1 SSTORE POP PUSH2 0x6BC DUP1 PUSH2 0x60 PUSH1 0x0 CODECOPY PUSH1 0x0 RETURN INVALID PUSH1 0x80 PUSH1 0x40 MSTORE PUSH1 0x4 CALLDATASIZE LT PUSH2 0x3F JUMPI PUSH1 0x0 CALLDATALOAD PUSH1 0xE0 SHR DUP1 PUSH4 0x893D20E8 EQ PUSH2 0x44 JUMPI DUP1 PUSH4 0xAEB94C9D EQ PUSH2 0x6F JUMPI DUP1 PUSH4 0xD85B2704 EQ PUSH2 0x98 JUMPI DUP1 PUSH4 0xF0ACD7D5 EQ PUSH2 0xC3 JUMPI JUMPDEST PUSH1 0x0 DUP1 REVERT JUMPDEST CALLVALUE DUP1 ISZERO PUSH2 0x50 JUMPI PUSH1 0x0 DUP1 REVERT JUMPDEST POP PUSH2 0x59 PUSH2 0xCD JUMP JUMPDEST PUSH1 0x40 MLOAD PUSH2 0x66 SWAP2 SWAP1 PUSH2 0x419 JUMP JUMPDEST PUSH1 0x40 MLOAD DUP1 SWAP2 SUB SWAP1 RETURN JUMPDEST CALLVALUE DUP1 ISZERO PUSH2 0x7B JUMPI PUSH1 0x0 DUP1 REVERT JUMPDEST POP PUSH2 0x96 PUSH1 0x4 DUP1 CALLDATASIZE SUB DUP2 ADD SWAP1 PUSH2 0x91 SWAP2 SWAP1 PUSH2 0x358 JUMP JUMPDEST PUSH2 0xF6 JUMP JUMPDEST STOP JUMPDEST CALLVALUE DUP1 ISZERO PUSH2 0xA4 JUMPI PUSH1 0x0 DUP1 REVERT JUMPDEST POP PUSH2 0xAD PUSH2 0x110 JUMP JUMPDEST PUSH1 0x40 MLOAD PUSH2 0xBA SWAP2 SWAP1 PUSH2 0x434 JUMP JUMPDEST PUSH1 0x40 MLOAD DUP1 SWAP2 SUB SWAP1 RETURN JUMPDEST PUSH2 0xCB PUSH2 0x19E JUMP JUMPDEST STOP JUMPDEST PUSH1 0x0 DUP1 PUSH1 0x0 SWAP1 SLOAD SWAP1 PUSH2 0x100 EXP SWAP1 DIV PUSH20 0xFFFFFFFFFFFFFFFFFFFFFFFFFFFFFFFFFFFFFFFF AND SWAP1 POP SWAP1 JUMP JUMPDEST DUP1 PUSH1 0x1 SWAP1 DUP1 MLOAD SWAP1 PUSH1 0x20 ADD SWAP1 PUSH2 0x10C SWAP3 SWAP2 SWAP1 PUSH2 0x24D JUMP JUMPDEST POP POP JUMP JUMPDEST PUSH1 0x1 DUP1 SLOAD PUSH2 0x11D SWAP1 PUSH2 0x551 JUMP JUMPDEST DUP1 PUSH1 0x1F ADD PUSH1 0x20 DUP1 SWAP2 DIV MUL PUSH1 0x20 ADD PUSH1 0x40 MLOAD SWAP1 DUP2 ADD PUSH1 0x40 MSTORE DUP1 SWAP3 SWAP2 SWAP1 DUP2 DUP2 MSTORE PUSH1 0x20 ADD DUP3 DUP1 SLOAD PUSH2 0x149 SWAP1 PUSH2 0x551 JUMP JUMPDEST DUP1 ISZERO PUSH2 0x196 JUMPI DUP1 PUSH1 0x1F LT PUSH2 0x16B JUMPI PUSH2 0x100 DUP1 DUP4 SLOAD DIV MUL DUP4 MSTORE SWAP2 PUSH1 0x20 ADD SWAP2 PUSH2 0x196 JUMP JUMPDEST DUP3 ADD SWAP2 SWAP1 PUSH1 0x0 MSTORE PUSH1 0x20 PUSH1 0x0 KECCAK256 SWAP1 JUMPDEST DUP2 SLOAD DUP2 MSTORE SWAP1 PUSH1 0x1 ADD SWAP1 PUSH1 0x20 ADD DUP1 DUP4 GT PUSH2 0x179 JUMPI DUP3 SWAP1 SUB PUSH1 0x1F AND DUP3 ADD SWAP2 JUMPDEST POP POP POP POP POP DUP2 JUMP JUMPDEST PUSH8 0x4563918244F40000 CALLVALUE EQ PUSH2 0x1B2 JUMPI PUSH1 0x0 DUP1 REVERT JUMPDEST PUSH1 0x2 SLOAD TIMESTAMP EQ ISZERO PUSH2 0x1C1 JUMPI PUSH1 0x0 DUP1 REVERT JUMPDEST TIMESTAMP PUSH1 0x2 DUP2 SWAP1 SSTORE POP PUSH1 0x0 PUSH1 0x7 TIMESTAMP PUSH2 0x1D7 SWAP2 SWAP1 PUSH2 0x5B4 JUMP JUMPDEST EQ ISZERO PUSH2 0x24B JUMPI PUSH1 0x0 CALLER PUSH20 0xFFFFFFFFFFFFFFFFFFFFFFFFFFFFFFFFFFFFFFFF AND SELFBALANCE PUSH1 0x40 MLOAD PUSH2 0x203 SWAP1 PUSH2 0x404 JUMP JUMPDEST PUSH1 0x0 PUSH1 0x40 MLOAD DUP1 DUP4 SUB DUP2 DUP6 DUP8 GAS CALL SWAP3 POP POP POP RETURNDATASIZE DUP1 PUSH1 0x0 DUP2 EQ PUSH2 0x240 JUMPI PUSH1 0x40 MLOAD SWAP2 POP PUSH1 0x1F NOT PUSH1 0x3F RETURNDATASIZE ADD AND DUP3 ADD PUSH1 0x40 MSTORE RETURNDATASIZE DUP3 MSTORE RETURNDATASIZE PUSH1 0x0 PUSH1 0x20 DUP5 ADD RETURNDATACOPY PUSH2 0x245 JUMP JUMPDEST PUSH1 0x60 SWAP2 POP JUMPDEST POP POP SWAP1 POP POP JUMPDEST JUMP JUMPDEST DUP3 DUP1 SLOAD PUSH2 0x259 SWAP1 PUSH2 0x551 JUMP JUMPDEST SWAP1 PUSH1 0x0 MSTORE PUSH1 0x20 PUSH1 0x0 KECCAK256 SWAP1 PUSH1 0x1F ADD PUSH1 0x20 SWAP1 DIV DUP2 ADD SWAP3 DUP3 PUSH2 0x27B JUMPI PUSH1 0x0 DUP6 SSTORE PUSH2 0x2C2 JUMP JUMPDEST DUP3 PUSH1 0x1F LT PUSH2 0x294 JUMPI DUP1 MLOAD PUSH1 0xFF NOT AND DUP4 DUP1 ADD OR DUP6 SSTORE PUSH2 0x2C2 JUMP JUMPDEST DUP3 DUP1 ADD PUSH1 0x1 ADD DUP6 SSTORE DUP3 ISZERO PUSH2 0x2C2 JUMPI SWAP2 DUP3 ADD JUMPDEST DUP3 DUP2 GT ISZERO PUSH2 0x2C1 JUMPI DUP3 MLOAD DUP3 SSTORE SWAP2 PUSH1 0x20 ADD SWAP2 SWAP1 PUSH1 0x1 ADD SWAP1 PUSH2 0x2A6 JUMP JUMPDEST JUMPDEST POP SWAP1 POP PUSH2 0x2CF SWAP2 SWAP1 PUSH2 0x2D3 JUMP JUMPDEST POP SWAP1 JUMP JUMPDEST JUMPDEST DUP1 DUP3 GT ISZERO PUSH2 0x2EC JUMPI PUSH1 0x0 DUP2 PUSH1 0x0 SWAP1 SSTORE POP PUSH1 0x1 ADD PUSH2 0x2D4 JUMP JUMPDEST POP SWAP1 JUMP JUMPDEST PUSH1 0x0 PUSH2 0x303 PUSH2 0x2FE DUP5 PUSH2 0x47B JUMP JUMPDEST PUSH2 0x456 JUMP JUMPDEST SWAP1 POP DUP3 DUP2 MSTORE PUSH1 0x20 DUP2 ADD DUP5 DUP5 DUP5 ADD GT ISZERO PUSH2 0x31B JUMPI PUSH1 0x0 DUP1 REVERT JUMPDEST PUSH2 0x326 DUP5 DUP3 DUP6 PUSH2 0x50F JUMP JUMPDEST POP SWAP4 SWAP3 POP POP POP JUMP JUMPDEST PUSH1 0x0 DUP3 PUSH1 0x1F DUP4 ADD SLT PUSH2 0x33F JUMPI PUSH1 0x0 DUP1 REVERT JUMPDEST DUP2 CALLDATALOAD PUSH2 0x34F DUP5 DUP3 PUSH1 0x20 DUP7 ADD PUSH2 0x2F0 JUMP JUMPDEST SWAP2 POP POP SWAP3 SWAP2 POP POP JUMP JUMPDEST PUSH1 0x0 PUSH1 0x20 DUP3 DUP5 SUB SLT ISZERO PUSH2 0x36A JUMPI PUSH1 0x0 DUP1 REVERT JUMPDEST PUSH1 0x0 DUP3 ADD CALLDATALOAD PUSH8 0xFFFFFFFFFFFFFFFF DUP2 GT ISZERO PUSH2 0x384 JUMPI PUSH1 0x0 DUP1 REVERT JUMPDEST PUSH2 0x390 DUP5 DUP3 DUP6 ADD PUSH2 0x32E JUMP JUMPDEST SWAP2 POP POP SWAP3 SWAP2 POP POP JUMP JUMPDEST PUSH2 0x3A2 DUP2 PUSH2 0x4D3 JUMP JUMPDEST DUP3 MSTORE POP POP JUMP JUMPDEST PUSH1 0x0 PUSH2 0x3B3 DUP3 PUSH2 0x4AC JUMP JUMPDEST PUSH2 0x3BD DUP2 DUP6 PUSH2 0x4C2 JUMP JUMPDEST SWAP4 POP PUSH2 0x3CD DUP2 DUP6 PUSH1 0x20 DUP7 ADD PUSH2 0x51E JUMP JUMPDEST PUSH2 0x3D6 DUP2 PUSH2 0x672 JUMP JUMPDEST DUP5 ADD SWAP2 POP POP SWAP3 SWAP2 POP POP JUMP JUMPDEST PUSH1 0x0 PUSH2 0x3EE PUSH1 0x0 DUP4 PUSH2 0x4B7 JUMP JUMPDEST SWAP2 POP PUSH2 0x3F9 DUP3 PUSH2 0x683 JUMP JUMPDEST PUSH1 0x0 DUP3 ADD SWAP1 POP SWAP2 SWAP1 POP JUMP JUMPDEST PUSH1 0x0 PUSH2 0x40F DUP3 PUSH2 0x3E1 JUMP JUMPDEST SWAP2 POP DUP2 SWAP1 POP SWAP2 SWAP1 POP JUMP JUMPDEST PUSH1 0x0 PUSH1 0x20 DUP3 ADD SWAP1 POP PUSH2 0x42E PUSH1 0x0 DUP4 ADD DUP5 PUSH2 0x399 JUMP JUMPDEST SWAP3 SWAP2 POP POP JUMP JUMPDEST PUSH1 0x0 PUSH1 0x20 DUP3 ADD SWAP1 POP DUP2 DUP2 SUB PUSH1 0x0 DUP4 ADD MSTORE PUSH2 0x44E DUP2 DUP5 PUSH2 0x3A8 JUMP JUMPDEST SWAP1 POP SWAP3 SWAP2 POP POP JUMP JUMPDEST PUSH1 0x0 PUSH2 0x460 PUSH2 0x471 JUMP JUMPDEST SWAP1 POP PUSH2 0x46C DUP3 DUP3 PUSH2 0x583 JUMP JUMPDEST SWAP2 SWAP1 POP JUMP JUMPDEST PUSH1 0x0 PUSH1 0x40 MLOAD SWAP1 POP SWAP1 JUMP JUMPDEST PUSH1 0x0 PUSH8 0xFFFFFFFFFFFFFFFF DUP3 GT ISZERO PUSH2 0x496 JUMPI PUSH2 0x495 PUSH2 0x643 JUMP JUMPDEST JUMPDEST PUSH2 0x49F DUP3 PUSH2 0x672 JUMP JUMPDEST SWAP1 POP PUSH1 0x20 DUP2 ADD SWAP1 POP SWAP2 SWAP1 POP JUMP JUMPDEST PUSH1 0x0 DUP2 MLOAD SWAP1 POP SWAP2 SWAP1 POP JUMP JUMPDEST PUSH1 0x0 DUP2 SWAP1 POP SWAP3 SWAP2 POP POP JUMP JUMPDEST PUSH1 0x0 DUP3 DUP3 MSTORE PUSH1 0x20 DUP3 ADD SWAP1 POP SWAP3 SWAP2 POP POP JUMP JUMPDEST PUSH1 0x0 PUSH2 0x4DE DUP3 PUSH2 0x4E5 JUMP JUMPDEST SWAP1 POP SWAP2 SWAP1 POP JUMP JUMPDEST PUSH1 0x0 PUSH20 0xFFFFFFFFFFFFFFFFFFFFFFFFFFFFFFFFFFFFFFFF DUP3 AND SWAP1 POP SWAP2 SWAP1 POP JUMP JUMPDEST PUSH1 0x0 DUP2 SWAP1 POP SWAP2 SWAP1 POP JUMP JUMPDEST DUP3 DUP2 DUP4 CALLDATACOPY PUSH1 0x0 DUP4 DUP4 ADD MSTORE POP POP POP JUMP JUMPDEST PUSH1 0x0 JUMPDEST DUP4 DUP2 LT ISZERO PUSH2 0x53C JUMPI DUP1 DUP3 ADD MLOAD DUP2 DUP5 ADD MSTORE PUSH1 0x20 DUP2 ADD SWAP1 POP PUSH2 0x521 JUMP JUMPDEST DUP4 DUP2 GT ISZERO PUSH2 0x54B JUMPI PUSH1 0x0 DUP5 DUP5 ADD MSTORE JUMPDEST POP POP POP POP JUMP JUMPDEST PUSH1 0x0 PUSH1 0x2 DUP3 DIV SWAP1 POP PUSH1 0x1 DUP3 AND DUP1 PUSH2 0x569 JUMPI PUSH1 0x7F DUP3 AND SWAP2 POP JUMPDEST PUSH1 0x20 DUP3 LT DUP2 EQ ISZERO PUSH2 0x57D JUMPI PUSH2 0x57C PUSH2 0x614 JUMP JUMPDEST JUMPDEST POP SWAP2 SWAP1 POP JUMP JUMPDEST PUSH2 0x58C DUP3 PUSH2 0x672 JUMP JUMPDEST DUP2 ADD DUP2 DUP2 LT PUSH8 0xFFFFFFFFFFFFFFFF DUP3 GT OR ISZERO PUSH2 0x5AB JUMPI PUSH2 0x5AA PUSH2 0x643 JUMP JUMPDEST JUMPDEST DUP1 PUSH1 0x40 MSTORE POP POP POP JUMP JUMPDEST PUSH1 0x0 PUSH2 0x5BF DUP3 PUSH2 0x505 JUMP JUMPDEST SWAP2 POP PUSH2 0x5CA DUP4 PUSH2 0x505 JUMP JUMPDEST SWAP3 POP DUP3 PUSH2 0x5DA JUMPI PUSH2 0x5D9 PUSH2 0x5E5 JUMP JUMPDEST JUMPDEST DUP3 DUP3 MOD SWAP1 POP SWAP3 SWAP2 POP POP JUMP JUMPDEST PUSH32 0x4E487B7100000000000000000000000000000000000000000000000000000000 PUSH1 0x0 MSTORE PUSH1 0x12 PUSH1 0x4 MSTORE PUSH1 0x24 PUSH1 0x0 REVERT JUMPDEST PUSH32 0x4E487B7100000000000000000000000000000000000000000000000000000000 PUSH1 0x0 MSTORE PUSH1 0x22 PUSH1 0x4 MSTORE PUSH1 0x24 PUSH1 0x0 REVERT JUMPDEST PUSH32 0x4E487B7100000000000000000000000000000000000000000000000000000000 PUSH1 0x0 MSTORE PUSH1 0x41 PUSH1 0x4 MSTORE PUSH1 0x24 PUSH1 0x0 REVERT JUMPDEST PUSH1 0x0 PUSH1 0x1F NOT PUSH1 0x1F DUP4 ADD AND SWAP1 POP SWAP2 SWAP1 POP JUMP JUMPDEST POP JUMP INVALID LOG2 PUSH5 0x6970667358 0x22 SLT KECCAK256 PUSH17 0x4346DC99A5AACC5F51598084A232856158 DIFFICULTY DELEGATECALL 0x22 PUSH21 0xA5A6C0C654B2FD1188E164736F6C63430008040033 "
				},
				"gasEstimates": {
					"creation": {
						"codeDepositCost": "344800",
						"executionCost": "21246",
						"totalCost": "366046"
					},
					"external": {
						"_type()": "infinite",
						"getOwner()": "1200",
						"setTypePermission(string)": "infinite",
						"spin()": "infinite"
					}
				},
				"methodIdentifiers": {
					"_type()": "d85b2704",
					"getOwner()": "893d20e8",
					"setTypePermission(string)": "aeb94c9d",
					"spin()": "f0acd7d5"
				}
			},
			"storageLayout": {
				"storage": [
					{
						"astId": 3,
						"contract": "contracts/Histochain.sol:Histochain",
						"label": "_owner",
						"offset": 0,
						"slot": "0",
						"type": "t_address"
					},
					{
						"astId": 5,
						"contract": "contracts/Histochain.sol:Histochain",
						"label": "_type",
						"offset": 0,
						"slot": "1",
						"type": "t_string_storage"
					},
					{
						"astId": 7,
						"contract": "contracts/Histochain.sol:Histochain",
						"label": "_timestamp",
						"offset": 0,
						"slot": "2",
						"type": "t_uint256"
					}
				],
				"types": {
					"t_address": {
						"encoding": "inplace",
						"label": "address",
						"numberOfBytes": "20"
					},
					"t_string_storage": {
						"encoding": "bytes",
						"label": "string",
						"numberOfBytes": "32"
					},
					"t_uint256": {
						"encoding": "inplace",
						"label": "uint256",
						"numberOfBytes": "32"
					}
				}
			},
			"userdoc": {
				"kind": "user",
				"methods": {},
				"version": 1
			}
		}
	}
}