{
	"contracts/Histochain.sol": {
		"Histochain": {
			"abi": [
				{
					"inputs": [],
					"stateMutability": "nonpayable",
					"type": "constructor"
				},
				{
					"inputs": [],
					"name": "getOwner",
					"outputs": [
						{
							"internalType": "address",
							"name": "",
							"type": "address"
						}
					],
					"stateMutability": "view",
					"type": "function"
				},
				{
					"inputs": [
						{
							"internalType": "string",
							"name": "inputType",
							"type": "string"
						}
					],
					"name": "setTypePermission",
					"outputs": [],
					"stateMutability": "nonpayable",
					"type": "function"
				},
				{
					"inputs": [],
					"name": "spin",
					"outputs": [],
					"stateMutability": "payable",
					"type": "function"
				}
			],
			"devdoc": {
				"kind": "dev",
				"methods": {},
				"version": 1
			},
			"evm": {
				"assembly": "    /* \"contracts/Histochain.sol\":66:895  contract Histochain {\r... */\n  mstore(0x40, 0x80)\n    /* \"contracts/Histochain.sol\":283:335  constructor() {\r... */\n  callvalue\n  dup1\n  iszero\n  tag_1\n  jumpi\n  0x00\n  dup1\n  revert\ntag_1:\n  pop\n    /* \"contracts/Histochain.sol\":317:327  msg.sender */\n  caller\n    /* \"contracts/Histochain.sol\":308:314  _owner */\n  0x00\n  dup1\n    /* \"contracts/Histochain.sol\":308:327  _owner = msg.sender */\n  0x0100\n  exp\n  dup2\n  sload\n  dup2\n  0xffffffffffffffffffffffffffffffffffffffff\n  mul\n  not\n  and\n  swap1\n  dup4\n  0xffffffffffffffffffffffffffffffffffffffff\n  and\n  mul\n  or\n  swap1\n  sstore\n  pop\n    /* \"contracts/Histochain.sol\":66:895  contract Histochain {\r... */\n  dataSize(sub_0)\n  dup1\n  dataOffset(sub_0)\n  0x00\n  codecopy\n  0x00\n  return\nstop\n\nsub_0: assembly {\n        /* \"contracts/Histochain.sol\":66:895  contract Histochain {\r... */\n      mstore(0x40, 0x80)\n      jumpi(tag_1, lt(calldatasize, 0x04))\n      shr(0xe0, calldataload(0x00))\n      dup1\n      0x893d20e8\n      eq\n      tag_2\n      jumpi\n      dup1\n      0xaeb94c9d\n      eq\n      tag_3\n      jumpi\n      dup1\n      0xf0acd7d5\n      eq\n      tag_4\n      jumpi\n    tag_1:\n      0x00\n      dup1\n      revert\n        /* \"contracts/Histochain.sol\":343:426  function getOwner() external view returns(address) {\r... */\n    tag_2:\n      callvalue\n      dup1\n      iszero\n      tag_5\n      jumpi\n      0x00\n      dup1\n      revert\n    tag_5:\n      pop\n      tag_6\n      tag_7\n      jump\t// in\n    tag_6:\n      mload(0x40)\n      tag_8\n      swap2\n      swap1\n      tag_9\n      jump\t// in\n    tag_8:\n      mload(0x40)\n      dup1\n      swap2\n      sub\n      swap1\n      return\n        /* \"contracts/Histochain.sol\":434:529  function setTypePermission(string memory inputType) public {\r... */\n    tag_3:\n      callvalue\n      dup1\n      iszero\n      tag_10\n      jumpi\n      0x00\n      dup1\n      revert\n    tag_10:\n      pop\n      tag_11\n      0x04\n      dup1\n      calldatasize\n      sub\n      dup2\n      add\n      swap1\n      tag_12\n      swap2\n      swap1\n      tag_13\n      jump\t// in\n    tag_12:\n      tag_14\n      jump\t// in\n    tag_11:\n      stop\n        /* \"contracts/Histochain.sol\":537:892  function spin() external payable {\r... */\n    tag_4:\n      tag_15\n      tag_16\n      jump\t// in\n    tag_15:\n      stop\n        /* \"contracts/Histochain.sol\":343:426  function getOwner() external view returns(address) {\r... */\n    tag_7:\n        /* \"contracts/Histochain.sol\":385:392  address */\n      0x00\n        /* \"contracts/Histochain.sol\":412:418  _owner */\n      dup1\n      0x00\n      swap1\n      sload\n      swap1\n      0x0100\n      exp\n      swap1\n      div\n      0xffffffffffffffffffffffffffffffffffffffff\n      and\n        /* \"contracts/Histochain.sol\":405:418  return _owner */\n      swap1\n      pop\n        /* \"contracts/Histochain.sol\":343:426  function getOwner() external view returns(address) {\r... */\n      swap1\n      jump\t// out\n        /* \"contracts/Histochain.sol\":434:529  function setTypePermission(string memory inputType) public {\r... */\n    tag_14:\n        /* \"contracts/Histochain.sol\":512:521  inputType */\n      dup1\n        /* \"contracts/Histochain.sol\":504:509  _type */\n      0x01\n        /* \"contracts/Histochain.sol\":504:521  _type = inputType */\n      swap1\n      dup1\n      mload\n      swap1\n      0x20\n      add\n      swap1\n      tag_19\n      swap3\n      swap2\n      swap1\n      tag_20\n      jump\t// in\n    tag_19:\n      pop\n        /* \"contracts/Histochain.sol\":434:529  function setTypePermission(string memory inputType) public {\r... */\n      pop\n      jump\t// out\n        /* \"contracts/Histochain.sol\":537:892  function spin() external payable {\r... */\n    tag_16:\n        /* \"contracts/Histochain.sol\":602:609  5 ether */\n      0x4563918244f40000\n        /* \"contracts/Histochain.sol\":589:598  msg.value */\n      callvalue\n        /* \"contracts/Histochain.sol\":589:609  msg.value == 5 ether */\n      eq\n        /* \"contracts/Histochain.sol\":581:610  require(msg.value == 5 ether) */\n      tag_22\n      jumpi\n      0x00\n      dup1\n      revert\n    tag_22:\n        /* \"contracts/Histochain.sol\":648:658  _timestamp */\n      sload(0x02)\n        /* \"contracts/Histochain.sol\":629:644  block.timestamp */\n      timestamp\n        /* \"contracts/Histochain.sol\":629:658  block.timestamp != _timestamp */\n      eq\n      iszero\n        /* \"contracts/Histochain.sol\":621:659  require(block.timestamp != _timestamp) */\n      tag_23\n      jumpi\n      0x00\n      dup1\n      revert\n    tag_23:\n        /* \"contracts/Histochain.sol\":685:700  block.timestamp */\n      timestamp\n        /* \"contracts/Histochain.sol\":672:682  _timestamp */\n      0x02\n        /* \"contracts/Histochain.sol\":672:700  _timestamp = block.timestamp */\n      dup2\n      swap1\n      sstore\n      pop\n        /* \"contracts/Histochain.sol\":738:739  0 */\n      0x00\n        /* \"contracts/Histochain.sol\":733:734  7 */\n      0x07\n        /* \"contracts/Histochain.sol\":715:730  block.timestamp */\n      timestamp\n        /* \"contracts/Histochain.sol\":715:734  block.timestamp % 7 */\n      tag_24\n      swap2\n      swap1\n      tag_25\n      jump\t// in\n    tag_24:\n        /* \"contracts/Histochain.sol\":715:739  block.timestamp % 7 == 0 */\n      eq\n        /* \"contracts/Histochain.sol\":711:885  if (block.timestamp % 7 == 0) {\r... */\n      iszero\n      tag_26\n      jumpi\n        /* \"contracts/Histochain.sol\":757:766  bool sent */\n      0x00\n        /* \"contracts/Histochain.sol\":772:782  msg.sender */\n      caller\n        /* \"contracts/Histochain.sol\":772:787  msg.sender.call */\n      0xffffffffffffffffffffffffffffffffffffffff\n      and\n        /* \"contracts/Histochain.sol\":795:816  address(this).balance */\n      selfbalance\n        /* \"contracts/Histochain.sol\":772:821  msg.sender.call{value: address(this).balance}(\"\") */\n      mload(0x40)\n      tag_27\n      swap1\n      tag_28\n      jump\t// in\n    tag_27:\n      0x00\n      mload(0x40)\n      dup1\n      dup4\n      sub\n      dup2\n      dup6\n      dup8\n      gas\n      call\n      swap3\n      pop\n      pop\n      pop\n      returndatasize\n      dup1\n      0x00\n      dup2\n      eq\n      tag_31\n      jumpi\n      mload(0x40)\n      swap2\n      pop\n      and(add(returndatasize, 0x3f), not(0x1f))\n      dup3\n      add\n      0x40\n      mstore\n      returndatasize\n      dup3\n      mstore\n      returndatasize\n      0x00\n      0x20\n      dup5\n      add\n      returndatacopy\n      jump(tag_30)\n    tag_31:\n      0x60\n      swap2\n      pop\n    tag_30:\n      pop\n        /* \"contracts/Histochain.sol\":756:821  (bool sent, ) = msg.sender.call{value: address(this).balance}(\"\") */\n      pop\n      swap1\n      pop\n        /* \"contracts/Histochain.sol\":844:848  sent */\n      dup1\n        /* \"contracts/Histochain.sol\":836:873  require(sent, \"Failed to send Ether\") */\n      tag_32\n      jumpi\n      mload(0x40)\n      0x08c379a000000000000000000000000000000000000000000000000000000000\n      dup2\n      mstore\n      0x04\n      add\n      tag_33\n      swap1\n      tag_34\n      jump\t// in\n    tag_33:\n      mload(0x40)\n      dup1\n      swap2\n      sub\n      swap1\n      revert\n    tag_32:\n        /* \"contracts/Histochain.sol\":711:885  if (block.timestamp % 7 == 0) {\r... */\n      pop\n    tag_26:\n        /* \"contracts/Histochain.sol\":537:892  function spin() external payable {\r... */\n      jump\t// out\n    tag_20:\n      dup3\n      dup1\n      sload\n      tag_35\n      swap1\n      tag_36\n      jump\t// in\n    tag_35:\n      swap1\n      0x00\n      mstore\n      keccak256(0x00, 0x20)\n      swap1\n      0x1f\n      add\n      0x20\n      swap1\n      div\n      dup2\n      add\n      swap3\n      dup3\n      tag_38\n      jumpi\n      0x00\n      dup6\n      sstore\n      jump(tag_37)\n    tag_38:\n      dup3\n      0x1f\n      lt\n      tag_39\n      jumpi\n      dup1\n      mload\n      not(0xff)\n      and\n      dup4\n      dup1\n      add\n      or\n      dup6\n      sstore\n      jump(tag_37)\n    tag_39:\n      dup3\n      dup1\n      add\n      0x01\n      add\n      dup6\n      sstore\n      dup3\n      iszero\n      tag_37\n      jumpi\n      swap2\n      dup3\n      add\n    tag_40:\n      dup3\n      dup2\n      gt\n      iszero\n      tag_41\n      jumpi\n      dup3\n      mload\n      dup3\n      sstore\n      swap2\n      0x20\n      add\n      swap2\n      swap1\n      0x01\n      add\n      swap1\n      jump(tag_40)\n    tag_41:\n    tag_37:\n      pop\n      swap1\n      pop\n      tag_42\n      swap2\n      swap1\n      tag_43\n      jump\t// in\n    tag_42:\n      pop\n      swap1\n      jump\t// out\n    tag_43:\n    tag_44:\n      dup1\n      dup3\n      gt\n      iszero\n      tag_45\n      jumpi\n      0x00\n      dup2\n      0x00\n      swap1\n      sstore\n      pop\n      0x01\n      add\n      jump(tag_44)\n    tag_45:\n      pop\n      swap1\n      jump\t// out\n        /* \"#utility.yul\":7:352   */\n    tag_47:\n        /* \"#utility.yul\":85:90   */\n      0x00\n        /* \"#utility.yul\":110:176   */\n      tag_49\n        /* \"#utility.yul\":126:175   */\n      tag_50\n        /* \"#utility.yul\":168:174   */\n      dup5\n        /* \"#utility.yul\":126:175   */\n      tag_51\n      jump\t// in\n    tag_50:\n        /* \"#utility.yul\":110:176   */\n      tag_52\n      jump\t// in\n    tag_49:\n        /* \"#utility.yul\":101:176   */\n      swap1\n      pop\n        /* \"#utility.yul\":199:205   */\n      dup3\n        /* \"#utility.yul\":192:197   */\n      dup2\n        /* \"#utility.yul\":185:206   */\n      mstore\n        /* \"#utility.yul\":237:241   */\n      0x20\n        /* \"#utility.yul\":230:235   */\n      dup2\n        /* \"#utility.yul\":226:242   */\n      add\n        /* \"#utility.yul\":275:278   */\n      dup5\n        /* \"#utility.yul\":266:272   */\n      dup5\n        /* \"#utility.yul\":261:264   */\n      dup5\n        /* \"#utility.yul\":257:273   */\n      add\n        /* \"#utility.yul\":254:279   */\n      gt\n        /* \"#utility.yul\":251:253   */\n      iszero\n      tag_53\n      jumpi\n        /* \"#utility.yul\":292:293   */\n      0x00\n        /* \"#utility.yul\":289:290   */\n      dup1\n        /* \"#utility.yul\":282:294   */\n      revert\n        /* \"#utility.yul\":251:253   */\n    tag_53:\n        /* \"#utility.yul\":305:346   */\n      tag_54\n        /* \"#utility.yul\":339:345   */\n      dup5\n        /* \"#utility.yul\":334:337   */\n      dup3\n        /* \"#utility.yul\":329:332   */\n      dup6\n        /* \"#utility.yul\":305:346   */\n      tag_55\n      jump\t// in\n    tag_54:\n        /* \"#utility.yul\":91:352   */\n      pop\n      swap4\n      swap3\n      pop\n      pop\n      pop\n      jump\t// out\n        /* \"#utility.yul\":372:645   */\n    tag_56:\n        /* \"#utility.yul\":428:433   */\n      0x00\n        /* \"#utility.yul\":477:480   */\n      dup3\n        /* \"#utility.yul\":470:474   */\n      0x1f\n        /* \"#utility.yul\":462:468   */\n      dup4\n        /* \"#utility.yul\":458:475   */\n      add\n        /* \"#utility.yul\":454:481   */\n      slt\n        /* \"#utility.yul\":444:446   */\n      tag_58\n      jumpi\n        /* \"#utility.yul\":495:496   */\n      0x00\n        /* \"#utility.yul\":492:493   */\n      dup1\n        /* \"#utility.yul\":485:497   */\n      revert\n        /* \"#utility.yul\":444:446   */\n    tag_58:\n        /* \"#utility.yul\":535:541   */\n      dup2\n        /* \"#utility.yul\":522:542   */\n      calldataload\n        /* \"#utility.yul\":560:639   */\n      tag_59\n        /* \"#utility.yul\":635:638   */\n      dup5\n        /* \"#utility.yul\":627:633   */\n      dup3\n        /* \"#utility.yul\":620:624   */\n      0x20\n        /* \"#utility.yul\":612:618   */\n      dup7\n        /* \"#utility.yul\":608:625   */\n      add\n        /* \"#utility.yul\":560:639   */\n      tag_47\n      jump\t// in\n    tag_59:\n        /* \"#utility.yul\":551:639   */\n      swap2\n      pop\n        /* \"#utility.yul\":434:645   */\n      pop\n      swap3\n      swap2\n      pop\n      pop\n      jump\t// out\n        /* \"#utility.yul\":651:1026   */\n    tag_13:\n        /* \"#utility.yul\":720:726   */\n      0x00\n        /* \"#utility.yul\":769:771   */\n      0x20\n        /* \"#utility.yul\":757:766   */\n      dup3\n        /* \"#utility.yul\":748:755   */\n      dup5\n        /* \"#utility.yul\":744:767   */\n      sub\n        /* \"#utility.yul\":740:772   */\n      slt\n        /* \"#utility.yul\":737:739   */\n      iszero\n      tag_61\n      jumpi\n        /* \"#utility.yul\":785:786   */\n      0x00\n        /* \"#utility.yul\":782:783   */\n      dup1\n        /* \"#utility.yul\":775:787   */\n      revert\n        /* \"#utility.yul\":737:739   */\n    tag_61:\n        /* \"#utility.yul\":856:857   */\n      0x00\n        /* \"#utility.yul\":845:854   */\n      dup3\n        /* \"#utility.yul\":841:858   */\n      add\n        /* \"#utility.yul\":828:859   */\n      calldataload\n        /* \"#utility.yul\":886:904   */\n      0xffffffffffffffff\n        /* \"#utility.yul\":878:884   */\n      dup2\n        /* \"#utility.yul\":875:905   */\n      gt\n        /* \"#utility.yul\":872:874   */\n      iszero\n      tag_62\n      jumpi\n        /* \"#utility.yul\":918:919   */\n      0x00\n        /* \"#utility.yul\":915:916   */\n      dup1\n        /* \"#utility.yul\":908:920   */\n      revert\n        /* \"#utility.yul\":872:874   */\n    tag_62:\n        /* \"#utility.yul\":946:1009   */\n      tag_63\n        /* \"#utility.yul\":1001:1008   */\n      dup5\n        /* \"#utility.yul\":992:998   */\n      dup3\n        /* \"#utility.yul\":981:990   */\n      dup6\n        /* \"#utility.yul\":977:999   */\n      add\n        /* \"#utility.yul\":946:1009   */\n      tag_56\n      jump\t// in\n    tag_63:\n        /* \"#utility.yul\":936:1009   */\n      swap2\n      pop\n        /* \"#utility.yul\":799:1019   */\n      pop\n        /* \"#utility.yul\":727:1026   */\n      swap3\n      swap2\n      pop\n      pop\n      jump\t// out\n        /* \"#utility.yul\":1032:1150   */\n    tag_64:\n        /* \"#utility.yul\":1119:1143   */\n      tag_66\n        /* \"#utility.yul\":1137:1142   */\n      dup2\n        /* \"#utility.yul\":1119:1143   */\n      tag_67\n      jump\t// in\n    tag_66:\n        /* \"#utility.yul\":1114:1117   */\n      dup3\n        /* \"#utility.yul\":1107:1144   */\n      mstore\n        /* \"#utility.yul\":1097:1150   */\n      pop\n      pop\n      jump\t// out\n        /* \"#utility.yul\":1156:1522   */\n    tag_68:\n        /* \"#utility.yul\":1298:1301   */\n      0x00\n        /* \"#utility.yul\":1319:1386   */\n      tag_70\n        /* \"#utility.yul\":1383:1385   */\n      0x14\n        /* \"#utility.yul\":1378:1381   */\n      dup4\n        /* \"#utility.yul\":1319:1386   */\n      tag_71\n      jump\t// in\n    tag_70:\n        /* \"#utility.yul\":1312:1386   */\n      swap2\n      pop\n        /* \"#utility.yul\":1395:1488   */\n      tag_72\n        /* \"#utility.yul\":1484:1487   */\n      dup3\n        /* \"#utility.yul\":1395:1488   */\n      tag_73\n      jump\t// in\n    tag_72:\n        /* \"#utility.yul\":1513:1515   */\n      0x20\n        /* \"#utility.yul\":1508:1511   */\n      dup3\n        /* \"#utility.yul\":1504:1516   */\n      add\n        /* \"#utility.yul\":1497:1516   */\n      swap1\n      pop\n        /* \"#utility.yul\":1302:1522   */\n      swap2\n      swap1\n      pop\n      jump\t// out\n        /* \"#utility.yul\":1528:1926   */\n    tag_74:\n        /* \"#utility.yul\":1687:1690   */\n      0x00\n        /* \"#utility.yul\":1708:1791   */\n      tag_76\n        /* \"#utility.yul\":1789:1790   */\n      0x00\n        /* \"#utility.yul\":1784:1787   */\n      dup4\n        /* \"#utility.yul\":1708:1791   */\n      tag_77\n      jump\t// in\n    tag_76:\n        /* \"#utility.yul\":1701:1791   */\n      swap2\n      pop\n        /* \"#utility.yul\":1800:1893   */\n      tag_78\n        /* \"#utility.yul\":1889:1892   */\n      dup3\n        /* \"#utility.yul\":1800:1893   */\n      tag_79\n      jump\t// in\n    tag_78:\n        /* \"#utility.yul\":1918:1919   */\n      0x00\n        /* \"#utility.yul\":1913:1916   */\n      dup3\n        /* \"#utility.yul\":1909:1920   */\n      add\n        /* \"#utility.yul\":1902:1920   */\n      swap1\n      pop\n        /* \"#utility.yul\":1691:1926   */\n      swap2\n      swap1\n      pop\n      jump\t// out\n        /* \"#utility.yul\":1932:2311   */\n    tag_28:\n        /* \"#utility.yul\":2116:2119   */\n      0x00\n        /* \"#utility.yul\":2138:2285   */\n      tag_81\n        /* \"#utility.yul\":2281:2284   */\n      dup3\n        /* \"#utility.yul\":2138:2285   */\n      tag_74\n      jump\t// in\n    tag_81:\n        /* \"#utility.yul\":2131:2285   */\n      swap2\n      pop\n        /* \"#utility.yul\":2302:2305   */\n      dup2\n        /* \"#utility.yul\":2295:2305   */\n      swap1\n      pop\n        /* \"#utility.yul\":2120:2311   */\n      swap2\n      swap1\n      pop\n      jump\t// out\n        /* \"#utility.yul\":2317:2539   */\n    tag_9:\n        /* \"#utility.yul\":2410:2414   */\n      0x00\n        /* \"#utility.yul\":2448:2450   */\n      0x20\n        /* \"#utility.yul\":2437:2446   */\n      dup3\n        /* \"#utility.yul\":2433:2451   */\n      add\n        /* \"#utility.yul\":2425:2451   */\n      swap1\n      pop\n        /* \"#utility.yul\":2461:2532   */\n      tag_83\n        /* \"#utility.yul\":2529:2530   */\n      0x00\n        /* \"#utility.yul\":2518:2527   */\n      dup4\n        /* \"#utility.yul\":2514:2531   */\n      add\n        /* \"#utility.yul\":2505:2511   */\n      dup5\n        /* \"#utility.yul\":2461:2532   */\n      tag_64\n      jump\t// in\n    tag_83:\n        /* \"#utility.yul\":2415:2539   */\n      swap3\n      swap2\n      pop\n      pop\n      jump\t// out\n        /* \"#utility.yul\":2545:2964   */\n    tag_34:\n        /* \"#utility.yul\":2711:2715   */\n      0x00\n        /* \"#utility.yul\":2749:2751   */\n      0x20\n        /* \"#utility.yul\":2738:2747   */\n      dup3\n        /* \"#utility.yul\":2734:2752   */\n      add\n        /* \"#utility.yul\":2726:2752   */\n      swap1\n      pop\n        /* \"#utility.yul\":2798:2807   */\n      dup2\n        /* \"#utility.yul\":2792:2796   */\n      dup2\n        /* \"#utility.yul\":2788:2808   */\n      sub\n        /* \"#utility.yul\":2784:2785   */\n      0x00\n        /* \"#utility.yul\":2773:2782   */\n      dup4\n        /* \"#utility.yul\":2769:2786   */\n      add\n        /* \"#utility.yul\":2762:2809   */\n      mstore\n        /* \"#utility.yul\":2826:2957   */\n      tag_85\n        /* \"#utility.yul\":2952:2956   */\n      dup2\n        /* \"#utility.yul\":2826:2957   */\n      tag_68\n      jump\t// in\n    tag_85:\n        /* \"#utility.yul\":2818:2957   */\n      swap1\n      pop\n        /* \"#utility.yul\":2716:2964   */\n      swap2\n      swap1\n      pop\n      jump\t// out\n        /* \"#utility.yul\":2970:3099   */\n    tag_52:\n        /* \"#utility.yul\":3004:3010   */\n      0x00\n        /* \"#utility.yul\":3031:3051   */\n      tag_87\n      tag_88\n      jump\t// in\n    tag_87:\n        /* \"#utility.yul\":3021:3051   */\n      swap1\n      pop\n        /* \"#utility.yul\":3060:3093   */\n      tag_89\n        /* \"#utility.yul\":3088:3092   */\n      dup3\n        /* \"#utility.yul\":3080:3086   */\n      dup3\n        /* \"#utility.yul\":3060:3093   */\n      tag_90\n      jump\t// in\n    tag_89:\n        /* \"#utility.yul\":3011:3099   */\n      swap2\n      swap1\n      pop\n      jump\t// out\n        /* \"#utility.yul\":3105:3180   */\n    tag_88:\n        /* \"#utility.yul\":3138:3144   */\n      0x00\n        /* \"#utility.yul\":3171:3173   */\n      0x40\n        /* \"#utility.yul\":3165:3174   */\n      mload\n        /* \"#utility.yul\":3155:3174   */\n      swap1\n      pop\n        /* \"#utility.yul\":3145:3180   */\n      swap1\n      jump\t// out\n        /* \"#utility.yul\":3186:3494   */\n    tag_51:\n        /* \"#utility.yul\":3248:3252   */\n      0x00\n        /* \"#utility.yul\":3338:3356   */\n      0xffffffffffffffff\n        /* \"#utility.yul\":3330:3336   */\n      dup3\n        /* \"#utility.yul\":3327:3357   */\n      gt\n        /* \"#utility.yul\":3324:3326   */\n      iszero\n      tag_93\n      jumpi\n        /* \"#utility.yul\":3360:3378   */\n      tag_94\n      tag_95\n      jump\t// in\n    tag_94:\n        /* \"#utility.yul\":3324:3326   */\n    tag_93:\n        /* \"#utility.yul\":3398:3427   */\n      tag_96\n        /* \"#utility.yul\":3420:3426   */\n      dup3\n        /* \"#utility.yul\":3398:3427   */\n      tag_97\n      jump\t// in\n    tag_96:\n        /* \"#utility.yul\":3390:3427   */\n      swap1\n      pop\n        /* \"#utility.yul\":3482:3486   */\n      0x20\n        /* \"#utility.yul\":3476:3480   */\n      dup2\n        /* \"#utility.yul\":3472:3487   */\n      add\n        /* \"#utility.yul\":3464:3487   */\n      swap1\n      pop\n        /* \"#utility.yul\":3253:3494   */\n      swap2\n      swap1\n      pop\n      jump\t// out\n        /* \"#utility.yul\":3500:3647   */\n    tag_77:\n        /* \"#utility.yul\":3601:3612   */\n      0x00\n        /* \"#utility.yul\":3638:3641   */\n      dup2\n        /* \"#utility.yul\":3623:3641   */\n      swap1\n      pop\n        /* \"#utility.yul\":3613:3647   */\n      swap3\n      swap2\n      pop\n      pop\n      jump\t// out\n        /* \"#utility.yul\":3653:3822   */\n    tag_71:\n        /* \"#utility.yul\":3737:3748   */\n      0x00\n        /* \"#utility.yul\":3771:3777   */\n      dup3\n        /* \"#utility.yul\":3766:3769   */\n      dup3\n        /* \"#utility.yul\":3759:3778   */\n      mstore\n        /* \"#utility.yul\":3811:3815   */\n      0x20\n        /* \"#utility.yul\":3806:3809   */\n      dup3\n        /* \"#utility.yul\":3802:3816   */\n      add\n        /* \"#utility.yul\":3787:3816   */\n      swap1\n      pop\n        /* \"#utility.yul\":3749:3822   */\n      swap3\n      swap2\n      pop\n      pop\n      jump\t// out\n        /* \"#utility.yul\":3828:3924   */\n    tag_67:\n        /* \"#utility.yul\":3865:3872   */\n      0x00\n        /* \"#utility.yul\":3894:3918   */\n      tag_101\n        /* \"#utility.yul\":3912:3917   */\n      dup3\n        /* \"#utility.yul\":3894:3918   */\n      tag_102\n      jump\t// in\n    tag_101:\n        /* \"#utility.yul\":3883:3918   */\n      swap1\n      pop\n        /* \"#utility.yul\":3873:3924   */\n      swap2\n      swap1\n      pop\n      jump\t// out\n        /* \"#utility.yul\":3930:4056   */\n    tag_102:\n        /* \"#utility.yul\":3967:3974   */\n      0x00\n        /* \"#utility.yul\":4007:4049   */\n      0xffffffffffffffffffffffffffffffffffffffff\n        /* \"#utility.yul\":4000:4005   */\n      dup3\n        /* \"#utility.yul\":3996:4050   */\n      and\n        /* \"#utility.yul\":3985:4050   */\n      swap1\n      pop\n        /* \"#utility.yul\":3975:4056   */\n      swap2\n      swap1\n      pop\n      jump\t// out\n        /* \"#utility.yul\":4062:4139   */\n    tag_104:\n        /* \"#utility.yul\":4099:4106   */\n      0x00\n        /* \"#utility.yul\":4128:4133   */\n      dup2\n        /* \"#utility.yul\":4117:4133   */\n      swap1\n      pop\n        /* \"#utility.yul\":4107:4139   */\n      swap2\n      swap1\n      pop\n      jump\t// out\n        /* \"#utility.yul\":4145:4299   */\n    tag_55:\n        /* \"#utility.yul\":4229:4235   */\n      dup3\n        /* \"#utility.yul\":4224:4227   */\n      dup2\n        /* \"#utility.yul\":4219:4222   */\n      dup4\n        /* \"#utility.yul\":4206:4236   */\n      calldatacopy\n        /* \"#utility.yul\":4291:4292   */\n      0x00\n        /* \"#utility.yul\":4282:4288   */\n      dup4\n        /* \"#utility.yul\":4277:4280   */\n      dup4\n        /* \"#utility.yul\":4273:4289   */\n      add\n        /* \"#utility.yul\":4266:4293   */\n      mstore\n        /* \"#utility.yul\":4196:4299   */\n      pop\n      pop\n      pop\n      jump\t// out\n        /* \"#utility.yul\":4305:4625   */\n    tag_36:\n        /* \"#utility.yul\":4349:4355   */\n      0x00\n        /* \"#utility.yul\":4386:4387   */\n      0x02\n        /* \"#utility.yul\":4380:4384   */\n      dup3\n        /* \"#utility.yul\":4376:4388   */\n      div\n        /* \"#utility.yul\":4366:4388   */\n      swap1\n      pop\n        /* \"#utility.yul\":4433:4434   */\n      0x01\n        /* \"#utility.yul\":4427:4431   */\n      dup3\n        /* \"#utility.yul\":4423:4435   */\n      and\n        /* \"#utility.yul\":4454:4472   */\n      dup1\n        /* \"#utility.yul\":4444:4446   */\n      tag_108\n      jumpi\n        /* \"#utility.yul\":4510:4514   */\n      0x7f\n        /* \"#utility.yul\":4502:4508   */\n      dup3\n        /* \"#utility.yul\":4498:4515   */\n      and\n        /* \"#utility.yul\":4488:4515   */\n      swap2\n      pop\n        /* \"#utility.yul\":4444:4446   */\n    tag_108:\n        /* \"#utility.yul\":4572:4574   */\n      0x20\n        /* \"#utility.yul\":4564:4570   */\n      dup3\n        /* \"#utility.yul\":4561:4575   */\n      lt\n        /* \"#utility.yul\":4541:4559   */\n      dup2\n        /* \"#utility.yul\":4538:4576   */\n      eq\n        /* \"#utility.yul\":4535:4537   */\n      iszero\n      tag_109\n      jumpi\n        /* \"#utility.yul\":4591:4609   */\n      tag_110\n      tag_111\n      jump\t// in\n    tag_110:\n        /* \"#utility.yul\":4535:4537   */\n    tag_109:\n        /* \"#utility.yul\":4356:4625   */\n      pop\n      swap2\n      swap1\n      pop\n      jump\t// out\n        /* \"#utility.yul\":4631:4912   */\n    tag_90:\n        /* \"#utility.yul\":4714:4741   */\n      tag_113\n        /* \"#utility.yul\":4736:4740   */\n      dup3\n        /* \"#utility.yul\":4714:4741   */\n      tag_97\n      jump\t// in\n    tag_113:\n        /* \"#utility.yul\":4706:4712   */\n      dup2\n        /* \"#utility.yul\":4702:4742   */\n      add\n        /* \"#utility.yul\":4844:4850   */\n      dup2\n        /* \"#utility.yul\":4832:4842   */\n      dup2\n        /* \"#utility.yul\":4829:4851   */\n      lt\n        /* \"#utility.yul\":4808:4826   */\n      0xffffffffffffffff\n        /* \"#utility.yul\":4796:4806   */\n      dup3\n        /* \"#utility.yul\":4793:4827   */\n      gt\n        /* \"#utility.yul\":4790:4852   */\n      or\n        /* \"#utility.yul\":4787:4789   */\n      iszero\n      tag_114\n      jumpi\n        /* \"#utility.yul\":4855:4873   */\n      tag_115\n      tag_95\n      jump\t// in\n    tag_115:\n        /* \"#utility.yul\":4787:4789   */\n    tag_114:\n        /* \"#utility.yul\":4895:4905   */\n      dup1\n        /* \"#utility.yul\":4891:4893   */\n      0x40\n        /* \"#utility.yul\":4884:4906   */\n      mstore\n        /* \"#utility.yul\":4674:4912   */\n      pop\n      pop\n      pop\n      jump\t// out\n        /* \"#utility.yul\":4918:5094   */\n    tag_25:\n        /* \"#utility.yul\":4950:4951   */\n      0x00\n        /* \"#utility.yul\":4967:4987   */\n      tag_117\n        /* \"#utility.yul\":4985:4986   */\n      dup3\n        /* \"#utility.yul\":4967:4987   */\n      tag_104\n      jump\t// in\n    tag_117:\n        /* \"#utility.yul\":4962:4987   */\n      swap2\n      pop\n        /* \"#utility.yul\":5001:5021   */\n      tag_118\n        /* \"#utility.yul\":5019:5020   */\n      dup4\n        /* \"#utility.yul\":5001:5021   */\n      tag_104\n      jump\t// in\n    tag_118:\n        /* \"#utility.yul\":4996:5021   */\n      swap3\n      pop\n        /* \"#utility.yul\":5040:5041   */\n      dup3\n        /* \"#utility.yul\":5030:5032   */\n      tag_119\n      jumpi\n        /* \"#utility.yul\":5045:5063   */\n      tag_120\n      tag_121\n      jump\t// in\n    tag_120:\n        /* \"#utility.yul\":5030:5032   */\n    tag_119:\n        /* \"#utility.yul\":5086:5087   */\n      dup3\n        /* \"#utility.yul\":5083:5084   */\n      dup3\n        /* \"#utility.yul\":5079:5088   */\n      mod\n        /* \"#utility.yul\":5074:5088   */\n      swap1\n      pop\n        /* \"#utility.yul\":4952:5094   */\n      swap3\n      swap2\n      pop\n      pop\n      jump\t// out\n        /* \"#utility.yul\":5100:5280   */\n    tag_121:\n        /* \"#utility.yul\":5148:5225   */\n      0x4e487b7100000000000000000000000000000000000000000000000000000000\n        /* \"#utility.yul\":5145:5146   */\n      0x00\n        /* \"#utility.yul\":5138:5226   */\n      mstore\n        /* \"#utility.yul\":5245:5249   */\n      0x12\n        /* \"#utility.yul\":5242:5243   */\n      0x04\n        /* \"#utility.yul\":5235:5250   */\n      mstore\n        /* \"#utility.yul\":5269:5273   */\n      0x24\n        /* \"#utility.yul\":5266:5267   */\n      0x00\n        /* \"#utility.yul\":5259:5274   */\n      revert\n        /* \"#utility.yul\":5286:5466   */\n    tag_111:\n        /* \"#utility.yul\":5334:5411   */\n      0x4e487b7100000000000000000000000000000000000000000000000000000000\n        /* \"#utility.yul\":5331:5332   */\n      0x00\n        /* \"#utility.yul\":5324:5412   */\n      mstore\n        /* \"#utility.yul\":5431:5435   */\n      0x22\n        /* \"#utility.yul\":5428:5429   */\n      0x04\n        /* \"#utility.yul\":5421:5436   */\n      mstore\n        /* \"#utility.yul\":5455:5459   */\n      0x24\n        /* \"#utility.yul\":5452:5453   */\n      0x00\n        /* \"#utility.yul\":5445:5460   */\n      revert\n        /* \"#utility.yul\":5472:5652   */\n    tag_95:\n        /* \"#utility.yul\":5520:5597   */\n      0x4e487b7100000000000000000000000000000000000000000000000000000000\n        /* \"#utility.yul\":5517:5518   */\n      0x00\n        /* \"#utility.yul\":5510:5598   */\n      mstore\n        /* \"#utility.yul\":5617:5621   */\n      0x41\n        /* \"#utility.yul\":5614:5615   */\n      0x04\n        /* \"#utility.yul\":5607:5622   */\n      mstore\n        /* \"#utility.yul\":5641:5645   */\n      0x24\n        /* \"#utility.yul\":5638:5639   */\n      0x00\n        /* \"#utility.yul\":5631:5646   */\n      revert\n        /* \"#utility.yul\":5658:5760   */\n    tag_97:\n        /* \"#utility.yul\":5699:5705   */\n      0x00\n        /* \"#utility.yul\":5750:5752   */\n      0x1f\n        /* \"#utility.yul\":5746:5753   */\n      not\n        /* \"#utility.yul\":5741:5743   */\n      0x1f\n        /* \"#utility.yul\":5734:5739   */\n      dup4\n        /* \"#utility.yul\":5730:5744   */\n      add\n        /* \"#utility.yul\":5726:5754   */\n      and\n        /* \"#utility.yul\":5716:5754   */\n      swap1\n      pop\n        /* \"#utility.yul\":5706:5760   */\n      swap2\n      swap1\n      pop\n      jump\t// out\n        /* \"#utility.yul\":5766:5936   */\n    tag_73:\n        /* \"#utility.yul\":5906:5928   */\n      0x4661696c656420746f2073656e64204574686572000000000000000000000000\n        /* \"#utility.yul\":5902:5903   */\n      0x00\n        /* \"#utility.yul\":5894:5900   */\n      dup3\n        /* \"#utility.yul\":5890:5904   */\n      add\n        /* \"#utility.yul\":5883:5929   */\n      mstore\n        /* \"#utility.yul\":5872:5936   */\n      pop\n      jump\t// out\n        /* \"#utility.yul\":5942:6056   */\n    tag_79:\n        /* \"#utility.yul\":6048:6056   */\n      pop\n      jump\t// out\n\n    auxdata: 0xa26469706673582212206ba4673b21047bd088b0653b522e041fedf1bcf0690d1112c0fba5c3889fac0964736f6c63430008040033\n}\n",
				"bytecode": {
					"linkReferences": {},
					"object": "608060405234801561001057600080fd5b50336000806101000a81548173ffffffffffffffffffffffffffffffffffffffff021916908373ffffffffffffffffffffffffffffffffffffffff16021790555061060b806100606000396000f3fe6080604052600436106100345760003560e01c8063893d20e814610039578063aeb94c9d14610064578063f0acd7d51461008d575b600080fd5b34801561004557600080fd5b5061004e610097565b60405161005b919061037f565b60405180910390f35b34801561007057600080fd5b5061008b600480360381019061008691906102d4565b6100c0565b005b6100956100da565b005b60008060009054906101000a900473ffffffffffffffffffffffffffffffffffffffff16905090565b80600190805190602001906100d69291906101c9565b5050565b674563918244f4000034146100ee57600080fd5b6002544214156100fd57600080fd5b42600281905550600060074261011391906104da565b14156101c75760003373ffffffffffffffffffffffffffffffffffffffff164760405161013f9061036a565b60006040518083038185875af1925050503d806000811461017c576040519150601f19603f3d011682016040523d82523d6000602084013e610181565b606091505b50509050806101c5576040517f08c379a00000000000000000000000000000000000000000000000000000000081526004016101bc9061039a565b60405180910390fd5b505b565b8280546101d590610477565b90600052602060002090601f0160209004810192826101f7576000855561023e565b82601f1061021057805160ff191683800117855561023e565b8280016001018555821561023e579182015b8281111561023d578251825591602001919060010190610222565b5b50905061024b919061024f565b5090565b5b80821115610268576000816000905550600101610250565b5090565b600061027f61027a846103df565b6103ba565b90508281526020810184848401111561029757600080fd5b6102a2848285610468565b509392505050565b600082601f8301126102bb57600080fd5b81356102cb84826020860161026c565b91505092915050565b6000602082840312156102e657600080fd5b600082013567ffffffffffffffff81111561030057600080fd5b61030c848285016102aa565b91505092915050565b61031e8161042c565b82525050565b600061033160148361041b565b915061033c826105a9565b602082019050919050565b6000610354600083610410565b915061035f826105d2565b600082019050919050565b600061037582610347565b9150819050919050565b60006020820190506103946000830184610315565b92915050565b600060208201905081810360008301526103b381610324565b9050919050565b60006103c46103d5565b90506103d082826104a9565b919050565b6000604051905090565b600067ffffffffffffffff8211156103fa576103f9610569565b5b61040382610598565b9050602081019050919050565b600081905092915050565b600082825260208201905092915050565b60006104378261043e565b9050919050565b600073ffffffffffffffffffffffffffffffffffffffff82169050919050565b6000819050919050565b82818337600083830152505050565b6000600282049050600182168061048f57607f821691505b602082108114156104a3576104a261053a565b5b50919050565b6104b282610598565b810181811067ffffffffffffffff821117156104d1576104d0610569565b5b80604052505050565b60006104e58261045e565b91506104f08361045e565b925082610500576104ff61050b565b5b828206905092915050565b7f4e487b7100000000000000000000000000000000000000000000000000000000600052601260045260246000fd5b7f4e487b7100000000000000000000000000000000000000000000000000000000600052602260045260246000fd5b7f4e487b7100000000000000000000000000000000000000000000000000000000600052604160045260246000fd5b6000601f19601f8301169050919050565b7f4661696c656420746f2073656e64204574686572000000000000000000000000600082015250565b5056fea26469706673582212206ba4673b21047bd088b0653b522e041fedf1bcf0690d1112c0fba5c3889fac0964736f6c63430008040033",
					"opcodes": "PUSH1 0x80 PUSH1 0x40 MSTORE CALLVALUE DUP1 ISZERO PUSH2 0x10 JUMPI PUSH1 0x0 DUP1 REVERT JUMPDEST POP CALLER PUSH1 0x0 DUP1 PUSH2 0x100 EXP DUP2 SLOAD DUP2 PUSH20 0xFFFFFFFFFFFFFFFFFFFFFFFFFFFFFFFFFFFFFFFF MUL NOT AND SWAP1 DUP4 PUSH20 0xFFFFFFFFFFFFFFFFFFFFFFFFFFFFFFFFFFFFFFFF AND MUL OR SWAP1 SSTORE POP PUSH2 0x60B DUP1 PUSH2 0x60 PUSH1 0x0 CODECOPY PUSH1 0x0 RETURN INVALID PUSH1 0x80 PUSH1 0x40 MSTORE PUSH1 0x4 CALLDATASIZE LT PUSH2 0x34 JUMPI PUSH1 0x0 CALLDATALOAD PUSH1 0xE0 SHR DUP1 PUSH4 0x893D20E8 EQ PUSH2 0x39 JUMPI DUP1 PUSH4 0xAEB94C9D EQ PUSH2 0x64 JUMPI DUP1 PUSH4 0xF0ACD7D5 EQ PUSH2 0x8D JUMPI JUMPDEST PUSH1 0x0 DUP1 REVERT JUMPDEST CALLVALUE DUP1 ISZERO PUSH2 0x45 JUMPI PUSH1 0x0 DUP1 REVERT JUMPDEST POP PUSH2 0x4E PUSH2 0x97 JUMP JUMPDEST PUSH1 0x40 MLOAD PUSH2 0x5B SWAP2 SWAP1 PUSH2 0x37F JUMP JUMPDEST PUSH1 0x40 MLOAD DUP1 SWAP2 SUB SWAP1 RETURN JUMPDEST CALLVALUE DUP1 ISZERO PUSH2 0x70 JUMPI PUSH1 0x0 DUP1 REVERT JUMPDEST POP PUSH2 0x8B PUSH1 0x4 DUP1 CALLDATASIZE SUB DUP2 ADD SWAP1 PUSH2 0x86 SWAP2 SWAP1 PUSH2 0x2D4 JUMP JUMPDEST PUSH2 0xC0 JUMP JUMPDEST STOP JUMPDEST PUSH2 0x95 PUSH2 0xDA JUMP JUMPDEST STOP JUMPDEST PUSH1 0x0 DUP1 PUSH1 0x0 SWAP1 SLOAD SWAP1 PUSH2 0x100 EXP SWAP1 DIV PUSH20 0xFFFFFFFFFFFFFFFFFFFFFFFFFFFFFFFFFFFFFFFF AND SWAP1 POP SWAP1 JUMP JUMPDEST DUP1 PUSH1 0x1 SWAP1 DUP1 MLOAD SWAP1 PUSH1 0x20 ADD SWAP1 PUSH2 0xD6 SWAP3 SWAP2 SWAP1 PUSH2 0x1C9 JUMP JUMPDEST POP POP JUMP JUMPDEST PUSH8 0x4563918244F40000 CALLVALUE EQ PUSH2 0xEE JUMPI PUSH1 0x0 DUP1 REVERT JUMPDEST PUSH1 0x2 SLOAD TIMESTAMP EQ ISZERO PUSH2 0xFD JUMPI PUSH1 0x0 DUP1 REVERT JUMPDEST TIMESTAMP PUSH1 0x2 DUP2 SWAP1 SSTORE POP PUSH1 0x0 PUSH1 0x7 TIMESTAMP PUSH2 0x113 SWAP2 SWAP1 PUSH2 0x4DA JUMP JUMPDEST EQ ISZERO PUSH2 0x1C7 JUMPI PUSH1 0x0 CALLER PUSH20 0xFFFFFFFFFFFFFFFFFFFFFFFFFFFFFFFFFFFFFFFF AND SELFBALANCE PUSH1 0x40 MLOAD PUSH2 0x13F SWAP1 PUSH2 0x36A JUMP JUMPDEST PUSH1 0x0 PUSH1 0x40 MLOAD DUP1 DUP4 SUB DUP2 DUP6 DUP8 GAS CALL SWAP3 POP POP POP RETURNDATASIZE DUP1 PUSH1 0x0 DUP2 EQ PUSH2 0x17C JUMPI PUSH1 0x40 MLOAD SWAP2 POP PUSH1 0x1F NOT PUSH1 0x3F RETURNDATASIZE ADD AND DUP3 ADD PUSH1 0x40 MSTORE RETURNDATASIZE DUP3 MSTORE RETURNDATASIZE PUSH1 0x0 PUSH1 0x20 DUP5 ADD RETURNDATACOPY PUSH2 0x181 JUMP JUMPDEST PUSH1 0x60 SWAP2 POP JUMPDEST POP POP SWAP1 POP DUP1 PUSH2 0x1C5 JUMPI PUSH1 0x40 MLOAD PUSH32 0x8C379A000000000000000000000000000000000000000000000000000000000 DUP2 MSTORE PUSH1 0x4 ADD PUSH2 0x1BC SWAP1 PUSH2 0x39A JUMP JUMPDEST PUSH1 0x40 MLOAD DUP1 SWAP2 SUB SWAP1 REVERT JUMPDEST POP JUMPDEST JUMP JUMPDEST DUP3 DUP1 SLOAD PUSH2 0x1D5 SWAP1 PUSH2 0x477 JUMP JUMPDEST SWAP1 PUSH1 0x0 MSTORE PUSH1 0x20 PUSH1 0x0 KECCAK256 SWAP1 PUSH1 0x1F ADD PUSH1 0x20 SWAP1 DIV DUP2 ADD SWAP3 DUP3 PUSH2 0x1F7 JUMPI PUSH1 0x0 DUP6 SSTORE PUSH2 0x23E JUMP JUMPDEST DUP3 PUSH1 0x1F LT PUSH2 0x210 JUMPI DUP1 MLOAD PUSH1 0xFF NOT AND DUP4 DUP1 ADD OR DUP6 SSTORE PUSH2 0x23E JUMP JUMPDEST DUP3 DUP1 ADD PUSH1 0x1 ADD DUP6 SSTORE DUP3 ISZERO PUSH2 0x23E JUMPI SWAP2 DUP3 ADD JUMPDEST DUP3 DUP2 GT ISZERO PUSH2 0x23D JUMPI DUP3 MLOAD DUP3 SSTORE SWAP2 PUSH1 0x20 ADD SWAP2 SWAP1 PUSH1 0x1 ADD SWAP1 PUSH2 0x222 JUMP JUMPDEST JUMPDEST POP SWAP1 POP PUSH2 0x24B SWAP2 SWAP1 PUSH2 0x24F JUMP JUMPDEST POP SWAP1 JUMP JUMPDEST JUMPDEST DUP1 DUP3 GT ISZERO PUSH2 0x268 JUMPI PUSH1 0x0 DUP2 PUSH1 0x0 SWAP1 SSTORE POP PUSH1 0x1 ADD PUSH2 0x250 JUMP JUMPDEST POP SWAP1 JUMP JUMPDEST PUSH1 0x0 PUSH2 0x27F PUSH2 0x27A DUP5 PUSH2 0x3DF JUMP JUMPDEST PUSH2 0x3BA JUMP JUMPDEST SWAP1 POP DUP3 DUP2 MSTORE PUSH1 0x20 DUP2 ADD DUP5 DUP5 DUP5 ADD GT ISZERO PUSH2 0x297 JUMPI PUSH1 0x0 DUP1 REVERT JUMPDEST PUSH2 0x2A2 DUP5 DUP3 DUP6 PUSH2 0x468 JUMP JUMPDEST POP SWAP4 SWAP3 POP POP POP JUMP JUMPDEST PUSH1 0x0 DUP3 PUSH1 0x1F DUP4 ADD SLT PUSH2 0x2BB JUMPI PUSH1 0x0 DUP1 REVERT JUMPDEST DUP2 CALLDATALOAD PUSH2 0x2CB DUP5 DUP3 PUSH1 0x20 DUP7 ADD PUSH2 0x26C JUMP JUMPDEST SWAP2 POP POP SWAP3 SWAP2 POP POP JUMP JUMPDEST PUSH1 0x0 PUSH1 0x20 DUP3 DUP5 SUB SLT ISZERO PUSH2 0x2E6 JUMPI PUSH1 0x0 DUP1 REVERT JUMPDEST PUSH1 0x0 DUP3 ADD CALLDATALOAD PUSH8 0xFFFFFFFFFFFFFFFF DUP2 GT ISZERO PUSH2 0x300 JUMPI PUSH1 0x0 DUP1 REVERT JUMPDEST PUSH2 0x30C DUP5 DUP3 DUP6 ADD PUSH2 0x2AA JUMP JUMPDEST SWAP2 POP POP SWAP3 SWAP2 POP POP JUMP JUMPDEST PUSH2 0x31E DUP2 PUSH2 0x42C JUMP JUMPDEST DUP3 MSTORE POP POP JUMP JUMPDEST PUSH1 0x0 PUSH2 0x331 PUSH1 0x14 DUP4 PUSH2 0x41B JUMP JUMPDEST SWAP2 POP PUSH2 0x33C DUP3 PUSH2 0x5A9 JUMP JUMPDEST PUSH1 0x20 DUP3 ADD SWAP1 POP SWAP2 SWAP1 POP JUMP JUMPDEST PUSH1 0x0 PUSH2 0x354 PUSH1 0x0 DUP4 PUSH2 0x410 JUMP JUMPDEST SWAP2 POP PUSH2 0x35F DUP3 PUSH2 0x5D2 JUMP JUMPDEST PUSH1 0x0 DUP3 ADD SWAP1 POP SWAP2 SWAP1 POP JUMP JUMPDEST PUSH1 0x0 PUSH2 0x375 DUP3 PUSH2 0x347 JUMP JUMPDEST SWAP2 POP DUP2 SWAP1 POP SWAP2 SWAP1 POP JUMP JUMPDEST PUSH1 0x0 PUSH1 0x20 DUP3 ADD SWAP1 POP PUSH2 0x394 PUSH1 0x0 DUP4 ADD DUP5 PUSH2 0x315 JUMP JUMPDEST SWAP3 SWAP2 POP POP JUMP JUMPDEST PUSH1 0x0 PUSH1 0x20 DUP3 ADD SWAP1 POP DUP2 DUP2 SUB PUSH1 0x0 DUP4 ADD MSTORE PUSH2 0x3B3 DUP2 PUSH2 0x324 JUMP JUMPDEST SWAP1 POP SWAP2 SWAP1 POP JUMP JUMPDEST PUSH1 0x0 PUSH2 0x3C4 PUSH2 0x3D5 JUMP JUMPDEST SWAP1 POP PUSH2 0x3D0 DUP3 DUP3 PUSH2 0x4A9 JUMP JUMPDEST SWAP2 SWAP1 POP JUMP JUMPDEST PUSH1 0x0 PUSH1 0x40 MLOAD SWAP1 POP SWAP1 JUMP JUMPDEST PUSH1 0x0 PUSH8 0xFFFFFFFFFFFFFFFF DUP3 GT ISZERO PUSH2 0x3FA JUMPI PUSH2 0x3F9 PUSH2 0x569 JUMP JUMPDEST JUMPDEST PUSH2 0x403 DUP3 PUSH2 0x598 JUMP JUMPDEST SWAP1 POP PUSH1 0x20 DUP2 ADD SWAP1 POP SWAP2 SWAP1 POP JUMP JUMPDEST PUSH1 0x0 DUP2 SWAP1 POP SWAP3 SWAP2 POP POP JUMP JUMPDEST PUSH1 0x0 DUP3 DUP3 MSTORE PUSH1 0x20 DUP3 ADD SWAP1 POP SWAP3 SWAP2 POP POP JUMP JUMPDEST PUSH1 0x0 PUSH2 0x437 DUP3 PUSH2 0x43E JUMP JUMPDEST SWAP1 POP SWAP2 SWAP1 POP JUMP JUMPDEST PUSH1 0x0 PUSH20 0xFFFFFFFFFFFFFFFFFFFFFFFFFFFFFFFFFFFFFFFF DUP3 AND SWAP1 POP SWAP2 SWAP1 POP JUMP JUMPDEST PUSH1 0x0 DUP2 SWAP1 POP SWAP2 SWAP1 POP JUMP JUMPDEST DUP3 DUP2 DUP4 CALLDATACOPY PUSH1 0x0 DUP4 DUP4 ADD MSTORE POP POP POP JUMP JUMPDEST PUSH1 0x0 PUSH1 0x2 DUP3 DIV SWAP1 POP PUSH1 0x1 DUP3 AND DUP1 PUSH2 0x48F JUMPI PUSH1 0x7F DUP3 AND SWAP2 POP JUMPDEST PUSH1 0x20 DUP3 LT DUP2 EQ ISZERO PUSH2 0x4A3 JUMPI PUSH2 0x4A2 PUSH2 0x53A JUMP JUMPDEST JUMPDEST POP SWAP2 SWAP1 POP JUMP JUMPDEST PUSH2 0x4B2 DUP3 PUSH2 0x598 JUMP JUMPDEST DUP2 ADD DUP2 DUP2 LT PUSH8 0xFFFFFFFFFFFFFFFF DUP3 GT OR ISZERO PUSH2 0x4D1 JUMPI PUSH2 0x4D0 PUSH2 0x569 JUMP JUMPDEST JUMPDEST DUP1 PUSH1 0x40 MSTORE POP POP POP JUMP JUMPDEST PUSH1 0x0 PUSH2 0x4E5 DUP3 PUSH2 0x45E JUMP JUMPDEST SWAP2 POP PUSH2 0x4F0 DUP4 PUSH2 0x45E JUMP JUMPDEST SWAP3 POP DUP3 PUSH2 0x500 JUMPI PUSH2 0x4FF PUSH2 0x50B JUMP JUMPDEST JUMPDEST DUP3 DUP3 MOD SWAP1 POP SWAP3 SWAP2 POP POP JUMP JUMPDEST PUSH32 0x4E487B7100000000000000000000000000000000000000000000000000000000 PUSH1 0x0 MSTORE PUSH1 0x12 PUSH1 0x4 MSTORE PUSH1 0x24 PUSH1 0x0 REVERT JUMPDEST PUSH32 0x4E487B7100000000000000000000000000000000000000000000000000000000 PUSH1 0x0 MSTORE PUSH1 0x22 PUSH1 0x4 MSTORE PUSH1 0x24 PUSH1 0x0 REVERT JUMPDEST PUSH32 0x4E487B7100000000000000000000000000000000000000000000000000000000 PUSH1 0x0 MSTORE PUSH1 0x41 PUSH1 0x4 MSTORE PUSH1 0x24 PUSH1 0x0 REVERT JUMPDEST PUSH1 0x0 PUSH1 0x1F NOT PUSH1 0x1F DUP4 ADD AND SWAP1 POP SWAP2 SWAP1 POP JUMP JUMPDEST PUSH32 0x4661696C656420746F2073656E64204574686572000000000000000000000000 PUSH1 0x0 DUP3 ADD MSTORE POP JUMP JUMPDEST POP JUMP INVALID LOG2 PUSH5 0x6970667358 0x22 SLT KECCAK256 PUSH12 0xA4673B21047BD088B0653B52 0x2E DIV 0x1F 0xED CALL 0xBC CREATE PUSH10 0xD1112C0FBA5C3889FAC MULMOD PUSH5 0x736F6C6343 STOP ADDMOD DIV STOP CALLER "
				},
				"gasEstimates": {
					"creation": {
						"codeDepositCost": "309400",
						"executionCost": "21215",
						"totalCost": "330615"
					},
					"external": {
						"getOwner()": "1200",
						"setTypePermission(string)": "infinite",
						"spin()": "infinite"
					}
				},
				"methodIdentifiers": {
					"getOwner()": "893d20e8",
					"setTypePermission(string)": "aeb94c9d",
					"spin()": "f0acd7d5"
				}
			},
			"storageLayout": {
				"storage": [
					{
						"astId": 3,
						"contract": "contracts/Histochain.sol:Histochain",
						"label": "_owner",
						"offset": 0,
						"slot": "0",
						"type": "t_address"
					},
					{
						"astId": 5,
						"contract": "contracts/Histochain.sol:Histochain",
						"label": "_type",
						"offset": 0,
						"slot": "1",
						"type": "t_string_storage"
					},
					{
						"astId": 7,
						"contract": "contracts/Histochain.sol:Histochain",
						"label": "_timestamp",
						"offset": 0,
						"slot": "2",
						"type": "t_uint256"
					}
				],
				"types": {
					"t_address": {
						"encoding": "inplace",
						"label": "address",
						"numberOfBytes": "20"
					},
					"t_string_storage": {
						"encoding": "bytes",
						"label": "string",
						"numberOfBytes": "32"
					},
					"t_uint256": {
						"encoding": "inplace",
						"label": "uint256",
						"numberOfBytes": "32"
					}
				}
			},
			"userdoc": {
				"kind": "user",
				"methods": {},
				"version": 1
			}
		}
	}
}