{
	"contracts/Histochain.sol": {
		"Histochain": {
			"abi": [
				{
					"inputs": [],
					"name": "getOwner",
					"outputs": [
						{
							"internalType": "address",
							"name": "",
							"type": "address"
						}
					],
					"stateMutability": "view",
					"type": "function"
				},
				{
					"inputs": [],
					"name": "pastBlockTime",
					"outputs": [
						{
							"internalType": "uint256",
							"name": "",
							"type": "uint256"
						}
					],
					"stateMutability": "view",
					"type": "function"
				},
				{
					"inputs": [
						{
							"internalType": "string",
							"name": "inputType",
							"type": "string"
						}
					],
					"name": "setTypePermission",
					"outputs": [],
					"stateMutability": "nonpayable",
					"type": "function"
				},
				{
					"inputs": [],
					"name": "spin",
					"outputs": [],
					"stateMutability": "payable",
					"type": "function"
				}
			],
			"devdoc": {
				"kind": "dev",
				"methods": {},
				"version": 1
			},
			"evm": {
				"assembly": "    /* \"contracts/Histochain.sol\":66:914  contract Histochain {\r... */\n  mstore(0x40, 0x80)\n  callvalue\n  dup1\n  iszero\n  tag_1\n  jumpi\n  0x00\n  dup1\n  revert\ntag_1:\n  pop\n  dataSize(sub_0)\n  dup1\n  dataOffset(sub_0)\n  0x00\n  codecopy\n  0x00\n  return\nstop\n\nsub_0: assembly {\n        /* \"contracts/Histochain.sol\":66:914  contract Histochain {\r... */\n      mstore(0x40, 0x80)\n      jumpi(tag_1, lt(calldatasize, 0x04))\n      shr(0xe0, calldataload(0x00))\n      dup1\n      0x58d02b09\n      eq\n      tag_2\n      jumpi\n      dup1\n      0x893d20e8\n      eq\n      tag_3\n      jumpi\n      dup1\n      0xaeb94c9d\n      eq\n      tag_4\n      jumpi\n      dup1\n      0xf0acd7d5\n      eq\n      tag_5\n      jumpi\n    tag_1:\n      0x00\n      dup1\n      revert\n        /* \"contracts/Histochain.sol\":256:281  uint public pastBlockTime */\n    tag_2:\n      callvalue\n      dup1\n      iszero\n      tag_6\n      jumpi\n      0x00\n      dup1\n      revert\n    tag_6:\n      pop\n      tag_7\n      tag_8\n      jump\t// in\n    tag_7:\n      mload(0x40)\n      tag_9\n      swap2\n      swap1\n      tag_10\n      jump\t// in\n    tag_9:\n      mload(0x40)\n      dup1\n      swap2\n      sub\n      swap1\n      return\n        /* \"contracts/Histochain.sol\":290:373  function getOwner() external view returns(address) {\r... */\n    tag_3:\n      callvalue\n      dup1\n      iszero\n      tag_11\n      jumpi\n      0x00\n      dup1\n      revert\n    tag_11:\n      pop\n      tag_12\n      tag_13\n      jump\t// in\n    tag_12:\n      mload(0x40)\n      tag_14\n      swap2\n      swap1\n      tag_15\n      jump\t// in\n    tag_14:\n      mload(0x40)\n      dup1\n      swap2\n      sub\n      swap1\n      return\n        /* \"contracts/Histochain.sol\":381:476  function setTypePermission(string memory inputType) public {\r... */\n    tag_4:\n      callvalue\n      dup1\n      iszero\n      tag_16\n      jumpi\n      0x00\n      dup1\n      revert\n    tag_16:\n      pop\n      tag_17\n      0x04\n      dup1\n      calldatasize\n      sub\n      dup2\n      add\n      swap1\n      tag_18\n      swap2\n      swap1\n      tag_19\n      jump\t// in\n    tag_18:\n      tag_20\n      jump\t// in\n    tag_17:\n      stop\n        /* \"contracts/Histochain.sol\":484:911  function spin() external payable {\r... */\n    tag_5:\n      tag_21\n      tag_22\n      jump\t// in\n    tag_21:\n      stop\n        /* \"contracts/Histochain.sol\":256:281  uint public pastBlockTime */\n    tag_8:\n      sload(0x02)\n      dup2\n      jump\t// out\n        /* \"contracts/Histochain.sol\":290:373  function getOwner() external view returns(address) {\r... */\n    tag_13:\n        /* \"contracts/Histochain.sol\":332:339  address */\n      0x00\n        /* \"contracts/Histochain.sol\":359:365  _owner */\n      dup1\n      0x00\n      swap1\n      sload\n      swap1\n      0x0100\n      exp\n      swap1\n      div\n      0xffffffffffffffffffffffffffffffffffffffff\n      and\n        /* \"contracts/Histochain.sol\":352:365  return _owner */\n      swap1\n      pop\n        /* \"contracts/Histochain.sol\":290:373  function getOwner() external view returns(address) {\r... */\n      swap1\n      jump\t// out\n        /* \"contracts/Histochain.sol\":381:476  function setTypePermission(string memory inputType) public {\r... */\n    tag_20:\n        /* \"contracts/Histochain.sol\":459:468  inputType */\n      dup1\n        /* \"contracts/Histochain.sol\":451:456  _type */\n      0x01\n        /* \"contracts/Histochain.sol\":451:468  _type = inputType */\n      swap1\n      dup1\n      mload\n      swap1\n      0x20\n      add\n      swap1\n      tag_25\n      swap3\n      swap2\n      swap1\n      tag_26\n      jump\t// in\n    tag_25:\n      pop\n        /* \"contracts/Histochain.sol\":381:476  function setTypePermission(string memory inputType) public {\r... */\n      pop\n      jump\t// out\n        /* \"contracts/Histochain.sol\":484:911  function spin() external payable {\r... */\n    tag_22:\n        /* \"contracts/Histochain.sol\":549:557  10 ether */\n      0x8ac7230489e80000\n        /* \"contracts/Histochain.sol\":536:545  msg.value */\n      callvalue\n        /* \"contracts/Histochain.sol\":536:557  msg.value == 10 ether */\n      eq\n        /* \"contracts/Histochain.sol\":528:558  require(msg.value == 10 ether) */\n      tag_28\n      jumpi\n      0x00\n      dup1\n      revert\n    tag_28:\n        /* \"contracts/Histochain.sol\":626:639  pastBlockTime */\n      sload(0x02)\n        /* \"contracts/Histochain.sol\":607:622  block.timestamp */\n      timestamp\n        /* \"contracts/Histochain.sol\":607:639  block.timestamp != pastBlockTime */\n      eq\n      iszero\n        /* \"contracts/Histochain.sol\":599:640  require(block.timestamp != pastBlockTime) */\n      tag_29\n      jumpi\n      0x00\n      dup1\n      revert\n    tag_29:\n        /* \"contracts/Histochain.sol\":701:716  block.timestamp */\n      timestamp\n        /* \"contracts/Histochain.sol\":685:698  pastBlockTime */\n      0x02\n        /* \"contracts/Histochain.sol\":685:716  pastBlockTime = block.timestamp */\n      dup2\n      swap1\n      sstore\n      pop\n        /* \"contracts/Histochain.sol\":757:758  0 */\n      0x00\n        /* \"contracts/Histochain.sol\":751:753  15 */\n      0x0f\n        /* \"contracts/Histochain.sol\":733:748  block.timestamp */\n      timestamp\n        /* \"contracts/Histochain.sol\":733:753  block.timestamp % 15 */\n      tag_30\n      swap2\n      swap1\n      tag_31\n      jump\t// in\n    tag_30:\n        /* \"contracts/Histochain.sol\":733:758  block.timestamp % 15 == 0 */\n      eq\n        /* \"contracts/Histochain.sol\":729:904  if (block.timestamp % 15 == 0) {\r... */\n      iszero\n      tag_32\n      jumpi\n        /* \"contracts/Histochain.sol\":776:785  bool sent */\n      0x00\n        /* \"contracts/Histochain.sol\":791:801  msg.sender */\n      caller\n        /* \"contracts/Histochain.sol\":791:806  msg.sender.call */\n      0xffffffffffffffffffffffffffffffffffffffff\n      and\n        /* \"contracts/Histochain.sol\":814:835  address(this).balance */\n      selfbalance\n        /* \"contracts/Histochain.sol\":791:840  msg.sender.call{value: address(this).balance}(\"\") */\n      mload(0x40)\n      tag_33\n      swap1\n      tag_34\n      jump\t// in\n    tag_33:\n      0x00\n      mload(0x40)\n      dup1\n      dup4\n      sub\n      dup2\n      dup6\n      dup8\n      gas\n      call\n      swap3\n      pop\n      pop\n      pop\n      returndatasize\n      dup1\n      0x00\n      dup2\n      eq\n      tag_37\n      jumpi\n      mload(0x40)\n      swap2\n      pop\n      and(add(returndatasize, 0x3f), not(0x1f))\n      dup3\n      add\n      0x40\n      mstore\n      returndatasize\n      dup3\n      mstore\n      returndatasize\n      0x00\n      0x20\n      dup5\n      add\n      returndatacopy\n      jump(tag_36)\n    tag_37:\n      0x60\n      swap2\n      pop\n    tag_36:\n      pop\n        /* \"contracts/Histochain.sol\":775:840  (bool sent, ) = msg.sender.call{value: address(this).balance}(\"\") */\n      pop\n      swap1\n      pop\n        /* \"contracts/Histochain.sol\":863:867  sent */\n      dup1\n        /* \"contracts/Histochain.sol\":855:892  require(sent, \"Failed to send Ether\") */\n      tag_38\n      jumpi\n      mload(0x40)\n      0x08c379a000000000000000000000000000000000000000000000000000000000\n      dup2\n      mstore\n      0x04\n      add\n      tag_39\n      swap1\n      tag_40\n      jump\t// in\n    tag_39:\n      mload(0x40)\n      dup1\n      swap2\n      sub\n      swap1\n      revert\n    tag_38:\n        /* \"contracts/Histochain.sol\":729:904  if (block.timestamp % 15 == 0) {\r... */\n      pop\n    tag_32:\n        /* \"contracts/Histochain.sol\":484:911  function spin() external payable {\r... */\n      jump\t// out\n    tag_26:\n      dup3\n      dup1\n      sload\n      tag_41\n      swap1\n      tag_42\n      jump\t// in\n    tag_41:\n      swap1\n      0x00\n      mstore\n      keccak256(0x00, 0x20)\n      swap1\n      0x1f\n      add\n      0x20\n      swap1\n      div\n      dup2\n      add\n      swap3\n      dup3\n      tag_44\n      jumpi\n      0x00\n      dup6\n      sstore\n      jump(tag_43)\n    tag_44:\n      dup3\n      0x1f\n      lt\n      tag_45\n      jumpi\n      dup1\n      mload\n      not(0xff)\n      and\n      dup4\n      dup1\n      add\n      or\n      dup6\n      sstore\n      jump(tag_43)\n    tag_45:\n      dup3\n      dup1\n      add\n      0x01\n      add\n      dup6\n      sstore\n      dup3\n      iszero\n      tag_43\n      jumpi\n      swap2\n      dup3\n      add\n    tag_46:\n      dup3\n      dup2\n      gt\n      iszero\n      tag_47\n      jumpi\n      dup3\n      mload\n      dup3\n      sstore\n      swap2\n      0x20\n      add\n      swap2\n      swap1\n      0x01\n      add\n      swap1\n      jump(tag_46)\n    tag_47:\n    tag_43:\n      pop\n      swap1\n      pop\n      tag_48\n      swap2\n      swap1\n      tag_49\n      jump\t// in\n    tag_48:\n      pop\n      swap1\n      jump\t// out\n    tag_49:\n    tag_50:\n      dup1\n      dup3\n      gt\n      iszero\n      tag_51\n      jumpi\n      0x00\n      dup2\n      0x00\n      swap1\n      sstore\n      pop\n      0x01\n      add\n      jump(tag_50)\n    tag_51:\n      pop\n      swap1\n      jump\t// out\n        /* \"#utility.yul\":7:352   */\n    tag_53:\n        /* \"#utility.yul\":85:90   */\n      0x00\n        /* \"#utility.yul\":110:176   */\n      tag_55\n        /* \"#utility.yul\":126:175   */\n      tag_56\n        /* \"#utility.yul\":168:174   */\n      dup5\n        /* \"#utility.yul\":126:175   */\n      tag_57\n      jump\t// in\n    tag_56:\n        /* \"#utility.yul\":110:176   */\n      tag_58\n      jump\t// in\n    tag_55:\n        /* \"#utility.yul\":101:176   */\n      swap1\n      pop\n        /* \"#utility.yul\":199:205   */\n      dup3\n        /* \"#utility.yul\":192:197   */\n      dup2\n        /* \"#utility.yul\":185:206   */\n      mstore\n        /* \"#utility.yul\":237:241   */\n      0x20\n        /* \"#utility.yul\":230:235   */\n      dup2\n        /* \"#utility.yul\":226:242   */\n      add\n        /* \"#utility.yul\":275:278   */\n      dup5\n        /* \"#utility.yul\":266:272   */\n      dup5\n        /* \"#utility.yul\":261:264   */\n      dup5\n        /* \"#utility.yul\":257:273   */\n      add\n        /* \"#utility.yul\":254:279   */\n      gt\n        /* \"#utility.yul\":251:253   */\n      iszero\n      tag_59\n      jumpi\n        /* \"#utility.yul\":292:293   */\n      0x00\n        /* \"#utility.yul\":289:290   */\n      dup1\n        /* \"#utility.yul\":282:294   */\n      revert\n        /* \"#utility.yul\":251:253   */\n    tag_59:\n        /* \"#utility.yul\":305:346   */\n      tag_60\n        /* \"#utility.yul\":339:345   */\n      dup5\n        /* \"#utility.yul\":334:337   */\n      dup3\n        /* \"#utility.yul\":329:332   */\n      dup6\n        /* \"#utility.yul\":305:346   */\n      tag_61\n      jump\t// in\n    tag_60:\n        /* \"#utility.yul\":91:352   */\n      pop\n      swap4\n      swap3\n      pop\n      pop\n      pop\n      jump\t// out\n        /* \"#utility.yul\":372:645   */\n    tag_62:\n        /* \"#utility.yul\":428:433   */\n      0x00\n        /* \"#utility.yul\":477:480   */\n      dup3\n        /* \"#utility.yul\":470:474   */\n      0x1f\n        /* \"#utility.yul\":462:468   */\n      dup4\n        /* \"#utility.yul\":458:475   */\n      add\n        /* \"#utility.yul\":454:481   */\n      slt\n        /* \"#utility.yul\":444:446   */\n      tag_64\n      jumpi\n        /* \"#utility.yul\":495:496   */\n      0x00\n        /* \"#utility.yul\":492:493   */\n      dup1\n        /* \"#utility.yul\":485:497   */\n      revert\n        /* \"#utility.yul\":444:446   */\n    tag_64:\n        /* \"#utility.yul\":535:541   */\n      dup2\n        /* \"#utility.yul\":522:542   */\n      calldataload\n        /* \"#utility.yul\":560:639   */\n      tag_65\n        /* \"#utility.yul\":635:638   */\n      dup5\n        /* \"#utility.yul\":627:633   */\n      dup3\n        /* \"#utility.yul\":620:624   */\n      0x20\n        /* \"#utility.yul\":612:618   */\n      dup7\n        /* \"#utility.yul\":608:625   */\n      add\n        /* \"#utility.yul\":560:639   */\n      tag_53\n      jump\t// in\n    tag_65:\n        /* \"#utility.yul\":551:639   */\n      swap2\n      pop\n        /* \"#utility.yul\":434:645   */\n      pop\n      swap3\n      swap2\n      pop\n      pop\n      jump\t// out\n        /* \"#utility.yul\":651:1026   */\n    tag_19:\n        /* \"#utility.yul\":720:726   */\n      0x00\n        /* \"#utility.yul\":769:771   */\n      0x20\n        /* \"#utility.yul\":757:766   */\n      dup3\n        /* \"#utility.yul\":748:755   */\n      dup5\n        /* \"#utility.yul\":744:767   */\n      sub\n        /* \"#utility.yul\":740:772   */\n      slt\n        /* \"#utility.yul\":737:739   */\n      iszero\n      tag_67\n      jumpi\n        /* \"#utility.yul\":785:786   */\n      0x00\n        /* \"#utility.yul\":782:783   */\n      dup1\n        /* \"#utility.yul\":775:787   */\n      revert\n        /* \"#utility.yul\":737:739   */\n    tag_67:\n        /* \"#utility.yul\":856:857   */\n      0x00\n        /* \"#utility.yul\":845:854   */\n      dup3\n        /* \"#utility.yul\":841:858   */\n      add\n        /* \"#utility.yul\":828:859   */\n      calldataload\n        /* \"#utility.yul\":886:904   */\n      0xffffffffffffffff\n        /* \"#utility.yul\":878:884   */\n      dup2\n        /* \"#utility.yul\":875:905   */\n      gt\n        /* \"#utility.yul\":872:874   */\n      iszero\n      tag_68\n      jumpi\n        /* \"#utility.yul\":918:919   */\n      0x00\n        /* \"#utility.yul\":915:916   */\n      dup1\n        /* \"#utility.yul\":908:920   */\n      revert\n        /* \"#utility.yul\":872:874   */\n    tag_68:\n        /* \"#utility.yul\":946:1009   */\n      tag_69\n        /* \"#utility.yul\":1001:1008   */\n      dup5\n        /* \"#utility.yul\":992:998   */\n      dup3\n        /* \"#utility.yul\":981:990   */\n      dup6\n        /* \"#utility.yul\":977:999   */\n      add\n        /* \"#utility.yul\":946:1009   */\n      tag_62\n      jump\t// in\n    tag_69:\n        /* \"#utility.yul\":936:1009   */\n      swap2\n      pop\n        /* \"#utility.yul\":799:1019   */\n      pop\n        /* \"#utility.yul\":727:1026   */\n      swap3\n      swap2\n      pop\n      pop\n      jump\t// out\n        /* \"#utility.yul\":1032:1150   */\n    tag_70:\n        /* \"#utility.yul\":1119:1143   */\n      tag_72\n        /* \"#utility.yul\":1137:1142   */\n      dup2\n        /* \"#utility.yul\":1119:1143   */\n      tag_73\n      jump\t// in\n    tag_72:\n        /* \"#utility.yul\":1114:1117   */\n      dup3\n        /* \"#utility.yul\":1107:1144   */\n      mstore\n        /* \"#utility.yul\":1097:1150   */\n      pop\n      pop\n      jump\t// out\n        /* \"#utility.yul\":1156:1522   */\n    tag_74:\n        /* \"#utility.yul\":1298:1301   */\n      0x00\n        /* \"#utility.yul\":1319:1386   */\n      tag_76\n        /* \"#utility.yul\":1383:1385   */\n      0x14\n        /* \"#utility.yul\":1378:1381   */\n      dup4\n        /* \"#utility.yul\":1319:1386   */\n      tag_77\n      jump\t// in\n    tag_76:\n        /* \"#utility.yul\":1312:1386   */\n      swap2\n      pop\n        /* \"#utility.yul\":1395:1488   */\n      tag_78\n        /* \"#utility.yul\":1484:1487   */\n      dup3\n        /* \"#utility.yul\":1395:1488   */\n      tag_79\n      jump\t// in\n    tag_78:\n        /* \"#utility.yul\":1513:1515   */\n      0x20\n        /* \"#utility.yul\":1508:1511   */\n      dup3\n        /* \"#utility.yul\":1504:1516   */\n      add\n        /* \"#utility.yul\":1497:1516   */\n      swap1\n      pop\n        /* \"#utility.yul\":1302:1522   */\n      swap2\n      swap1\n      pop\n      jump\t// out\n        /* \"#utility.yul\":1528:1926   */\n    tag_80:\n        /* \"#utility.yul\":1687:1690   */\n      0x00\n        /* \"#utility.yul\":1708:1791   */\n      tag_82\n        /* \"#utility.yul\":1789:1790   */\n      0x00\n        /* \"#utility.yul\":1784:1787   */\n      dup4\n        /* \"#utility.yul\":1708:1791   */\n      tag_83\n      jump\t// in\n    tag_82:\n        /* \"#utility.yul\":1701:1791   */\n      swap2\n      pop\n        /* \"#utility.yul\":1800:1893   */\n      tag_84\n        /* \"#utility.yul\":1889:1892   */\n      dup3\n        /* \"#utility.yul\":1800:1893   */\n      tag_85\n      jump\t// in\n    tag_84:\n        /* \"#utility.yul\":1918:1919   */\n      0x00\n        /* \"#utility.yul\":1913:1916   */\n      dup3\n        /* \"#utility.yul\":1909:1920   */\n      add\n        /* \"#utility.yul\":1902:1920   */\n      swap1\n      pop\n        /* \"#utility.yul\":1691:1926   */\n      swap2\n      swap1\n      pop\n      jump\t// out\n        /* \"#utility.yul\":1932:2050   */\n    tag_86:\n        /* \"#utility.yul\":2019:2043   */\n      tag_88\n        /* \"#utility.yul\":2037:2042   */\n      dup2\n        /* \"#utility.yul\":2019:2043   */\n      tag_89\n      jump\t// in\n    tag_88:\n        /* \"#utility.yul\":2014:2017   */\n      dup3\n        /* \"#utility.yul\":2007:2044   */\n      mstore\n        /* \"#utility.yul\":1997:2050   */\n      pop\n      pop\n      jump\t// out\n        /* \"#utility.yul\":2056:2435   */\n    tag_34:\n        /* \"#utility.yul\":2240:2243   */\n      0x00\n        /* \"#utility.yul\":2262:2409   */\n      tag_91\n        /* \"#utility.yul\":2405:2408   */\n      dup3\n        /* \"#utility.yul\":2262:2409   */\n      tag_80\n      jump\t// in\n    tag_91:\n        /* \"#utility.yul\":2255:2409   */\n      swap2\n      pop\n        /* \"#utility.yul\":2426:2429   */\n      dup2\n        /* \"#utility.yul\":2419:2429   */\n      swap1\n      pop\n        /* \"#utility.yul\":2244:2435   */\n      swap2\n      swap1\n      pop\n      jump\t// out\n        /* \"#utility.yul\":2441:2663   */\n    tag_15:\n        /* \"#utility.yul\":2534:2538   */\n      0x00\n        /* \"#utility.yul\":2572:2574   */\n      0x20\n        /* \"#utility.yul\":2561:2570   */\n      dup3\n        /* \"#utility.yul\":2557:2575   */\n      add\n        /* \"#utility.yul\":2549:2575   */\n      swap1\n      pop\n        /* \"#utility.yul\":2585:2656   */\n      tag_93\n        /* \"#utility.yul\":2653:2654   */\n      0x00\n        /* \"#utility.yul\":2642:2651   */\n      dup4\n        /* \"#utility.yul\":2638:2655   */\n      add\n        /* \"#utility.yul\":2629:2635   */\n      dup5\n        /* \"#utility.yul\":2585:2656   */\n      tag_70\n      jump\t// in\n    tag_93:\n        /* \"#utility.yul\":2539:2663   */\n      swap3\n      swap2\n      pop\n      pop\n      jump\t// out\n        /* \"#utility.yul\":2669:3088   */\n    tag_40:\n        /* \"#utility.yul\":2835:2839   */\n      0x00\n        /* \"#utility.yul\":2873:2875   */\n      0x20\n        /* \"#utility.yul\":2862:2871   */\n      dup3\n        /* \"#utility.yul\":2858:2876   */\n      add\n        /* \"#utility.yul\":2850:2876   */\n      swap1\n      pop\n        /* \"#utility.yul\":2922:2931   */\n      dup2\n        /* \"#utility.yul\":2916:2920   */\n      dup2\n        /* \"#utility.yul\":2912:2932   */\n      sub\n        /* \"#utility.yul\":2908:2909   */\n      0x00\n        /* \"#utility.yul\":2897:2906   */\n      dup4\n        /* \"#utility.yul\":2893:2910   */\n      add\n        /* \"#utility.yul\":2886:2933   */\n      mstore\n        /* \"#utility.yul\":2950:3081   */\n      tag_95\n        /* \"#utility.yul\":3076:3080   */\n      dup2\n        /* \"#utility.yul\":2950:3081   */\n      tag_74\n      jump\t// in\n    tag_95:\n        /* \"#utility.yul\":2942:3081   */\n      swap1\n      pop\n        /* \"#utility.yul\":2840:3088   */\n      swap2\n      swap1\n      pop\n      jump\t// out\n        /* \"#utility.yul\":3094:3316   */\n    tag_10:\n        /* \"#utility.yul\":3187:3191   */\n      0x00\n        /* \"#utility.yul\":3225:3227   */\n      0x20\n        /* \"#utility.yul\":3214:3223   */\n      dup3\n        /* \"#utility.yul\":3210:3228   */\n      add\n        /* \"#utility.yul\":3202:3228   */\n      swap1\n      pop\n        /* \"#utility.yul\":3238:3309   */\n      tag_97\n        /* \"#utility.yul\":3306:3307   */\n      0x00\n        /* \"#utility.yul\":3295:3304   */\n      dup4\n        /* \"#utility.yul\":3291:3308   */\n      add\n        /* \"#utility.yul\":3282:3288   */\n      dup5\n        /* \"#utility.yul\":3238:3309   */\n      tag_86\n      jump\t// in\n    tag_97:\n        /* \"#utility.yul\":3192:3316   */\n      swap3\n      swap2\n      pop\n      pop\n      jump\t// out\n        /* \"#utility.yul\":3322:3451   */\n    tag_58:\n        /* \"#utility.yul\":3356:3362   */\n      0x00\n        /* \"#utility.yul\":3383:3403   */\n      tag_99\n      tag_100\n      jump\t// in\n    tag_99:\n        /* \"#utility.yul\":3373:3403   */\n      swap1\n      pop\n        /* \"#utility.yul\":3412:3445   */\n      tag_101\n        /* \"#utility.yul\":3440:3444   */\n      dup3\n        /* \"#utility.yul\":3432:3438   */\n      dup3\n        /* \"#utility.yul\":3412:3445   */\n      tag_102\n      jump\t// in\n    tag_101:\n        /* \"#utility.yul\":3363:3451   */\n      swap2\n      swap1\n      pop\n      jump\t// out\n        /* \"#utility.yul\":3457:3532   */\n    tag_100:\n        /* \"#utility.yul\":3490:3496   */\n      0x00\n        /* \"#utility.yul\":3523:3525   */\n      0x40\n        /* \"#utility.yul\":3517:3526   */\n      mload\n        /* \"#utility.yul\":3507:3526   */\n      swap1\n      pop\n        /* \"#utility.yul\":3497:3532   */\n      swap1\n      jump\t// out\n        /* \"#utility.yul\":3538:3846   */\n    tag_57:\n        /* \"#utility.yul\":3600:3604   */\n      0x00\n        /* \"#utility.yul\":3690:3708   */\n      0xffffffffffffffff\n        /* \"#utility.yul\":3682:3688   */\n      dup3\n        /* \"#utility.yul\":3679:3709   */\n      gt\n        /* \"#utility.yul\":3676:3678   */\n      iszero\n      tag_105\n      jumpi\n        /* \"#utility.yul\":3712:3730   */\n      tag_106\n      tag_107\n      jump\t// in\n    tag_106:\n        /* \"#utility.yul\":3676:3678   */\n    tag_105:\n        /* \"#utility.yul\":3750:3779   */\n      tag_108\n        /* \"#utility.yul\":3772:3778   */\n      dup3\n        /* \"#utility.yul\":3750:3779   */\n      tag_109\n      jump\t// in\n    tag_108:\n        /* \"#utility.yul\":3742:3779   */\n      swap1\n      pop\n        /* \"#utility.yul\":3834:3838   */\n      0x20\n        /* \"#utility.yul\":3828:3832   */\n      dup2\n        /* \"#utility.yul\":3824:3839   */\n      add\n        /* \"#utility.yul\":3816:3839   */\n      swap1\n      pop\n        /* \"#utility.yul\":3605:3846   */\n      swap2\n      swap1\n      pop\n      jump\t// out\n        /* \"#utility.yul\":3852:3999   */\n    tag_83:\n        /* \"#utility.yul\":3953:3964   */\n      0x00\n        /* \"#utility.yul\":3990:3993   */\n      dup2\n        /* \"#utility.yul\":3975:3993   */\n      swap1\n      pop\n        /* \"#utility.yul\":3965:3999   */\n      swap3\n      swap2\n      pop\n      pop\n      jump\t// out\n        /* \"#utility.yul\":4005:4174   */\n    tag_77:\n        /* \"#utility.yul\":4089:4100   */\n      0x00\n        /* \"#utility.yul\":4123:4129   */\n      dup3\n        /* \"#utility.yul\":4118:4121   */\n      dup3\n        /* \"#utility.yul\":4111:4130   */\n      mstore\n        /* \"#utility.yul\":4163:4167   */\n      0x20\n        /* \"#utility.yul\":4158:4161   */\n      dup3\n        /* \"#utility.yul\":4154:4168   */\n      add\n        /* \"#utility.yul\":4139:4168   */\n      swap1\n      pop\n        /* \"#utility.yul\":4101:4174   */\n      swap3\n      swap2\n      pop\n      pop\n      jump\t// out\n        /* \"#utility.yul\":4180:4276   */\n    tag_73:\n        /* \"#utility.yul\":4217:4224   */\n      0x00\n        /* \"#utility.yul\":4246:4270   */\n      tag_113\n        /* \"#utility.yul\":4264:4269   */\n      dup3\n        /* \"#utility.yul\":4246:4270   */\n      tag_114\n      jump\t// in\n    tag_113:\n        /* \"#utility.yul\":4235:4270   */\n      swap1\n      pop\n        /* \"#utility.yul\":4225:4276   */\n      swap2\n      swap1\n      pop\n      jump\t// out\n        /* \"#utility.yul\":4282:4408   */\n    tag_114:\n        /* \"#utility.yul\":4319:4326   */\n      0x00\n        /* \"#utility.yul\":4359:4401   */\n      0xffffffffffffffffffffffffffffffffffffffff\n        /* \"#utility.yul\":4352:4357   */\n      dup3\n        /* \"#utility.yul\":4348:4402   */\n      and\n        /* \"#utility.yul\":4337:4402   */\n      swap1\n      pop\n        /* \"#utility.yul\":4327:4408   */\n      swap2\n      swap1\n      pop\n      jump\t// out\n        /* \"#utility.yul\":4414:4491   */\n    tag_89:\n        /* \"#utility.yul\":4451:4458   */\n      0x00\n        /* \"#utility.yul\":4480:4485   */\n      dup2\n        /* \"#utility.yul\":4469:4485   */\n      swap1\n      pop\n        /* \"#utility.yul\":4459:4491   */\n      swap2\n      swap1\n      pop\n      jump\t// out\n        /* \"#utility.yul\":4497:4651   */\n    tag_61:\n        /* \"#utility.yul\":4581:4587   */\n      dup3\n        /* \"#utility.yul\":4576:4579   */\n      dup2\n        /* \"#utility.yul\":4571:4574   */\n      dup4\n        /* \"#utility.yul\":4558:4588   */\n      calldatacopy\n        /* \"#utility.yul\":4643:4644   */\n      0x00\n        /* \"#utility.yul\":4634:4640   */\n      dup4\n        /* \"#utility.yul\":4629:4632   */\n      dup4\n        /* \"#utility.yul\":4625:4641   */\n      add\n        /* \"#utility.yul\":4618:4645   */\n      mstore\n        /* \"#utility.yul\":4548:4651   */\n      pop\n      pop\n      pop\n      jump\t// out\n        /* \"#utility.yul\":4657:4977   */\n    tag_42:\n        /* \"#utility.yul\":4701:4707   */\n      0x00\n        /* \"#utility.yul\":4738:4739   */\n      0x02\n        /* \"#utility.yul\":4732:4736   */\n      dup3\n        /* \"#utility.yul\":4728:4740   */\n      div\n        /* \"#utility.yul\":4718:4740   */\n      swap1\n      pop\n        /* \"#utility.yul\":4785:4786   */\n      0x01\n        /* \"#utility.yul\":4779:4783   */\n      dup3\n        /* \"#utility.yul\":4775:4787   */\n      and\n        /* \"#utility.yul\":4806:4824   */\n      dup1\n        /* \"#utility.yul\":4796:4798   */\n      tag_119\n      jumpi\n        /* \"#utility.yul\":4862:4866   */\n      0x7f\n        /* \"#utility.yul\":4854:4860   */\n      dup3\n        /* \"#utility.yul\":4850:4867   */\n      and\n        /* \"#utility.yul\":4840:4867   */\n      swap2\n      pop\n        /* \"#utility.yul\":4796:4798   */\n    tag_119:\n        /* \"#utility.yul\":4924:4926   */\n      0x20\n        /* \"#utility.yul\":4916:4922   */\n      dup3\n        /* \"#utility.yul\":4913:4927   */\n      lt\n        /* \"#utility.yul\":4893:4911   */\n      dup2\n        /* \"#utility.yul\":4890:4928   */\n      eq\n        /* \"#utility.yul\":4887:4889   */\n      iszero\n      tag_120\n      jumpi\n        /* \"#utility.yul\":4943:4961   */\n      tag_121\n      tag_122\n      jump\t// in\n    tag_121:\n        /* \"#utility.yul\":4887:4889   */\n    tag_120:\n        /* \"#utility.yul\":4708:4977   */\n      pop\n      swap2\n      swap1\n      pop\n      jump\t// out\n        /* \"#utility.yul\":4983:5264   */\n    tag_102:\n        /* \"#utility.yul\":5066:5093   */\n      tag_124\n        /* \"#utility.yul\":5088:5092   */\n      dup3\n        /* \"#utility.yul\":5066:5093   */\n      tag_109\n      jump\t// in\n    tag_124:\n        /* \"#utility.yul\":5058:5064   */\n      dup2\n        /* \"#utility.yul\":5054:5094   */\n      add\n        /* \"#utility.yul\":5196:5202   */\n      dup2\n        /* \"#utility.yul\":5184:5194   */\n      dup2\n        /* \"#utility.yul\":5181:5203   */\n      lt\n        /* \"#utility.yul\":5160:5178   */\n      0xffffffffffffffff\n        /* \"#utility.yul\":5148:5158   */\n      dup3\n        /* \"#utility.yul\":5145:5179   */\n      gt\n        /* \"#utility.yul\":5142:5204   */\n      or\n        /* \"#utility.yul\":5139:5141   */\n      iszero\n      tag_125\n      jumpi\n        /* \"#utility.yul\":5207:5225   */\n      tag_126\n      tag_107\n      jump\t// in\n    tag_126:\n        /* \"#utility.yul\":5139:5141   */\n    tag_125:\n        /* \"#utility.yul\":5247:5257   */\n      dup1\n        /* \"#utility.yul\":5243:5245   */\n      0x40\n        /* \"#utility.yul\":5236:5258   */\n      mstore\n        /* \"#utility.yul\":5026:5264   */\n      pop\n      pop\n      pop\n      jump\t// out\n        /* \"#utility.yul\":5270:5446   */\n    tag_31:\n        /* \"#utility.yul\":5302:5303   */\n      0x00\n        /* \"#utility.yul\":5319:5339   */\n      tag_128\n        /* \"#utility.yul\":5337:5338   */\n      dup3\n        /* \"#utility.yul\":5319:5339   */\n      tag_89\n      jump\t// in\n    tag_128:\n        /* \"#utility.yul\":5314:5339   */\n      swap2\n      pop\n        /* \"#utility.yul\":5353:5373   */\n      tag_129\n        /* \"#utility.yul\":5371:5372   */\n      dup4\n        /* \"#utility.yul\":5353:5373   */\n      tag_89\n      jump\t// in\n    tag_129:\n        /* \"#utility.yul\":5348:5373   */\n      swap3\n      pop\n        /* \"#utility.yul\":5392:5393   */\n      dup3\n        /* \"#utility.yul\":5382:5384   */\n      tag_130\n      jumpi\n        /* \"#utility.yul\":5397:5415   */\n      tag_131\n      tag_132\n      jump\t// in\n    tag_131:\n        /* \"#utility.yul\":5382:5384   */\n    tag_130:\n        /* \"#utility.yul\":5438:5439   */\n      dup3\n        /* \"#utility.yul\":5435:5436   */\n      dup3\n        /* \"#utility.yul\":5431:5440   */\n      mod\n        /* \"#utility.yul\":5426:5440   */\n      swap1\n      pop\n        /* \"#utility.yul\":5304:5446   */\n      swap3\n      swap2\n      pop\n      pop\n      jump\t// out\n        /* \"#utility.yul\":5452:5632   */\n    tag_132:\n        /* \"#utility.yul\":5500:5577   */\n      0x4e487b7100000000000000000000000000000000000000000000000000000000\n        /* \"#utility.yul\":5497:5498   */\n      0x00\n        /* \"#utility.yul\":5490:5578   */\n      mstore\n        /* \"#utility.yul\":5597:5601   */\n      0x12\n        /* \"#utility.yul\":5594:5595   */\n      0x04\n        /* \"#utility.yul\":5587:5602   */\n      mstore\n        /* \"#utility.yul\":5621:5625   */\n      0x24\n        /* \"#utility.yul\":5618:5619   */\n      0x00\n        /* \"#utility.yul\":5611:5626   */\n      revert\n        /* \"#utility.yul\":5638:5818   */\n    tag_122:\n        /* \"#utility.yul\":5686:5763   */\n      0x4e487b7100000000000000000000000000000000000000000000000000000000\n        /* \"#utility.yul\":5683:5684   */\n      0x00\n        /* \"#utility.yul\":5676:5764   */\n      mstore\n        /* \"#utility.yul\":5783:5787   */\n      0x22\n        /* \"#utility.yul\":5780:5781   */\n      0x04\n        /* \"#utility.yul\":5773:5788   */\n      mstore\n        /* \"#utility.yul\":5807:5811   */\n      0x24\n        /* \"#utility.yul\":5804:5805   */\n      0x00\n        /* \"#utility.yul\":5797:5812   */\n      revert\n        /* \"#utility.yul\":5824:6004   */\n    tag_107:\n        /* \"#utility.yul\":5872:5949   */\n      0x4e487b7100000000000000000000000000000000000000000000000000000000\n        /* \"#utility.yul\":5869:5870   */\n      0x00\n        /* \"#utility.yul\":5862:5950   */\n      mstore\n        /* \"#utility.yul\":5969:5973   */\n      0x41\n        /* \"#utility.yul\":5966:5967   */\n      0x04\n        /* \"#utility.yul\":5959:5974   */\n      mstore\n        /* \"#utility.yul\":5993:5997   */\n      0x24\n        /* \"#utility.yul\":5990:5991   */\n      0x00\n        /* \"#utility.yul\":5983:5998   */\n      revert\n        /* \"#utility.yul\":6010:6112   */\n    tag_109:\n        /* \"#utility.yul\":6051:6057   */\n      0x00\n        /* \"#utility.yul\":6102:6104   */\n      0x1f\n        /* \"#utility.yul\":6098:6105   */\n      not\n        /* \"#utility.yul\":6093:6095   */\n      0x1f\n        /* \"#utility.yul\":6086:6091   */\n      dup4\n        /* \"#utility.yul\":6082:6096   */\n      add\n        /* \"#utility.yul\":6078:6106   */\n      and\n        /* \"#utility.yul\":6068:6106   */\n      swap1\n      pop\n        /* \"#utility.yul\":6058:6112   */\n      swap2\n      swap1\n      pop\n      jump\t// out\n        /* \"#utility.yul\":6118:6288   */\n    tag_79:\n        /* \"#utility.yul\":6258:6280   */\n      0x4661696c656420746f2073656e64204574686572000000000000000000000000\n        /* \"#utility.yul\":6254:6255   */\n      0x00\n        /* \"#utility.yul\":6246:6252   */\n      dup3\n        /* \"#utility.yul\":6242:6256   */\n      add\n        /* \"#utility.yul\":6235:6281   */\n      mstore\n        /* \"#utility.yul\":6224:6288   */\n      pop\n      jump\t// out\n        /* \"#utility.yul\":6294:6408   */\n    tag_85:\n        /* \"#utility.yul\":6400:6408   */\n      pop\n      jump\t// out\n\n    auxdata: 0xa26469706673582212209b3c20fa51c09572d88d279f2c7ab1f4a5d8fdfa23bc59f2cb83ea92165c6ffa64736f6c63430008040033\n}\n",
				"bytecode": {
					"linkReferences": {},
					"object": "608060405234801561001057600080fd5b50610671806100206000396000f3fe60806040526004361061003f5760003560e01c806358d02b0914610044578063893d20e81461006f578063aeb94c9d1461009a578063f0acd7d5146100c3575b600080fd5b34801561005057600080fd5b506100596100cd565b6040516100669190610405565b60405180910390f35b34801561007b57600080fd5b506100846100d3565b60405161009191906103ca565b60405180910390f35b3480156100a657600080fd5b506100c160048036038101906100bc9190610310565b6100fc565b005b6100cb610116565b005b60025481565b60008060009054906101000a900473ffffffffffffffffffffffffffffffffffffffff16905090565b8060019080519060200190610112929190610205565b5050565b678ac7230489e80000341461012a57600080fd5b60025442141561013957600080fd5b426002819055506000600f4261014f9190610540565b14156102035760003373ffffffffffffffffffffffffffffffffffffffff164760405161017b906103b5565b60006040518083038185875af1925050503d80600081146101b8576040519150601f19603f3d011682016040523d82523d6000602084013e6101bd565b606091505b5050905080610201576040517f08c379a00000000000000000000000000000000000000000000000000000000081526004016101f8906103e5565b60405180910390fd5b505b565b828054610211906104dd565b90600052602060002090601f016020900481019282610233576000855561027a565b82601f1061024c57805160ff191683800117855561027a565b8280016001018555821561027a579182015b8281111561027957825182559160200191906001019061025e565b5b509050610287919061028b565b5090565b5b808211156102a457600081600090555060010161028c565b5090565b60006102bb6102b684610445565b610420565b9050828152602081018484840111156102d357600080fd5b6102de8482856104ce565b509392505050565b600082601f8301126102f757600080fd5b81356103078482602086016102a8565b91505092915050565b60006020828403121561032257600080fd5b600082013567ffffffffffffffff81111561033c57600080fd5b610348848285016102e6565b91505092915050565b61035a81610492565b82525050565b600061036d601483610481565b91506103788261060f565b602082019050919050565b6000610390600083610476565b915061039b82610638565b600082019050919050565b6103af816104c4565b82525050565b60006103c082610383565b9150819050919050565b60006020820190506103df6000830184610351565b92915050565b600060208201905081810360008301526103fe81610360565b9050919050565b600060208201905061041a60008301846103a6565b92915050565b600061042a61043b565b9050610436828261050f565b919050565b6000604051905090565b600067ffffffffffffffff8211156104605761045f6105cf565b5b610469826105fe565b9050602081019050919050565b600081905092915050565b600082825260208201905092915050565b600061049d826104a4565b9050919050565b600073ffffffffffffffffffffffffffffffffffffffff82169050919050565b6000819050919050565b82818337600083830152505050565b600060028204905060018216806104f557607f821691505b60208210811415610509576105086105a0565b5b50919050565b610518826105fe565b810181811067ffffffffffffffff82111715610537576105366105cf565b5b80604052505050565b600061054b826104c4565b9150610556836104c4565b92508261056657610565610571565b5b828206905092915050565b7f4e487b7100000000000000000000000000000000000000000000000000000000600052601260045260246000fd5b7f4e487b7100000000000000000000000000000000000000000000000000000000600052602260045260246000fd5b7f4e487b7100000000000000000000000000000000000000000000000000000000600052604160045260246000fd5b6000601f19601f8301169050919050565b7f4661696c656420746f2073656e64204574686572000000000000000000000000600082015250565b5056fea26469706673582212209b3c20fa51c09572d88d279f2c7ab1f4a5d8fdfa23bc59f2cb83ea92165c6ffa64736f6c63430008040033",
					"opcodes": "PUSH1 0x80 PUSH1 0x40 MSTORE CALLVALUE DUP1 ISZERO PUSH2 0x10 JUMPI PUSH1 0x0 DUP1 REVERT JUMPDEST POP PUSH2 0x671 DUP1 PUSH2 0x20 PUSH1 0x0 CODECOPY PUSH1 0x0 RETURN INVALID PUSH1 0x80 PUSH1 0x40 MSTORE PUSH1 0x4 CALLDATASIZE LT PUSH2 0x3F JUMPI PUSH1 0x0 CALLDATALOAD PUSH1 0xE0 SHR DUP1 PUSH4 0x58D02B09 EQ PUSH2 0x44 JUMPI DUP1 PUSH4 0x893D20E8 EQ PUSH2 0x6F JUMPI DUP1 PUSH4 0xAEB94C9D EQ PUSH2 0x9A JUMPI DUP1 PUSH4 0xF0ACD7D5 EQ PUSH2 0xC3 JUMPI JUMPDEST PUSH1 0x0 DUP1 REVERT JUMPDEST CALLVALUE DUP1 ISZERO PUSH2 0x50 JUMPI PUSH1 0x0 DUP1 REVERT JUMPDEST POP PUSH2 0x59 PUSH2 0xCD JUMP JUMPDEST PUSH1 0x40 MLOAD PUSH2 0x66 SWAP2 SWAP1 PUSH2 0x405 JUMP JUMPDEST PUSH1 0x40 MLOAD DUP1 SWAP2 SUB SWAP1 RETURN JUMPDEST CALLVALUE DUP1 ISZERO PUSH2 0x7B JUMPI PUSH1 0x0 DUP1 REVERT JUMPDEST POP PUSH2 0x84 PUSH2 0xD3 JUMP JUMPDEST PUSH1 0x40 MLOAD PUSH2 0x91 SWAP2 SWAP1 PUSH2 0x3CA JUMP JUMPDEST PUSH1 0x40 MLOAD DUP1 SWAP2 SUB SWAP1 RETURN JUMPDEST CALLVALUE DUP1 ISZERO PUSH2 0xA6 JUMPI PUSH1 0x0 DUP1 REVERT JUMPDEST POP PUSH2 0xC1 PUSH1 0x4 DUP1 CALLDATASIZE SUB DUP2 ADD SWAP1 PUSH2 0xBC SWAP2 SWAP1 PUSH2 0x310 JUMP JUMPDEST PUSH2 0xFC JUMP JUMPDEST STOP JUMPDEST PUSH2 0xCB PUSH2 0x116 JUMP JUMPDEST STOP JUMPDEST PUSH1 0x2 SLOAD DUP2 JUMP JUMPDEST PUSH1 0x0 DUP1 PUSH1 0x0 SWAP1 SLOAD SWAP1 PUSH2 0x100 EXP SWAP1 DIV PUSH20 0xFFFFFFFFFFFFFFFFFFFFFFFFFFFFFFFFFFFFFFFF AND SWAP1 POP SWAP1 JUMP JUMPDEST DUP1 PUSH1 0x1 SWAP1 DUP1 MLOAD SWAP1 PUSH1 0x20 ADD SWAP1 PUSH2 0x112 SWAP3 SWAP2 SWAP1 PUSH2 0x205 JUMP JUMPDEST POP POP JUMP JUMPDEST PUSH8 0x8AC7230489E80000 CALLVALUE EQ PUSH2 0x12A JUMPI PUSH1 0x0 DUP1 REVERT JUMPDEST PUSH1 0x2 SLOAD TIMESTAMP EQ ISZERO PUSH2 0x139 JUMPI PUSH1 0x0 DUP1 REVERT JUMPDEST TIMESTAMP PUSH1 0x2 DUP2 SWAP1 SSTORE POP PUSH1 0x0 PUSH1 0xF TIMESTAMP PUSH2 0x14F SWAP2 SWAP1 PUSH2 0x540 JUMP JUMPDEST EQ ISZERO PUSH2 0x203 JUMPI PUSH1 0x0 CALLER PUSH20 0xFFFFFFFFFFFFFFFFFFFFFFFFFFFFFFFFFFFFFFFF AND SELFBALANCE PUSH1 0x40 MLOAD PUSH2 0x17B SWAP1 PUSH2 0x3B5 JUMP JUMPDEST PUSH1 0x0 PUSH1 0x40 MLOAD DUP1 DUP4 SUB DUP2 DUP6 DUP8 GAS CALL SWAP3 POP POP POP RETURNDATASIZE DUP1 PUSH1 0x0 DUP2 EQ PUSH2 0x1B8 JUMPI PUSH1 0x40 MLOAD SWAP2 POP PUSH1 0x1F NOT PUSH1 0x3F RETURNDATASIZE ADD AND DUP3 ADD PUSH1 0x40 MSTORE RETURNDATASIZE DUP3 MSTORE RETURNDATASIZE PUSH1 0x0 PUSH1 0x20 DUP5 ADD RETURNDATACOPY PUSH2 0x1BD JUMP JUMPDEST PUSH1 0x60 SWAP2 POP JUMPDEST POP POP SWAP1 POP DUP1 PUSH2 0x201 JUMPI PUSH1 0x40 MLOAD PUSH32 0x8C379A000000000000000000000000000000000000000000000000000000000 DUP2 MSTORE PUSH1 0x4 ADD PUSH2 0x1F8 SWAP1 PUSH2 0x3E5 JUMP JUMPDEST PUSH1 0x40 MLOAD DUP1 SWAP2 SUB SWAP1 REVERT JUMPDEST POP JUMPDEST JUMP JUMPDEST DUP3 DUP1 SLOAD PUSH2 0x211 SWAP1 PUSH2 0x4DD JUMP JUMPDEST SWAP1 PUSH1 0x0 MSTORE PUSH1 0x20 PUSH1 0x0 KECCAK256 SWAP1 PUSH1 0x1F ADD PUSH1 0x20 SWAP1 DIV DUP2 ADD SWAP3 DUP3 PUSH2 0x233 JUMPI PUSH1 0x0 DUP6 SSTORE PUSH2 0x27A JUMP JUMPDEST DUP3 PUSH1 0x1F LT PUSH2 0x24C JUMPI DUP1 MLOAD PUSH1 0xFF NOT AND DUP4 DUP1 ADD OR DUP6 SSTORE PUSH2 0x27A JUMP JUMPDEST DUP3 DUP1 ADD PUSH1 0x1 ADD DUP6 SSTORE DUP3 ISZERO PUSH2 0x27A JUMPI SWAP2 DUP3 ADD JUMPDEST DUP3 DUP2 GT ISZERO PUSH2 0x279 JUMPI DUP3 MLOAD DUP3 SSTORE SWAP2 PUSH1 0x20 ADD SWAP2 SWAP1 PUSH1 0x1 ADD SWAP1 PUSH2 0x25E JUMP JUMPDEST JUMPDEST POP SWAP1 POP PUSH2 0x287 SWAP2 SWAP1 PUSH2 0x28B JUMP JUMPDEST POP SWAP1 JUMP JUMPDEST JUMPDEST DUP1 DUP3 GT ISZERO PUSH2 0x2A4 JUMPI PUSH1 0x0 DUP2 PUSH1 0x0 SWAP1 SSTORE POP PUSH1 0x1 ADD PUSH2 0x28C JUMP JUMPDEST POP SWAP1 JUMP JUMPDEST PUSH1 0x0 PUSH2 0x2BB PUSH2 0x2B6 DUP5 PUSH2 0x445 JUMP JUMPDEST PUSH2 0x420 JUMP JUMPDEST SWAP1 POP DUP3 DUP2 MSTORE PUSH1 0x20 DUP2 ADD DUP5 DUP5 DUP5 ADD GT ISZERO PUSH2 0x2D3 JUMPI PUSH1 0x0 DUP1 REVERT JUMPDEST PUSH2 0x2DE DUP5 DUP3 DUP6 PUSH2 0x4CE JUMP JUMPDEST POP SWAP4 SWAP3 POP POP POP JUMP JUMPDEST PUSH1 0x0 DUP3 PUSH1 0x1F DUP4 ADD SLT PUSH2 0x2F7 JUMPI PUSH1 0x0 DUP1 REVERT JUMPDEST DUP2 CALLDATALOAD PUSH2 0x307 DUP5 DUP3 PUSH1 0x20 DUP7 ADD PUSH2 0x2A8 JUMP JUMPDEST SWAP2 POP POP SWAP3 SWAP2 POP POP JUMP JUMPDEST PUSH1 0x0 PUSH1 0x20 DUP3 DUP5 SUB SLT ISZERO PUSH2 0x322 JUMPI PUSH1 0x0 DUP1 REVERT JUMPDEST PUSH1 0x0 DUP3 ADD CALLDATALOAD PUSH8 0xFFFFFFFFFFFFFFFF DUP2 GT ISZERO PUSH2 0x33C JUMPI PUSH1 0x0 DUP1 REVERT JUMPDEST PUSH2 0x348 DUP5 DUP3 DUP6 ADD PUSH2 0x2E6 JUMP JUMPDEST SWAP2 POP POP SWAP3 SWAP2 POP POP JUMP JUMPDEST PUSH2 0x35A DUP2 PUSH2 0x492 JUMP JUMPDEST DUP3 MSTORE POP POP JUMP JUMPDEST PUSH1 0x0 PUSH2 0x36D PUSH1 0x14 DUP4 PUSH2 0x481 JUMP JUMPDEST SWAP2 POP PUSH2 0x378 DUP3 PUSH2 0x60F JUMP JUMPDEST PUSH1 0x20 DUP3 ADD SWAP1 POP SWAP2 SWAP1 POP JUMP JUMPDEST PUSH1 0x0 PUSH2 0x390 PUSH1 0x0 DUP4 PUSH2 0x476 JUMP JUMPDEST SWAP2 POP PUSH2 0x39B DUP3 PUSH2 0x638 JUMP JUMPDEST PUSH1 0x0 DUP3 ADD SWAP1 POP SWAP2 SWAP1 POP JUMP JUMPDEST PUSH2 0x3AF DUP2 PUSH2 0x4C4 JUMP JUMPDEST DUP3 MSTORE POP POP JUMP JUMPDEST PUSH1 0x0 PUSH2 0x3C0 DUP3 PUSH2 0x383 JUMP JUMPDEST SWAP2 POP DUP2 SWAP1 POP SWAP2 SWAP1 POP JUMP JUMPDEST PUSH1 0x0 PUSH1 0x20 DUP3 ADD SWAP1 POP PUSH2 0x3DF PUSH1 0x0 DUP4 ADD DUP5 PUSH2 0x351 JUMP JUMPDEST SWAP3 SWAP2 POP POP JUMP JUMPDEST PUSH1 0x0 PUSH1 0x20 DUP3 ADD SWAP1 POP DUP2 DUP2 SUB PUSH1 0x0 DUP4 ADD MSTORE PUSH2 0x3FE DUP2 PUSH2 0x360 JUMP JUMPDEST SWAP1 POP SWAP2 SWAP1 POP JUMP JUMPDEST PUSH1 0x0 PUSH1 0x20 DUP3 ADD SWAP1 POP PUSH2 0x41A PUSH1 0x0 DUP4 ADD DUP5 PUSH2 0x3A6 JUMP JUMPDEST SWAP3 SWAP2 POP POP JUMP JUMPDEST PUSH1 0x0 PUSH2 0x42A PUSH2 0x43B JUMP JUMPDEST SWAP1 POP PUSH2 0x436 DUP3 DUP3 PUSH2 0x50F JUMP JUMPDEST SWAP2 SWAP1 POP JUMP JUMPDEST PUSH1 0x0 PUSH1 0x40 MLOAD SWAP1 POP SWAP1 JUMP JUMPDEST PUSH1 0x0 PUSH8 0xFFFFFFFFFFFFFFFF DUP3 GT ISZERO PUSH2 0x460 JUMPI PUSH2 0x45F PUSH2 0x5CF JUMP JUMPDEST JUMPDEST PUSH2 0x469 DUP3 PUSH2 0x5FE JUMP JUMPDEST SWAP1 POP PUSH1 0x20 DUP2 ADD SWAP1 POP SWAP2 SWAP1 POP JUMP JUMPDEST PUSH1 0x0 DUP2 SWAP1 POP SWAP3 SWAP2 POP POP JUMP JUMPDEST PUSH1 0x0 DUP3 DUP3 MSTORE PUSH1 0x20 DUP3 ADD SWAP1 POP SWAP3 SWAP2 POP POP JUMP JUMPDEST PUSH1 0x0 PUSH2 0x49D DUP3 PUSH2 0x4A4 JUMP JUMPDEST SWAP1 POP SWAP2 SWAP1 POP JUMP JUMPDEST PUSH1 0x0 PUSH20 0xFFFFFFFFFFFFFFFFFFFFFFFFFFFFFFFFFFFFFFFF DUP3 AND SWAP1 POP SWAP2 SWAP1 POP JUMP JUMPDEST PUSH1 0x0 DUP2 SWAP1 POP SWAP2 SWAP1 POP JUMP JUMPDEST DUP3 DUP2 DUP4 CALLDATACOPY PUSH1 0x0 DUP4 DUP4 ADD MSTORE POP POP POP JUMP JUMPDEST PUSH1 0x0 PUSH1 0x2 DUP3 DIV SWAP1 POP PUSH1 0x1 DUP3 AND DUP1 PUSH2 0x4F5 JUMPI PUSH1 0x7F DUP3 AND SWAP2 POP JUMPDEST PUSH1 0x20 DUP3 LT DUP2 EQ ISZERO PUSH2 0x509 JUMPI PUSH2 0x508 PUSH2 0x5A0 JUMP JUMPDEST JUMPDEST POP SWAP2 SWAP1 POP JUMP JUMPDEST PUSH2 0x518 DUP3 PUSH2 0x5FE JUMP JUMPDEST DUP2 ADD DUP2 DUP2 LT PUSH8 0xFFFFFFFFFFFFFFFF DUP3 GT OR ISZERO PUSH2 0x537 JUMPI PUSH2 0x536 PUSH2 0x5CF JUMP JUMPDEST JUMPDEST DUP1 PUSH1 0x40 MSTORE POP POP POP JUMP JUMPDEST PUSH1 0x0 PUSH2 0x54B DUP3 PUSH2 0x4C4 JUMP JUMPDEST SWAP2 POP PUSH2 0x556 DUP4 PUSH2 0x4C4 JUMP JUMPDEST SWAP3 POP DUP3 PUSH2 0x566 JUMPI PUSH2 0x565 PUSH2 0x571 JUMP JUMPDEST JUMPDEST DUP3 DUP3 MOD SWAP1 POP SWAP3 SWAP2 POP POP JUMP JUMPDEST PUSH32 0x4E487B7100000000000000000000000000000000000000000000000000000000 PUSH1 0x0 MSTORE PUSH1 0x12 PUSH1 0x4 MSTORE PUSH1 0x24 PUSH1 0x0 REVERT JUMPDEST PUSH32 0x4E487B7100000000000000000000000000000000000000000000000000000000 PUSH1 0x0 MSTORE PUSH1 0x22 PUSH1 0x4 MSTORE PUSH1 0x24 PUSH1 0x0 REVERT JUMPDEST PUSH32 0x4E487B7100000000000000000000000000000000000000000000000000000000 PUSH1 0x0 MSTORE PUSH1 0x41 PUSH1 0x4 MSTORE PUSH1 0x24 PUSH1 0x0 REVERT JUMPDEST PUSH1 0x0 PUSH1 0x1F NOT PUSH1 0x1F DUP4 ADD AND SWAP1 POP SWAP2 SWAP1 POP JUMP JUMPDEST PUSH32 0x4661696C656420746F2073656E64204574686572000000000000000000000000 PUSH1 0x0 DUP3 ADD MSTORE POP JUMP JUMPDEST POP JUMP INVALID LOG2 PUSH5 0x6970667358 0x22 SLT KECCAK256 SWAP12 EXTCODECOPY KECCAK256 STATICCALL MLOAD 0xC0 SWAP6 PUSH19 0xD88D279F2C7AB1F4A5D8FDFA23BC59F2CB83EA SWAP3 AND 0x5C PUSH16 0xFA64736F6C6343000804003300000000 "
				},
				"gasEstimates": {
					"creation": {
						"codeDepositCost": "329800",
						"executionCost": "368",
						"totalCost": "330168"
					},
					"external": {
						"getOwner()": "1222",
						"pastBlockTime()": "1107",
						"setTypePermission(string)": "infinite",
						"spin()": "infinite"
					}
				},
				"methodIdentifiers": {
					"getOwner()": "893d20e8",
					"pastBlockTime()": "58d02b09",
					"setTypePermission(string)": "aeb94c9d",
					"spin()": "f0acd7d5"
				}
			},
			"storageLayout": {
				"storage": [
					{
						"astId": 3,
						"contract": "contracts/Histochain.sol:Histochain",
						"label": "_owner",
						"offset": 0,
						"slot": "0",
						"type": "t_address"
					},
					{
						"astId": 5,
						"contract": "contracts/Histochain.sol:Histochain",
						"label": "_type",
						"offset": 0,
						"slot": "1",
						"type": "t_string_storage"
					},
					{
						"astId": 7,
						"contract": "contracts/Histochain.sol:Histochain",
						"label": "pastBlockTime",
						"offset": 0,
						"slot": "2",
						"type": "t_uint256"
					}
				],
				"types": {
					"t_address": {
						"encoding": "inplace",
						"label": "address",
						"numberOfBytes": "20"
					},
					"t_string_storage": {
						"encoding": "bytes",
						"label": "string",
						"numberOfBytes": "32"
					},
					"t_uint256": {
						"encoding": "inplace",
						"label": "uint256",
						"numberOfBytes": "32"
					}
				}
			},
			"userdoc": {
				"kind": "user",
				"methods": {},
				"version": 1
			}
		}
	}
}