{
	"contracts/MedicalData.sol": {
		"MedicalData": {
			"abi": [
				{
					"inputs": [],
					"name": "appoint",
					"outputs": [
						{
							"internalType": "string",
							"name": "",
							"type": "string"
						}
					],
					"stateMutability": "view",
					"type": "function"
				},
				{
					"inputs": [],
					"name": "history",
					"outputs": [
						{
							"internalType": "contract MedicalHistory",
							"name": "",
							"type": "address"
						}
					],
					"stateMutability": "view",
					"type": "function"
				},
				{
					"inputs": [],
					"name": "owner",
					"outputs": [
						{
							"internalType": "address",
							"name": "",
							"type": "address"
						}
					],
					"stateMutability": "view",
					"type": "function"
				}
			],
			"devdoc": {
				"kind": "dev",
				"methods": {},
				"version": 1
			},
			"evm": {
				"assembly": "    /* \"contracts/MedicalData.sol\":100:218  contract MedicalData {... */\n  mstore(0x40, 0x80)\n  callvalue\n  dup1\n  iszero\n  tag_1\n  jumpi\n  0x00\n  dup1\n  revert\ntag_1:\n  pop\n  dataSize(sub_0)\n  dup1\n  dataOffset(sub_0)\n  0x00\n  codecopy\n  0x00\n  return\nstop\n\nsub_0: assembly {\n        /* \"contracts/MedicalData.sol\":100:218  contract MedicalData {... */\n      mstore(0x40, 0x80)\n      callvalue\n      dup1\n      iszero\n      tag_1\n      jumpi\n      0x00\n      dup1\n      revert\n    tag_1:\n      pop\n      jumpi(tag_2, lt(calldatasize, 0x04))\n      shr(0xe0, calldataload(0x00))\n      dup1\n      0x8da5cb5b\n      eq\n      tag_3\n      jumpi\n      dup1\n      0x98daac83\n      eq\n      tag_4\n      jumpi\n      dup1\n      0x99eb2221\n      eq\n      tag_5\n      jumpi\n    tag_2:\n      0x00\n      dup1\n      revert\n        /* \"contracts/MedicalData.sol\":130:150  address public owner */\n    tag_3:\n      tag_6\n      tag_7\n      jump\t// in\n    tag_6:\n      mload(0x40)\n      tag_8\n      swap2\n      swap1\n      tag_9\n      jump\t// in\n    tag_8:\n      mload(0x40)\n      dup1\n      swap2\n      sub\n      swap1\n      return\n        /* \"contracts/MedicalData.sol\":157:186  MedicalHistory public history */\n    tag_4:\n      tag_10\n      tag_11\n      jump\t// in\n    tag_10:\n      mload(0x40)\n      tag_12\n      swap2\n      swap1\n      tag_13\n      jump\t// in\n    tag_12:\n      mload(0x40)\n      dup1\n      swap2\n      sub\n      swap1\n      return\n        /* \"contracts/MedicalData.sol\":193:214  string public appoint */\n    tag_5:\n      tag_14\n      tag_15\n      jump\t// in\n    tag_14:\n      mload(0x40)\n      tag_16\n      swap2\n      swap1\n      tag_17\n      jump\t// in\n    tag_16:\n      mload(0x40)\n      dup1\n      swap2\n      sub\n      swap1\n      return\n        /* \"contracts/MedicalData.sol\":130:150  address public owner */\n    tag_7:\n      0x00\n      dup1\n      sload\n      swap1\n      0x0100\n      exp\n      swap1\n      div\n      0xffffffffffffffffffffffffffffffffffffffff\n      and\n      dup2\n      jump\t// out\n        /* \"contracts/MedicalData.sol\":157:186  MedicalHistory public history */\n    tag_11:\n      0x01\n      0x00\n      swap1\n      sload\n      swap1\n      0x0100\n      exp\n      swap1\n      div\n      0xffffffffffffffffffffffffffffffffffffffff\n      and\n      dup2\n      jump\t// out\n        /* \"contracts/MedicalData.sol\":193:214  string public appoint */\n    tag_15:\n      0x02\n      dup1\n      sload\n      tag_18\n      swap1\n      tag_19\n      jump\t// in\n    tag_18:\n      dup1\n      0x1f\n      add\n      0x20\n      dup1\n      swap2\n      div\n      mul\n      0x20\n      add\n      mload(0x40)\n      swap1\n      dup2\n      add\n      0x40\n      mstore\n      dup1\n      swap3\n      swap2\n      swap1\n      dup2\n      dup2\n      mstore\n      0x20\n      add\n      dup3\n      dup1\n      sload\n      tag_20\n      swap1\n      tag_19\n      jump\t// in\n    tag_20:\n      dup1\n      iszero\n      tag_21\n      jumpi\n      dup1\n      0x1f\n      lt\n      tag_22\n      jumpi\n      0x0100\n      dup1\n      dup4\n      sload\n      div\n      mul\n      dup4\n      mstore\n      swap2\n      0x20\n      add\n      swap2\n      jump(tag_21)\n    tag_22:\n      dup3\n      add\n      swap2\n      swap1\n      0x00\n      mstore\n      keccak256(0x00, 0x20)\n      swap1\n    tag_23:\n      dup2\n      sload\n      dup2\n      mstore\n      swap1\n      0x01\n      add\n      swap1\n      0x20\n      add\n      dup1\n      dup4\n      gt\n      tag_23\n      jumpi\n      dup3\n      swap1\n      sub\n      0x1f\n      and\n      dup3\n      add\n      swap2\n    tag_21:\n      pop\n      pop\n      pop\n      pop\n      pop\n      dup2\n      jump\t// out\n        /* \"#utility.yul\":7:133   */\n    tag_24:\n        /* \"#utility.yul\":44:51   */\n      0x00\n        /* \"#utility.yul\":84:126   */\n      0xffffffffffffffffffffffffffffffffffffffff\n        /* \"#utility.yul\":77:82   */\n      dup3\n        /* \"#utility.yul\":73:127   */\n      and\n        /* \"#utility.yul\":62:127   */\n      swap1\n      pop\n        /* \"#utility.yul\":7:133   */\n      swap2\n      swap1\n      pop\n      jump\t// out\n        /* \"#utility.yul\":139:235   */\n    tag_25:\n        /* \"#utility.yul\":176:183   */\n      0x00\n        /* \"#utility.yul\":205:229   */\n      tag_41\n        /* \"#utility.yul\":223:228   */\n      dup3\n        /* \"#utility.yul\":205:229   */\n      tag_24\n      jump\t// in\n    tag_41:\n        /* \"#utility.yul\":194:229   */\n      swap1\n      pop\n        /* \"#utility.yul\":139:235   */\n      swap2\n      swap1\n      pop\n      jump\t// out\n        /* \"#utility.yul\":241:359   */\n    tag_26:\n        /* \"#utility.yul\":328:352   */\n      tag_43\n        /* \"#utility.yul\":346:351   */\n      dup2\n        /* \"#utility.yul\":328:352   */\n      tag_25\n      jump\t// in\n    tag_43:\n        /* \"#utility.yul\":323:326   */\n      dup3\n        /* \"#utility.yul\":316:353   */\n      mstore\n        /* \"#utility.yul\":241:359   */\n      pop\n      pop\n      jump\t// out\n        /* \"#utility.yul\":365:587   */\n    tag_9:\n        /* \"#utility.yul\":458:462   */\n      0x00\n        /* \"#utility.yul\":496:498   */\n      0x20\n        /* \"#utility.yul\":485:494   */\n      dup3\n        /* \"#utility.yul\":481:499   */\n      add\n        /* \"#utility.yul\":473:499   */\n      swap1\n      pop\n        /* \"#utility.yul\":509:580   */\n      tag_45\n        /* \"#utility.yul\":577:578   */\n      0x00\n        /* \"#utility.yul\":566:575   */\n      dup4\n        /* \"#utility.yul\":562:579   */\n      add\n        /* \"#utility.yul\":553:559   */\n      dup5\n        /* \"#utility.yul\":509:580   */\n      tag_26\n      jump\t// in\n    tag_45:\n        /* \"#utility.yul\":365:587   */\n      swap3\n      swap2\n      pop\n      pop\n      jump\t// out\n        /* \"#utility.yul\":593:653   */\n    tag_27:\n        /* \"#utility.yul\":621:624   */\n      0x00\n        /* \"#utility.yul\":642:647   */\n      dup2\n        /* \"#utility.yul\":635:647   */\n      swap1\n      pop\n        /* \"#utility.yul\":593:653   */\n      swap2\n      swap1\n      pop\n      jump\t// out\n        /* \"#utility.yul\":659:801   */\n    tag_28:\n        /* \"#utility.yul\":709:718   */\n      0x00\n        /* \"#utility.yul\":742:795   */\n      tag_48\n        /* \"#utility.yul\":760:794   */\n      tag_49\n        /* \"#utility.yul\":769:793   */\n      tag_50\n        /* \"#utility.yul\":787:792   */\n      dup5\n        /* \"#utility.yul\":769:793   */\n      tag_24\n      jump\t// in\n    tag_50:\n        /* \"#utility.yul\":760:794   */\n      tag_27\n      jump\t// in\n    tag_49:\n        /* \"#utility.yul\":742:795   */\n      tag_24\n      jump\t// in\n    tag_48:\n        /* \"#utility.yul\":729:795   */\n      swap1\n      pop\n        /* \"#utility.yul\":659:801   */\n      swap2\n      swap1\n      pop\n      jump\t// out\n        /* \"#utility.yul\":807:933   */\n    tag_29:\n        /* \"#utility.yul\":857:866   */\n      0x00\n        /* \"#utility.yul\":890:927   */\n      tag_52\n        /* \"#utility.yul\":921:926   */\n      dup3\n        /* \"#utility.yul\":890:927   */\n      tag_28\n      jump\t// in\n    tag_52:\n        /* \"#utility.yul\":877:927   */\n      swap1\n      pop\n        /* \"#utility.yul\":807:933   */\n      swap2\n      swap1\n      pop\n      jump\t// out\n        /* \"#utility.yul\":939:1086   */\n    tag_30:\n        /* \"#utility.yul\":1010:1019   */\n      0x00\n        /* \"#utility.yul\":1043:1080   */\n      tag_54\n        /* \"#utility.yul\":1074:1079   */\n      dup3\n        /* \"#utility.yul\":1043:1080   */\n      tag_29\n      jump\t// in\n    tag_54:\n        /* \"#utility.yul\":1030:1080   */\n      swap1\n      pop\n        /* \"#utility.yul\":939:1086   */\n      swap2\n      swap1\n      pop\n      jump\t// out\n        /* \"#utility.yul\":1092:1265   */\n    tag_31:\n        /* \"#utility.yul\":1200:1258   */\n      tag_56\n        /* \"#utility.yul\":1252:1257   */\n      dup2\n        /* \"#utility.yul\":1200:1258   */\n      tag_30\n      jump\t// in\n    tag_56:\n        /* \"#utility.yul\":1195:1198   */\n      dup3\n        /* \"#utility.yul\":1188:1259   */\n      mstore\n        /* \"#utility.yul\":1092:1265   */\n      pop\n      pop\n      jump\t// out\n        /* \"#utility.yul\":1271:1535   */\n    tag_13:\n        /* \"#utility.yul\":1385:1389   */\n      0x00\n        /* \"#utility.yul\":1423:1425   */\n      0x20\n        /* \"#utility.yul\":1412:1421   */\n      dup3\n        /* \"#utility.yul\":1408:1426   */\n      add\n        /* \"#utility.yul\":1400:1426   */\n      swap1\n      pop\n        /* \"#utility.yul\":1436:1528   */\n      tag_58\n        /* \"#utility.yul\":1525:1526   */\n      0x00\n        /* \"#utility.yul\":1514:1523   */\n      dup4\n        /* \"#utility.yul\":1510:1527   */\n      add\n        /* \"#utility.yul\":1501:1507   */\n      dup5\n        /* \"#utility.yul\":1436:1528   */\n      tag_31\n      jump\t// in\n    tag_58:\n        /* \"#utility.yul\":1271:1535   */\n      swap3\n      swap2\n      pop\n      pop\n      jump\t// out\n        /* \"#utility.yul\":1541:1640   */\n    tag_32:\n        /* \"#utility.yul\":1593:1599   */\n      0x00\n        /* \"#utility.yul\":1627:1632   */\n      dup2\n        /* \"#utility.yul\":1621:1633   */\n      mload\n        /* \"#utility.yul\":1611:1633   */\n      swap1\n      pop\n        /* \"#utility.yul\":1541:1640   */\n      swap2\n      swap1\n      pop\n      jump\t// out\n        /* \"#utility.yul\":1646:1815   */\n    tag_33:\n        /* \"#utility.yul\":1730:1741   */\n      0x00\n        /* \"#utility.yul\":1764:1770   */\n      dup3\n        /* \"#utility.yul\":1759:1762   */\n      dup3\n        /* \"#utility.yul\":1752:1771   */\n      mstore\n        /* \"#utility.yul\":1804:1808   */\n      0x20\n        /* \"#utility.yul\":1799:1802   */\n      dup3\n        /* \"#utility.yul\":1795:1809   */\n      add\n        /* \"#utility.yul\":1780:1809   */\n      swap1\n      pop\n        /* \"#utility.yul\":1646:1815   */\n      swap3\n      swap2\n      pop\n      pop\n      jump\t// out\n        /* \"#utility.yul\":1821:2067   */\n    tag_34:\n        /* \"#utility.yul\":1902:1903   */\n      0x00\n        /* \"#utility.yul\":1912:2025   */\n    tag_62:\n        /* \"#utility.yul\":1926:1932   */\n      dup4\n        /* \"#utility.yul\":1923:1924   */\n      dup2\n        /* \"#utility.yul\":1920:1933   */\n      lt\n        /* \"#utility.yul\":1912:2025   */\n      iszero\n      tag_64\n      jumpi\n        /* \"#utility.yul\":2011:2012   */\n      dup1\n        /* \"#utility.yul\":2006:2009   */\n      dup3\n        /* \"#utility.yul\":2002:2013   */\n      add\n        /* \"#utility.yul\":1996:2014   */\n      mload\n        /* \"#utility.yul\":1992:1993   */\n      dup2\n        /* \"#utility.yul\":1987:1990   */\n      dup5\n        /* \"#utility.yul\":1983:1994   */\n      add\n        /* \"#utility.yul\":1976:2015   */\n      mstore\n        /* \"#utility.yul\":1948:1950   */\n      0x20\n        /* \"#utility.yul\":1945:1946   */\n      dup2\n        /* \"#utility.yul\":1941:1951   */\n      add\n        /* \"#utility.yul\":1936:1951   */\n      swap1\n      pop\n        /* \"#utility.yul\":1912:2025   */\n      jump(tag_62)\n    tag_64:\n        /* \"#utility.yul\":2059:2060   */\n      0x00\n        /* \"#utility.yul\":2050:2056   */\n      dup5\n        /* \"#utility.yul\":2045:2048   */\n      dup5\n        /* \"#utility.yul\":2041:2057   */\n      add\n        /* \"#utility.yul\":2034:2061   */\n      mstore\n        /* \"#utility.yul\":1883:2067   */\n      pop\n        /* \"#utility.yul\":1821:2067   */\n      pop\n      pop\n      pop\n      jump\t// out\n        /* \"#utility.yul\":2073:2175   */\n    tag_35:\n        /* \"#utility.yul\":2114:2120   */\n      0x00\n        /* \"#utility.yul\":2165:2167   */\n      0x1f\n        /* \"#utility.yul\":2161:2168   */\n      not\n        /* \"#utility.yul\":2156:2158   */\n      0x1f\n        /* \"#utility.yul\":2149:2154   */\n      dup4\n        /* \"#utility.yul\":2145:2159   */\n      add\n        /* \"#utility.yul\":2141:2169   */\n      and\n        /* \"#utility.yul\":2131:2169   */\n      swap1\n      pop\n        /* \"#utility.yul\":2073:2175   */\n      swap2\n      swap1\n      pop\n      jump\t// out\n        /* \"#utility.yul\":2181:2558   */\n    tag_36:\n        /* \"#utility.yul\":2269:2272   */\n      0x00\n        /* \"#utility.yul\":2297:2336   */\n      tag_67\n        /* \"#utility.yul\":2330:2335   */\n      dup3\n        /* \"#utility.yul\":2297:2336   */\n      tag_32\n      jump\t// in\n    tag_67:\n        /* \"#utility.yul\":2352:2423   */\n      tag_68\n        /* \"#utility.yul\":2416:2422   */\n      dup2\n        /* \"#utility.yul\":2411:2414   */\n      dup6\n        /* \"#utility.yul\":2352:2423   */\n      tag_33\n      jump\t// in\n    tag_68:\n        /* \"#utility.yul\":2345:2423   */\n      swap4\n      pop\n        /* \"#utility.yul\":2432:2497   */\n      tag_69\n        /* \"#utility.yul\":2490:2496   */\n      dup2\n        /* \"#utility.yul\":2485:2488   */\n      dup6\n        /* \"#utility.yul\":2478:2482   */\n      0x20\n        /* \"#utility.yul\":2471:2476   */\n      dup7\n        /* \"#utility.yul\":2467:2483   */\n      add\n        /* \"#utility.yul\":2432:2497   */\n      tag_34\n      jump\t// in\n    tag_69:\n        /* \"#utility.yul\":2522:2551   */\n      tag_70\n        /* \"#utility.yul\":2544:2550   */\n      dup2\n        /* \"#utility.yul\":2522:2551   */\n      tag_35\n      jump\t// in\n    tag_70:\n        /* \"#utility.yul\":2517:2520   */\n      dup5\n        /* \"#utility.yul\":2513:2552   */\n      add\n        /* \"#utility.yul\":2506:2552   */\n      swap2\n      pop\n        /* \"#utility.yul\":2273:2558   */\n      pop\n        /* \"#utility.yul\":2181:2558   */\n      swap3\n      swap2\n      pop\n      pop\n      jump\t// out\n        /* \"#utility.yul\":2564:2877   */\n    tag_17:\n        /* \"#utility.yul\":2677:2681   */\n      0x00\n        /* \"#utility.yul\":2715:2717   */\n      0x20\n        /* \"#utility.yul\":2704:2713   */\n      dup3\n        /* \"#utility.yul\":2700:2718   */\n      add\n        /* \"#utility.yul\":2692:2718   */\n      swap1\n      pop\n        /* \"#utility.yul\":2764:2773   */\n      dup2\n        /* \"#utility.yul\":2758:2762   */\n      dup2\n        /* \"#utility.yul\":2754:2774   */\n      sub\n        /* \"#utility.yul\":2750:2751   */\n      0x00\n        /* \"#utility.yul\":2739:2748   */\n      dup4\n        /* \"#utility.yul\":2735:2752   */\n      add\n        /* \"#utility.yul\":2728:2775   */\n      mstore\n        /* \"#utility.yul\":2792:2870   */\n      tag_72\n        /* \"#utility.yul\":2865:2869   */\n      dup2\n        /* \"#utility.yul\":2856:2862   */\n      dup5\n        /* \"#utility.yul\":2792:2870   */\n      tag_36\n      jump\t// in\n    tag_72:\n        /* \"#utility.yul\":2784:2870   */\n      swap1\n      pop\n        /* \"#utility.yul\":2564:2877   */\n      swap3\n      swap2\n      pop\n      pop\n      jump\t// out\n        /* \"#utility.yul\":2883:3063   */\n    tag_37:\n        /* \"#utility.yul\":2931:3008   */\n      0x4e487b7100000000000000000000000000000000000000000000000000000000\n        /* \"#utility.yul\":2928:2929   */\n      0x00\n        /* \"#utility.yul\":2921:3009   */\n      mstore\n        /* \"#utility.yul\":3028:3032   */\n      0x22\n        /* \"#utility.yul\":3025:3026   */\n      0x04\n        /* \"#utility.yul\":3018:3033   */\n      mstore\n        /* \"#utility.yul\":3052:3056   */\n      0x24\n        /* \"#utility.yul\":3049:3050   */\n      0x00\n        /* \"#utility.yul\":3042:3057   */\n      revert\n        /* \"#utility.yul\":3069:3389   */\n    tag_19:\n        /* \"#utility.yul\":3113:3119   */\n      0x00\n        /* \"#utility.yul\":3150:3151   */\n      0x02\n        /* \"#utility.yul\":3144:3148   */\n      dup3\n        /* \"#utility.yul\":3140:3152   */\n      div\n        /* \"#utility.yul\":3130:3152   */\n      swap1\n      pop\n        /* \"#utility.yul\":3197:3198   */\n      0x01\n        /* \"#utility.yul\":3191:3195   */\n      dup3\n        /* \"#utility.yul\":3187:3199   */\n      and\n        /* \"#utility.yul\":3218:3236   */\n      dup1\n        /* \"#utility.yul\":3208:3289   */\n      tag_75\n      jumpi\n        /* \"#utility.yul\":3274:3278   */\n      0x7f\n        /* \"#utility.yul\":3266:3272   */\n      dup3\n        /* \"#utility.yul\":3262:3279   */\n      and\n        /* \"#utility.yul\":3252:3279   */\n      swap2\n      pop\n        /* \"#utility.yul\":3208:3289   */\n    tag_75:\n        /* \"#utility.yul\":3336:3338   */\n      0x20\n        /* \"#utility.yul\":3328:3334   */\n      dup3\n        /* \"#utility.yul\":3325:3339   */\n      lt\n        /* \"#utility.yul\":3305:3323   */\n      dup2\n        /* \"#utility.yul\":3302:3340   */\n      sub\n        /* \"#utility.yul\":3299:3383   */\n      tag_76\n      jumpi\n        /* \"#utility.yul\":3355:3373   */\n      tag_77\n      tag_37\n      jump\t// in\n    tag_77:\n        /* \"#utility.yul\":3299:3383   */\n    tag_76:\n        /* \"#utility.yul\":3120:3389   */\n      pop\n        /* \"#utility.yul\":3069:3389   */\n      swap2\n      swap1\n      pop\n      jump\t// out\n\n    auxdata: 0xa2646970667358221220a9981973de6f9eaa0bfa8ea1c7f6f6757da49ecf1a21d3a367b5b41c326bc68264736f6c63430008110033\n}\n",
				"bytecode": {
					"linkReferences": {},
					"object": "608060405234801561001057600080fd5b50610396806100206000396000f3fe608060405234801561001057600080fd5b50600436106100415760003560e01c80638da5cb5b1461004657806398daac831461006457806399eb222114610082575b600080fd5b61004e6100a0565b60405161005b91906101b9565b60405180910390f35b61006c6100c4565b6040516100799190610233565b60405180910390f35b61008a6100ea565b60405161009791906102de565b60405180910390f35b60008054906101000a900473ffffffffffffffffffffffffffffffffffffffff1681565b600160009054906101000a900473ffffffffffffffffffffffffffffffffffffffff1681565b600280546100f79061032f565b80601f01602080910402602001604051908101604052809291908181526020018280546101239061032f565b80156101705780601f1061014557610100808354040283529160200191610170565b820191906000526020600020905b81548152906001019060200180831161015357829003601f168201915b505050505081565b600073ffffffffffffffffffffffffffffffffffffffff82169050919050565b60006101a382610178565b9050919050565b6101b381610198565b82525050565b60006020820190506101ce60008301846101aa565b92915050565b6000819050919050565b60006101f96101f46101ef84610178565b6101d4565b610178565b9050919050565b600061020b826101de565b9050919050565b600061021d82610200565b9050919050565b61022d81610212565b82525050565b60006020820190506102486000830184610224565b92915050565b600081519050919050565b600082825260208201905092915050565b60005b8381101561028857808201518184015260208101905061026d565b60008484015250505050565b6000601f19601f8301169050919050565b60006102b08261024e565b6102ba8185610259565b93506102ca81856020860161026a565b6102d381610294565b840191505092915050565b600060208201905081810360008301526102f881846102a5565b905092915050565b7f4e487b7100000000000000000000000000000000000000000000000000000000600052602260045260246000fd5b6000600282049050600182168061034757607f821691505b60208210810361035a57610359610300565b5b5091905056fea2646970667358221220a9981973de6f9eaa0bfa8ea1c7f6f6757da49ecf1a21d3a367b5b41c326bc68264736f6c63430008110033",
					"opcodes": "PUSH1 0x80 PUSH1 0x40 MSTORE CALLVALUE DUP1 ISZERO PUSH2 0x10 JUMPI PUSH1 0x0 DUP1 REVERT JUMPDEST POP PUSH2 0x396 DUP1 PUSH2 0x20 PUSH1 0x0 CODECOPY PUSH1 0x0 RETURN INVALID PUSH1 0x80 PUSH1 0x40 MSTORE CALLVALUE DUP1 ISZERO PUSH2 0x10 JUMPI PUSH1 0x0 DUP1 REVERT JUMPDEST POP PUSH1 0x4 CALLDATASIZE LT PUSH2 0x41 JUMPI PUSH1 0x0 CALLDATALOAD PUSH1 0xE0 SHR DUP1 PUSH4 0x8DA5CB5B EQ PUSH2 0x46 JUMPI DUP1 PUSH4 0x98DAAC83 EQ PUSH2 0x64 JUMPI DUP1 PUSH4 0x99EB2221 EQ PUSH2 0x82 JUMPI JUMPDEST PUSH1 0x0 DUP1 REVERT JUMPDEST PUSH2 0x4E PUSH2 0xA0 JUMP JUMPDEST PUSH1 0x40 MLOAD PUSH2 0x5B SWAP2 SWAP1 PUSH2 0x1B9 JUMP JUMPDEST PUSH1 0x40 MLOAD DUP1 SWAP2 SUB SWAP1 RETURN JUMPDEST PUSH2 0x6C PUSH2 0xC4 JUMP JUMPDEST PUSH1 0x40 MLOAD PUSH2 0x79 SWAP2 SWAP1 PUSH2 0x233 JUMP JUMPDEST PUSH1 0x40 MLOAD DUP1 SWAP2 SUB SWAP1 RETURN JUMPDEST PUSH2 0x8A PUSH2 0xEA JUMP JUMPDEST PUSH1 0x40 MLOAD PUSH2 0x97 SWAP2 SWAP1 PUSH2 0x2DE JUMP JUMPDEST PUSH1 0x40 MLOAD DUP1 SWAP2 SUB SWAP1 RETURN JUMPDEST PUSH1 0x0 DUP1 SLOAD SWAP1 PUSH2 0x100 EXP SWAP1 DIV PUSH20 0xFFFFFFFFFFFFFFFFFFFFFFFFFFFFFFFFFFFFFFFF AND DUP2 JUMP JUMPDEST PUSH1 0x1 PUSH1 0x0 SWAP1 SLOAD SWAP1 PUSH2 0x100 EXP SWAP1 DIV PUSH20 0xFFFFFFFFFFFFFFFFFFFFFFFFFFFFFFFFFFFFFFFF AND DUP2 JUMP JUMPDEST PUSH1 0x2 DUP1 SLOAD PUSH2 0xF7 SWAP1 PUSH2 0x32F JUMP JUMPDEST DUP1 PUSH1 0x1F ADD PUSH1 0x20 DUP1 SWAP2 DIV MUL PUSH1 0x20 ADD PUSH1 0x40 MLOAD SWAP1 DUP2 ADD PUSH1 0x40 MSTORE DUP1 SWAP3 SWAP2 SWAP1 DUP2 DUP2 MSTORE PUSH1 0x20 ADD DUP3 DUP1 SLOAD PUSH2 0x123 SWAP1 PUSH2 0x32F JUMP JUMPDEST DUP1 ISZERO PUSH2 0x170 JUMPI DUP1 PUSH1 0x1F LT PUSH2 0x145 JUMPI PUSH2 0x100 DUP1 DUP4 SLOAD DIV MUL DUP4 MSTORE SWAP2 PUSH1 0x20 ADD SWAP2 PUSH2 0x170 JUMP JUMPDEST DUP3 ADD SWAP2 SWAP1 PUSH1 0x0 MSTORE PUSH1 0x20 PUSH1 0x0 KECCAK256 SWAP1 JUMPDEST DUP2 SLOAD DUP2 MSTORE SWAP1 PUSH1 0x1 ADD SWAP1 PUSH1 0x20 ADD DUP1 DUP4 GT PUSH2 0x153 JUMPI DUP3 SWAP1 SUB PUSH1 0x1F AND DUP3 ADD SWAP2 JUMPDEST POP POP POP POP POP DUP2 JUMP JUMPDEST PUSH1 0x0 PUSH20 0xFFFFFFFFFFFFFFFFFFFFFFFFFFFFFFFFFFFFFFFF DUP3 AND SWAP1 POP SWAP2 SWAP1 POP JUMP JUMPDEST PUSH1 0x0 PUSH2 0x1A3 DUP3 PUSH2 0x178 JUMP JUMPDEST SWAP1 POP SWAP2 SWAP1 POP JUMP JUMPDEST PUSH2 0x1B3 DUP2 PUSH2 0x198 JUMP JUMPDEST DUP3 MSTORE POP POP JUMP JUMPDEST PUSH1 0x0 PUSH1 0x20 DUP3 ADD SWAP1 POP PUSH2 0x1CE PUSH1 0x0 DUP4 ADD DUP5 PUSH2 0x1AA JUMP JUMPDEST SWAP3 SWAP2 POP POP JUMP JUMPDEST PUSH1 0x0 DUP2 SWAP1 POP SWAP2 SWAP1 POP JUMP JUMPDEST PUSH1 0x0 PUSH2 0x1F9 PUSH2 0x1F4 PUSH2 0x1EF DUP5 PUSH2 0x178 JUMP JUMPDEST PUSH2 0x1D4 JUMP JUMPDEST PUSH2 0x178 JUMP JUMPDEST SWAP1 POP SWAP2 SWAP1 POP JUMP JUMPDEST PUSH1 0x0 PUSH2 0x20B DUP3 PUSH2 0x1DE JUMP JUMPDEST SWAP1 POP SWAP2 SWAP1 POP JUMP JUMPDEST PUSH1 0x0 PUSH2 0x21D DUP3 PUSH2 0x200 JUMP JUMPDEST SWAP1 POP SWAP2 SWAP1 POP JUMP JUMPDEST PUSH2 0x22D DUP2 PUSH2 0x212 JUMP JUMPDEST DUP3 MSTORE POP POP JUMP JUMPDEST PUSH1 0x0 PUSH1 0x20 DUP3 ADD SWAP1 POP PUSH2 0x248 PUSH1 0x0 DUP4 ADD DUP5 PUSH2 0x224 JUMP JUMPDEST SWAP3 SWAP2 POP POP JUMP JUMPDEST PUSH1 0x0 DUP2 MLOAD SWAP1 POP SWAP2 SWAP1 POP JUMP JUMPDEST PUSH1 0x0 DUP3 DUP3 MSTORE PUSH1 0x20 DUP3 ADD SWAP1 POP SWAP3 SWAP2 POP POP JUMP JUMPDEST PUSH1 0x0 JUMPDEST DUP4 DUP2 LT ISZERO PUSH2 0x288 JUMPI DUP1 DUP3 ADD MLOAD DUP2 DUP5 ADD MSTORE PUSH1 0x20 DUP2 ADD SWAP1 POP PUSH2 0x26D JUMP JUMPDEST PUSH1 0x0 DUP5 DUP5 ADD MSTORE POP POP POP POP JUMP JUMPDEST PUSH1 0x0 PUSH1 0x1F NOT PUSH1 0x1F DUP4 ADD AND SWAP1 POP SWAP2 SWAP1 POP JUMP JUMPDEST PUSH1 0x0 PUSH2 0x2B0 DUP3 PUSH2 0x24E JUMP JUMPDEST PUSH2 0x2BA DUP2 DUP6 PUSH2 0x259 JUMP JUMPDEST SWAP4 POP PUSH2 0x2CA DUP2 DUP6 PUSH1 0x20 DUP7 ADD PUSH2 0x26A JUMP JUMPDEST PUSH2 0x2D3 DUP2 PUSH2 0x294 JUMP JUMPDEST DUP5 ADD SWAP2 POP POP SWAP3 SWAP2 POP POP JUMP JUMPDEST PUSH1 0x0 PUSH1 0x20 DUP3 ADD SWAP1 POP DUP2 DUP2 SUB PUSH1 0x0 DUP4 ADD MSTORE PUSH2 0x2F8 DUP2 DUP5 PUSH2 0x2A5 JUMP JUMPDEST SWAP1 POP SWAP3 SWAP2 POP POP JUMP JUMPDEST PUSH32 0x4E487B7100000000000000000000000000000000000000000000000000000000 PUSH1 0x0 MSTORE PUSH1 0x22 PUSH1 0x4 MSTORE PUSH1 0x24 PUSH1 0x0 REVERT JUMPDEST PUSH1 0x0 PUSH1 0x2 DUP3 DIV SWAP1 POP PUSH1 0x1 DUP3 AND DUP1 PUSH2 0x347 JUMPI PUSH1 0x7F DUP3 AND SWAP2 POP JUMPDEST PUSH1 0x20 DUP3 LT DUP2 SUB PUSH2 0x35A JUMPI PUSH2 0x359 PUSH2 0x300 JUMP JUMPDEST JUMPDEST POP SWAP2 SWAP1 POP JUMP INVALID LOG2 PUSH5 0x6970667358 0x22 SLT KECCAK256 0xA9 SWAP9 NOT PUSH20 0xDE6F9EAA0BFA8EA1C7F6F6757DA49ECF1A21D3A3 PUSH8 0xB5B41C326BC68264 PUSH20 0x6F6C634300081100330000000000000000000000 "
				},
				"gasEstimates": {
					"creation": {
						"codeDepositCost": "183600",
						"executionCost": "226",
						"totalCost": "183826"
					},
					"external": {
						"appoint()": "infinite",
						"history()": "infinite",
						"owner()": "2489"
					}
				},
				"methodIdentifiers": {
					"appoint()": "99eb2221",
					"history()": "98daac83",
					"owner()": "8da5cb5b"
				}
			},
			"storageLayout": {
				"storage": [
					{
						"astId": 4,
						"contract": "contracts/MedicalData.sol:MedicalData",
						"label": "owner",
						"offset": 0,
						"slot": "0",
						"type": "t_address"
					},
					{
						"astId": 7,
						"contract": "contracts/MedicalData.sol:MedicalData",
						"label": "history",
						"offset": 0,
						"slot": "1",
						"type": "t_contract(MedicalHistory)21"
					},
					{
						"astId": 9,
						"contract": "contracts/MedicalData.sol:MedicalData",
						"label": "appoint",
						"offset": 0,
						"slot": "2",
						"type": "t_string_storage"
					}
				],
				"types": {
					"t_address": {
						"encoding": "inplace",
						"label": "address",
						"numberOfBytes": "20"
					},
					"t_contract(MedicalHistory)21": {
						"encoding": "inplace",
						"label": "contract MedicalHistory",
						"numberOfBytes": "20"
					},
					"t_string_storage": {
						"encoding": "bytes",
						"label": "string",
						"numberOfBytes": "32"
					}
				}
			},
			"userdoc": {
				"kind": "user",
				"methods": {},
				"version": 1
			}
		}
	}
}